:020000040800F2
:10000000B83A002029020008310200083302000833
:10001000350200083702000839020008000000001D
:100020000000000000000000000000003B0200088B
:100030003D020008000000003F02000841020008E5
:10004000552200084302000843020008430200084A
:100050004302000843020008390600084302000872
:10006000430200084302000843020008430200085C
:10007000430200084302000843020008430200084C
:10008000430200084302000843020008430200083C
:10009000430200084302000843020008F906000872
:1000A000430200084302000843020008430200081C
:1000B00043020008A91E000843020008430200088A
:1000C00043020008430200084302000843020008FC
:1000D000430200080520000843020008430200080C
:1000E0006D060008430200084302000843020008AE
:1000F00043020008430200084302000843020008CC
:1001000043020008430200084302000843020008BB
:1001100043020008430200084302000843020008AB
:10012000430200084302000843020008430200089B
:10013000430200084302000843020008430200088B
:10014000430200084302000843020008430200087B
:10015000430200084302000843020008430200086B
:10016000430200084302000843020008430200085B
:10017000430200084302000843020008430200084B
:10018000430200084302000800F002F800F03CF8C7
:100190000AA090E8000C82448344AAF10107DA45E2
:1001A00001D100F031F8AFF2090EBAE80F0013F0F8
:1001B000010F18BFFB1A43F0010318477024000019
:1001C00090240000103A24BF78C878C1FAD85207AA
:1001D00024BF30C830C144BF04680C6070470000C1
:1001E0000023002400250026103A28BF78C1FBD840
:1001F000520728BF30C148BF0B6070471FB502F0DF
:100200000FFA1FBD10B510BD00F031F81146FFF711
:10021000F5FF02F023F900F04FF803B4FFF7F2FF07
:1002200003BC00F057F80000094880470948004720
:10023000FEE7FEE7FEE7FEE7FEE7FEE7FEE7FEE796
:10024000FEE7FEE704480549054A064B70470000F3
:10025000411E000889010008B8340020B83A002087
:10026000B8360020B8360020704770477047754692
:1002700000F02CF8AE4605006946534620F0070012
:10028000854618B020B5FFF7DDFFBDE820404FF0F0
:1002900000064FF000074FF000084FF0000B21F070
:1002A0000701AC46ACE8C009ACE8C009ACE8C0093D
:1002B000ACE8C0098D46704710B50446AFF3008026
:1002C0002046BDE81040FFF7A8BF00000048704777
:1002D0005434002001491820ABBEFEE7260002007E
:1002E000704700001CB50121082000F0FBFB4FF413
:1002F0004050009001208DF8040000208DF8060089
:1003000003208DF8050001208DF807006946054897
:1003100000F09CFA0120044908600449C1F8B402C5
:100320001CBD0000000C0240B082414200804142EE
:100330000021124A11601249096821F04061104AF7
:1003400011601146096841F08061116000210D4A79
:10035000C2F8B412002001E0411CC8B21428FBDB33
:100360000121064A1160002001E0411CC8B2142896
:10037000FBDB0021014A116070470000B08241425E
:10038000000C0240008041420021104A11601049D7
:10039000096821F040610E4A11601146096841F078
:1003A00080611160002001E0411CC8B21428FBDB11
:1003B0000121064A1160002001E0411CC8B2142846
:1003C000FBDB0021014A116070470000B08241420E
:1003D000000C02401249096821F04061104A116086
:1003E0001146096841F08061116001210D4A1160D8
:1003F0000D4AC2F8B012002001E0411CC8B23228F8
:10040000FBDB0021074A1160002001E0411CC8B25B
:100410003228FBDB0021034A121F116070470000E5
:10042000000C0240B48241420080414212490968F6
:1004300021F04061104A11601146096841F0806165
:10044000116000210D4A11600D4AC2F8B01200205F
:1004500001E0411CC8B23228FBDB0121074A121F10
:100460001160074AC2F8B412002001E0411CC8B272
:100470003228FBDB70470000000C0240B48241428E
:100480000080414210B5002400231748006820F086
:10049000406015490860084600680860012013495B
:1004A000086000BF01E0581CC3B2142BFBDB012025
:1004B0000E49091F0860002301E0581CC3B2142B29
:1004C000FBDB07E0601CC4B2FA2C03DDFFF7AEFFD4
:1004D000012010BD0548803800680028F2D103498A
:1004E000091F086000BFF4E7000C0240B4824142DB
:1004F00010B5FFF7F7FE10BD70B506460C46154661
:1005000008E03046721CD6B200F007F804F8010B80
:10051000681EC5B2002DF4D170BD30B50446FFF79A
:1005200059FFA02000F04EF8FFF7ACFF204600F086
:1005300049F8FFF7A7FFFFF74DFFA12000F042F8B1
:10054000FFF7A0FF002000F005F80546FFF76EFF5B
:10055000284630BD70B505461748006820F0406059
:100560001549086008460068086000261AE0002067
:1005700012490860002301E0581CC3B2142BFBDBB6
:1005800001200E4908606006040E0D48D0F83402C0
:100590002044C4B2002301E0581CC3B2142BFBDB7F
:1005A000701CC6B2082EE2DB15B1FFF7C1FE01E0F8
:1005B000FFF7EAFE204670BD000C0240B0824142C7
:1005C0000080414210B50146194B1B6823F040637F
:1005D000174C236023461B6843F08063236000238D
:1005E000144C236000221FE0CB09124C241D236011
:1005F0004B06190E002001E0431CD8B21428FBDB87
:1006000001230C4C2360002001E0431CD8B21428C5
:10061000FBDB0023074C2360002001E0431CD8B221
:100620001428FBDB531CDAB2082ADDDB10BD000006
:10063000000C0240B082414210B501F0EBFB0120FA
:1006400000F0AEF878B10221522000F0F5F984B242
:1006500004F0010020B101F0EBF90120024908701B
:10066000012000F097F810BD2000002010B54FF4D5
:10067000804000F095F8002835D044F2020000F0E8
:100680000BFD044604F0010048B1012144F20200D0
:1006900000F0DEFD0120144908701449086004F0E0
:1006A000020070B1022144F2020000F0D1FD1021DD
:1006B00044F2010000F0CCFD00200C4908600A491A
:1006C000087004F0040050B1094800F00DFC01204E
:1006D00008490870042144F2020000F0B9FD4FF40B
:1006E000804000F057F810BD700000209C8240420E
:1006F000B21300207100002010B5202000F050F847
:1007000000283DD044F2020000F0D6FF044604F079
:10071000010048B101201B4908601B4908700121F4
:1007200044F2020001F060F804F00200A8B10221D6
:1007300044F2020001F058F8102144F2010001F0E7
:1007400053F800200F4908600F49087000F076FE4A
:10075000012001F0B5FD00F0EFFF04F0040060B1EE
:100760000A4800F0D7FE0A480088401C0849088063
:10077000042144F2020001F037F8202000F00AF8CA
:1007800010BD0000A082404288000020B21B002063
:10079000060000200149086070470000143C014039
:1007A00001460020034A12680A400AB1012000E015
:1007B00000207047143C0140002123498279002A1F
:1007C0003AD00A46126803689A430B461A600A1D1B
:1007D000126803689A430B1D1A60027911440A6873
:1007E00003681A430A60184A0832126803689A4379
:1007F000154B08331A601A1D126803689A43124B8E
:100800000C331A604279102A0ED11A1F126803683D
:100810001A430D4B08331A601A1D126803681A43F5
:10082000094B0C331A600DE00749427911440A68FC
:1008300003681A430A6005E0027911440A680368F4
:100840009A430A6070470000003C0140F0B50A4638
:1008500000210023002400BF3DE0012505FA01F33B
:10086000156805EA03049C4234D105684F0003264D
:10087000BE40B543056015794E00B5400668354366
:1008800005601579012D02D01579022D16D18568E4
:100890004F000326BE40B543856055794E00B540F4
:1008A000866835438560456801268E40B5434560BE
:1008B000456896798E40B6B235434560C5684F00AD
:1008C0000326BE40B543C560D5794E00B540C66825
:1008D0003543C560491C1029BFD3F0BDF0B50023D6
:1008E00000244D07ED0E02FA05F3CE1000F12005AD
:1008F00055F826504E07F70E0F26BE40B543CF10D1
:1009000000F1200646F82750CE1000F1200555F8DA
:10091000265045EA0304CE1000F1200545F8264094
:10092000F0BD418370470183704742694A4042618C
:100930007047000000B50020FFF7EFFD1B4908706D
:100940000120FFF7EAFD1A490880084600884FF6A3
:10095000FF7101EA0020164908800220FFF7DDFD43
:1009600013490988084412490880042211490320C8
:10097000FFF7C2FD0720FFF7D0FD0F4908800846AA
:1009800000884FF6FF7101EA00200B49088008201B
:10099000FFF7C3FD08490988084407490880042275
:1009A00006490920FFF7A8FD00BD00000000002057
:1009B0006E000020620000208600002079000020E8
:1009C00070B5002100230F22C4781CB3174C246893
:1009D00004F4E064C4F5E064C4F30721C1F1040445
:1009E000E3B20A4144789C40E1B284781440214348
:1009F0000C07210E0E4C05786155047804F01F0594
:100A00000124AC4005786D11AD0005F1E025C5F875
:100A1000004109E0047804F01F050124AC40054DB5
:100A20000678761145F8264070BD00000CED00E018
:100A300000E400E080E100E02DE9F04106460F46C9
:100A4000002400201049086006F07F06304601F0BF
:100A500037F80546032F05D1304601F031F8054639
:100A60002C442402304601F02BF805462C44240285
:100A7000304601F025F805462C4401200249086063
:100A80002046BDE8F0810000808241422DE9F0411E
:100A900005460E461446002700201149086005F05F
:100AA0007F0040F08005284601F00AF88046032EBA
:100AB00005D1C4F30747384601F002F88046C4F375
:100AC0000727384600F0FCFF8046E7B2384600F0C2
:100AD000F7FF8046012002490860BDE8F081000070
:100AE0008082414229B1064A12680243044B1A60CF
:100AF00004E0034A12688243014B1A607047000009
:100B00003038024029B1064A12680243044B1A6089
:100B100004E0034A12688243014B1A6070470000E8
:100B20004038024029B1064A12680243044B1A6059
:100B300004E0034A12688243014B1A6070470000C8
:100B40002038024029B1064A12680243044B1A6059
:100B500004E0034A12688243014B1A6070470000A8
:100B60004438024029B1064A12680243044B1A6015
:100B700004E0034A12688243014B1A607047000088
:100B800024380240F0B5002100220024022500266E
:100B90000223324F3F6807F00C0121B1042905D030
:100BA000082937D105E02E4F076036E02D4F07604A
:100BB00033E02A4F3F1F3F68C7F38056274F3F1F40
:100BC0003F6807F03F036EB1264FB7FBF3F7DFF83E
:100BD0008CC0ACF1040CDCF800C0CCF3881C07FB23
:100BE0000CF40CE01E4FB7FBF3F7DFF870C0ACF16C
:100BF000040CDCF800C0CCF3881C07FB0CF4174F86
:100C00003F1F3F68C7F301477F1C7D00B4FBF5F72A
:100C1000076002E0124F076000BF00BF0F4F3F6840
:100C200007F0F0010909104F7A5C0768D740476068
:100C30000A4F3F6807F4E051890A0B4F7A5C476816
:100C4000D7408760054F3F6807F46041490B064F66
:100C50007A5C4768D740C760F0BD000008380240A2
:100C60000024F40000127A00D100002000B58BB0FF
:100C700001211020FFF736FF4FF48050099001202A
:100C80008DF8280000208DF82A0003208DF8290017
:100C900001208DF82B0009A96048FFF7D7FD4FF41C
:100CA00080515E48FFF73FFE4FF40050099001204D
:100CB0008DF8280000208DF82A0003208DF82900E7
:100CC00001208DF82B0009A95448FFF7BFFD4FF410
:100CD00000515248FFF725FE01210220FFF702FFD5
:100CE00001218803FFF70EFF4FF480500990012087
:100CF0008DF8280000208DF82A0003208DF82900A7
:100D000001208DF82B0009A94548FFF79FFD4FF4FE
:100D100080514348FFF707FE4FF4604009900220DE
:100D20008DF8280000208DF82A0002208DF8290077
:100D300001208DF82B0009A93948FFF787FD05220E
:100D40000D213748FFF7CAFD05220E213448FFF771
:100D5000C5FD05220F213248FFF7C0FD314800F0E4
:100D6000E3FE0020ADF804004FF48270ADF80600F9
:100D70000020ADF80800ADF80A00ADF80C004FF403
:100D80000070ADF80E000020ADF81000ADF81200B4
:100D90000720ADF8140001A9224800F02BFF012123
:100DA000204800F0B5FE01211020FFF79BFE4FF414
:100DB0008040099000208DF8280003208DF829003C
:100DC00001208DF82B0009A91448FFF73FFD0121F0
:100DD0008803FFF7B7FE0E21042000F085FF4FF4D3
:100DE0008040079000208DF820000C208DF8210015
:100DF00001208DF8220007A8FFF7DEFC28208DF8DF
:100E0000180002208DF819008DF81A0001208DF8C5
:100E10001B0006A8FFF7D4FD0BB000BD0010024078
:100E2000000402400038004010B5FFF71FFF00F03B
:100E300053F9002407E0254A115D04F1090000F090
:100E400007FA601CC4B2062CF5DB002406E0204A39
:100E5000115D601C00F0FCF9601CC4B2042CF6DBD0
:100E6000002407E01B4A115D04F10F0000F0F0F9C7
:100E7000601CC4B2042CF5DB17480088010A172057
:100E800000F0E6F914480178182000F0E1F9134861
:100E90000178192000F0DCF9002413E0104A115DFC
:100EA00044F21E0202EB042290B200F0D1F90D4A86
:100EB000115D44F21F0202EB042290B200F0C8F967
:100EC000601CC4B2082CE9DB10BD00005C000020EF
:100ED00066000020620000208C0000208E000020B0
:100EE000E2000020EA0000202DE9F047804600F0F3
:100EF00091FF44F2260000F0CFF888F8000044F299
:100F0000270000F0C9F888F8010098F8010098F867
:100F1000001000EB012087B2C7F30C0744F2280051
:100F200000F0BAF80446240244F2290000F0B4F8B4
:100F3000204484B2E0191FFA80F9C4F30C04E019CC
:100F4000B0F5005F48DDC4F5005085B204F54040BF
:100F500084B24FF480514148FFF7E3FC200A00F0CF
:100F60007FF8E0B200F07CF8C5F3062000F078F8D6
:100F7000E8B200F075F8002607E0002000F070F8F5
:100F8000B11C08F80100701C86B2AE42F5DB4FF4CC
:100F90004044200A00F064F8E0B200F061F8791BE8
:100FA000C1F3062000F05CF8791BC8B200F058F8D5
:100FB000002608E0002000F053F87119891C08F899
:100FC0000100701C86B2781BB042F3DC4FF48051F4
:100FD0002248FFF7A8FC26E004F5404084B23D46D5
:100FE0004FF480511D48FFF79CFC200A00F038F8B0
:100FF000E0B200F035F8C5F3062000F031F8E8B2B1
:1010000000F02EF8002607E0002000F029F8B11CBF
:1010100008F80100701C86B2AE42F5DB4FF4805137
:101020000E48FFF780FC4FEA192144F2280000F037
:101030000FF909F0FF0144F2290000F009F94021FD
:1010400044F2010000F004F900BF44F2010000F096
:1010500023F80028F9D1BDE8F08700000004024021
:1010600010B5044600BF02210A4800F0B5FD002873
:10107000F9D02146074800F0BBFD00BF012105481B
:1010800000F0AAFD0028F9D0024800F0AEFDC0B281
:1010900010BD00000038004070B504464FF4805188
:1010A0000C48FFF73EFC200AFFF7DAFFE0B2FFF73B
:1010B000D7FF0020FFF7D4FF0120FFF7D1FF00206A
:1010C000FFF7CEFF05464FF480510248FFF72BFC97
:1010D000284670BD0004024070B54FF480510F489F
:1010E000FFF71FFC002401E0601C84B2A52CFBDB91
:1010F0004FF480510948FFF716FC002408E0002552
:1011000001E0681C85B2B5F57A7FFADB601C84B219
:1011100041F288308442F2DB70BD000000100240D2
:1011200070B50121162000F093F8072144F22C003D
:1011300000F08EF800BF0121880300F089F84048D4
:101140000088010A44F2040000F082F83C4801786B
:1011500044F2050000F07CF8012144F2010000F0A7
:1011600077F844F20300FFF797FF132810D0601CB4
:10117000C4B20A2C05DA102144F2010000F068F82C
:10118000D9E7102144F2010000F062F8002070BDA0
:10119000002408E02B4A115D44F20C02A01800F074
:1011A00057F8601CC4B2042CF4DB27480088010AFD
:1011B00044F2100000F04CF82348017844F211008A
:1011C00000F046F8042144F2010000F041F800BFAD
:1011D00044F20100FFF760FF0028F9D11B490870B5
:1011E00023E044F20300FFF757FF054644F20200F4
:1011F000FFF752FF00F0080068B1082144F2020036
:1012000000F026F8102144F2010000F021F801203E
:101210000E4908700FE044F20300FFF73DFF172866
:1012200003D102200949087005E044F20300FFF7EA
:1012300033FF1528D5D100BF04480078A7E7000088
:101240006E000020560000205A00002054000020AC
:1012500070B504460D464FF480510C48FFF761FB12
:10126000200AFFF7FDFEE0B2FFF7FAFE8020FFF74D
:10127000F7FE0120FFF7F4FE2846FFF7F1FE4FF4DA
:1012800080510248FFF74FFB70BD00000004024090
:1012900000B58BB001210846FFF724FC042009901B
:1012A00001208DF8280000208DF82A0003208DF8F9
:1012B000290001208DF82B0009A95D48FFF7C6FA27
:1012C00004215B48FFF72FFB0820099001208DF8CF
:1012D000280000208DF82A0003208DF82900012025
:1012E0008DF82B0009A95248FFF7B0FA08215048A1
:1012F000FFF717FB01210846FFF7F4FB0121080364
:10130000FFF720FC1020099001208DF82800002014
:101310008DF82A0003208DF8290001208DF82B007C
:1013200009A94348FFF792FA10214148FFF7FBFA59
:10133000E020099002208DF8280000208DF82A0076
:1013400002208DF8290001208DF82B0009A93848CA
:10135000FFF77CFA052211463548FFF7BFFA052250
:1013600006213348FFF7BAFA052207213048FFF774
:10137000B5FA304800F0D8FB0020ADF804004FF477
:101380008270ADF806000020ADF80800ADF80A0044
:10139000ADF80C004FF40070ADF80E000020ADF871
:1013A0001000ADF812000720ADF8140001A9214883
:1013B00000F020FC01211F4800F0AAFB01210420BD
:1013C000FFF790FB2020099000208DF828000320D3
:1013D0008DF8290001208DF82B0009A91648FFF788
:1013E00035FA01218803FFF7ADFB0521022000F04B
:1013F0007BFC2020079000208DF820000C208DF829
:10140000210001208DF8220007A8FFF7D5F9172049
:101410008DF8180002208DF819008DF81A000120AF
:101420008DF81B0006A8FFF7CBFA0BB000BD00003B
:1014300000000240003001400008024010B5FFF7F4
:1014400027FF00F057F9002407E02A4A115D04F154
:10145000090000F0C9F9601CC4B2062CF5DB0024B9
:1014600006E0254A115D601D00F0BEF9601CC4B2A3
:10147000042CF6DB002406E0204A115D601C00F01D
:10148000B3F9601CC4B2042CF6DB002407E01C4A4C
:10149000115D04F10F0000F0A7F9601CC4B2042C28
:1014A000F5DB18480088010A172000F09DF915485F
:1014B0000178182000F098F913480178192000F0FD
:1014C00093F9002413E0114A115D44F21E0202EB6D
:1014D000042290B200F088F90D4A115D44F21F0217
:1014E00002EB042290B200F07FF9601CC4B2082C19
:1014F000E9DB10BD73000020810000207D0000208A
:10150000790000208C0000208E000020E2000020E6
:10151000EA0000202DE9F047804644F2260000F062
:10152000CBF888F8000044F2270000F0C5F888F8EE
:10153000010098F8010098F8001000EB012087B234
:10154000C7F30C074C48078044F2280000F0B4F8B9
:101550000446240244F2290000F0AEF8204484B28C
:10156000E0191FFA80F9C4F30C04E019B0F5005F2C
:1015700044DDC4F5005085B204F5404084B210212A
:101580003E48FFF7CEF9200A00F07AF8E0B200F00A
:1015900077F8C5F3062000F073F8E8B200F070F8B1
:1015A000002606E0002000F06BF808F80600701C2A
:1015B00086B2AE42F6DB4FF44044200A00F060F8F9
:1015C000E0B200F05DF8791BC1F3062000F058F896
:1015D000791BC8B200F054F8002607E0002000F0A4
:1015E0004FF8711908F80100701C86B2781BB042E0
:1015F000F4DC10212148FFF796F923E004F5404080
:1016000084B23D4610211D48FFF78BF9200A00F0F7
:1016100037F8E0B200F034F8C5F3062000F030F8F7
:10162000E8B200F02DF8002606E0002000F028F8CF
:1016300008F80600701C86B2AE42F6DB10210F4897
:10164000FFF771F94FEA192144F2280000F0CCF8B5
:1016500009F0FF0144F2290000F0C6F8402144F2ED
:10166000010000F0C1F800BF44F2010000F024F8CE
:101670000028F9D1BDE8F087F20000200000024008
:1016800010B5044600BF02210A4800F0A5FA002860
:10169000F9D02146074800F0ABFA00BF0121054808
:1016A00000F09AFA0028F9D0024800F09EFAC0B281
:1016B00010BD00000030014070B5044610210C48F8
:1016C000FFF72FF9200AFFF7DBFFE0B2FFF7D8FFA3
:1016D0000020FFF7D5FF0120FFF7D2FF0020FFF722
:1016E000CFFF054610210248FFF71DF9284670BDBF
:1016F0000000024070B504210E48FFF712F90024E3
:1017000001E0601C84B2A52CFBDB04210948FFF733
:101710000AF9002408E0002501E0681C85B2B5F54F
:101720007A7FFADB601C84B241F288308442F2DBBB
:1017300070BD00000000024010B50121162000F02D
:1017400053F8072144F22C0000F04EF800BF0121AD
:10175000880300F049F823480088010A44F2040095
:1017600000F042F81F48017844F2050000F03CF810
:10177000012144F2010000F037F844F20300FFF7C2
:101780009BFF132810D0601CC4B20A2C05DA10216C
:1017900044F2010000F028F8D9E7102144F20100DA
:1017A00000F022F8002010BD022144F2010000F0F8
:1017B0001BF844F20300FFF77FFF142810D0601CD1
:1017C000C4B20A2C05DA102144F2010000F00CF832
:1017D000BDE7102144F2010000F006F80020E2E726
:1017E0000120E0E78600002070B504460D46102178
:1017F0000B48FFF796F8200AFFF742FFE0B2FFF729
:101800003FFF8020FFF73CFF0120FFF739FF28460C
:10181000FFF736FF10210248FFF785F870BD000082
:101820000000024000B585B001210820FFF75AF9F9
:10183000012003908DF8100000208DF81200032085
:101840008DF8110001208DF8130003A92C48FEF734
:10185000FDFF01212A48FFF766F801210846FFF73E
:1018600041F90220039001208DF8100000208DF82E
:10187000120003208DF8110001208DF8130003A938
:101880002048FEF7E3FF02211E48FFF74CF8012134
:101890000846FFF727F90120039000208DF810007B
:1018A00003208DF8110001208DF8130003A91548BD
:1018B000FEF7CCFF01218803FFF744F90021084619
:1018C00000F012FA0120009000208DF804000C2096
:1018D0008DF8050001208DF806006846FEF76CFFC4
:1018E00006208DF8080002208DF809008DF80A0006
:1018F00001208DF80B0002A8FFF762F805B000BDCB
:10190000000C02400000024010B50024FFF78AFFDF
:10191000012000F017FD00F08BF901203E4908601E
:101920000A2000F00FFD00203C49C1F884020A2083
:1019300000F008FD40F2052202215620FFF7A6F82C
:101940003748027802216020FFF7A0F84FF6FF72B7
:1019500002216820FFF79AF8012202215020FFF7A8
:1019600095F83048027802213C20FFF78FF800BF3D
:1019700016E0224602212020FFF788F807220221E4
:101980003220FFF783F82848025D02212220FFF76A
:101990007DF8224602213A20FFF778F8601CC4B295
:1019A000122CE6DB4AF6A13202217020FFF76EF816
:1019B000002202212020FFF769F800220221722074
:1019C000FFF764F8012202212020FFF75FF81022C0
:1019D00002217220FFF75AF8022211462020FFF759
:1019E00055F8202202217220FFF750F8032202212D
:1019F0002020FFF74BF8302202217220FFF746F833
:101A00000A4A03212A20FFF741F84FF444720221C9
:101A10002420FFF73BF810BD840240420000404202
:101A2000000000202100002046130020FFFF0300DB
:101A30002DE9F04100F0EEF903214020FEF7FCFF14
:101A40008046002431E00120A04000EA080050B3A5
:101A50000120A0401749096808431649086022463A
:101A600002212020FFF712F802212620FEF7E4FFD2
:101A7000054605F48070B0B1EFB200200E49086051
:101A8000482000F01DF8002608E0AA2000F018F811
:101A90000A4901EBC4118855701CC6B2BE42F4DB82
:101AA000012005490860601CC4B2122CCBDBBDE8E4
:101AB000F08100001C00002080824142460A002084
:101AC00010B5044600BF02210A4800F085F800283E
:101AD000F9D02146074800F08BF800BF01210548E6
:101AE00000F07AF80028F9D0024800F07EF8C0B281
:101AF00010BD0000003C004021B1028842F40052B9
:101B0000028004E002884DF6FF731A40028070479D
:101B100021B1028842F04002028004E002884FF6C0
:101B2000BF731A400280704710B5044624488442AF
:101B300008D101218014FFF715F80021A014FFF748
:101B400011F83CE01F48844208D101210014FEF73F
:101B5000E9FF00212014FEF7E5FF30E01A48844237
:101B600008D10121C013FEF7DDFF0021E013FEF7CD
:101B7000D9FF24E01548844208D101214014FEF722
:101B8000F1FF00216014FEF7EDFF18E010488442D9
:101B900009D101210805FEF7E5FF00214FF480106F
:101BA000FEF7E0FF0BE00B48844208D10121480515
:101BB000FEF7D8FF00214FF40010FEF7D3FF10BD51
:101BC0000030014000380040003C0040003401403B
:101BD00000500140005401400246002013890B4090
:101BE0000BB1012000E00020704701468889704752
:101BF0008181704710B50022028802F441520B889F
:101C00004C8823438C882343CC8823430C8923436B
:101C10004C8923438C892343CC8923431A43028074
:101C2000838B4FF2FF74234083830B8A038210BDA2
:101C300000B587B001210420FEF754FF0121C8033D
:101C4000FEF760FF4FF4E050059002208DF8180079
:101C500000208DF81A0002208DF819008DF81B0065
:101C600005A91F48FEF7F2FD06220A211C48FEF7CF
:101C700035FE06220B211A48FEF730FE06220C2103
:101C80001748FEF72BFE1748FFF74EFF0020ADF870
:101C900000004FF48270ADF802000020ADF804009F
:101CA000ADF80600ADF808004FF40070ADF80A007A
:101CB0001020ADF80C000020ADF80E000720ADF8A4
:101CC000100069460748FFF795FF00210548FFF718
:101CD00013FF01210348FFF71BFF07B000BD000001
:101CE00000080240003C004030B500228B071C0F6A
:101CF0000F2303FA04F20B4B8C1053F82430934358
:101D0000084C8D1044F8253023468C1053F82430AD
:101D10008C07240F00FA04F42343024C8D1044F87E
:101D2000253030BD083801400CB5002001900090EE
:101D30003448006840F480303249086000BF3148C0
:101D4000006800F4003000900198401C0190009859
:101D500018B90198B0F5A04FF1D12A48006800F4F5
:101D6000003010B10120009001E0002000900098A8
:101D7000012846D123484030006840F08050214976
:101D8000403108602048006840F440401E49086027
:101D90001C48083000681B49083108600846006884
:101DA00040F4004008600846006840F4A050086015
:101DB0001648091F0860081F006840F08070091F5E
:101DC000086000BF0F48006800F000700028F9D0DC
:101DD00040F205700E4908600A480830006820F09B
:101DE00003000849083108600846006840F0020016
:101DF000086000BF03480830006800F00C000828A5
:101E0000F8D10CBD00380240007000400854400773
:101E1000003C02407047042808D14FF0E0210969D6
:101E200041F004014FF0E022116107E04FF0E021A2
:101E3000096921F004014FF0E022116170470000B0
:101E400010B51548006840F4700013490860134845
:101E5000006840F001001149086000200F49083176
:101E600008600E4800680E4908400C4908600D489B
:101E7000091D0860081F006820F48020091F086001
:101E8000002006490C310860FFF74EFF4FF000605C
:101E900001498039086010BD88ED00E0003802403B
:101EA000FFFFF6FE1030002410B50121064800F0B7
:101EB0004CF8012803D141020448FEF736FD012108
:101EC000014800F033F810BD000400400004024057
:101ED0007FB505460C4601210220FEF713FE029550
:101EE000ADF804400020ADF80600ADF80C0001A9E3
:101EF0000D4800F045F8012211460B4800F036F875
:101F00000121094800F015F81D208DF8000001207E
:101F10008DF8010003208DF8020000208DF80300E9
:101F20006846FEF74DFD7FBD00040040CA430282B3
:101F3000704721B1028842F00102028004E0028869
:101F40004FF6FE731A400280704730B502460020FB
:101F500000230024158A05EA0103958905EA010496
:101F600013B10CB1012000E0002030BD1AB183890B
:101F70000B43838102E083898B4383817047000098
:101F800000220288184B98420ED0184B98420BD072
:101F9000B0F1804F08D0164B984205D0154B9842AF
:101FA00002D0154B984204D14FF68F731A404B88DC
:101FB0001A43124B984207D0114B984204D04FF667
:101FC000FF431A400B891A4302804B68C3620B8897
:101FD0000385054B984202D0044B984201D18B7A7D
:101FE0000386012383827047000001400004014002
:101FF0000004004000080040000C004000100040B9
:102000000014004010B540F22551234800F05CF860
:10201000002838D0204800F011F9C4B21F480078D9
:1020200048B9102C01D0682C05D101201B4908703B
:1020300000201B4908701B48194909784454184866
:102040000078401C1649087016480078102809D1FD
:1020500008460078052805D10120134908700020A2
:102060000E4908700F48007868280CD10D48407858
:10207000801D0B490978884205D101200A49087062
:102080000020064908700948006808B9012000E0EE
:1020900000200649086010BD00100140F400002037
:1020A000F500002054330020A7000020A482404205
:1020B00021B1828942F40052828104E082894DF686
:1020C000FF731A408281704770B5024600240023D6
:1020D0000025002040F66A16B14200D100BFC1F3CE
:1020E000421501F01F03012606FA03F3012D02D168
:1020F0009689334006E0022D02D1168A334001E072
:10210000968A33400C12012606FA04F416883440ED
:1021100013B10CB1012000E0002070BDF0B5034602
:10212000002400260025002040F66A17B94200D19D
:1021300000BF1846C1F3421401F01F06012707FA39
:1021400006F5012C01D10C3004E0022C01D1103035
:1021500000E014301AB107682F43076002E00768F7
:10216000AF430760F0BD00002DE9FF4705460E466E
:102170000024A14600BFA046B08900B100BF2C8A50
:1021800024F44054F08804432C82AC8941F20C6062
:102190008443B08831890843718908430443AC8182
:1021A000AC8A24F44074B0890443AC826846FEF7DC
:1021B000E9FC2048854202D01F48854202D1DDF863
:1021C0000C9001E0DDF80890A88900F4004040B1CF
:1021D00009EBC90000EB091031684900B0FBF1F7C9
:1021E00007E009EBC90000EB091031688900B0FB7A
:1021F000F1F76420B7FBF0F004012009642101FB32
:102200001078A88900F4004040B1322000EBC800EB
:10221000B0FBF1F000F00700044308E0322000EBCF
:1022200008106421B0FBF1F000F00F0004432C8192
:10223000BDE8FF8700100140001401400146888876
:10224000C0F3080070470000002001490860704793
:10225000082C004010B50648007800F00BF8FFF796
:10226000F3FF002401E0601CC4B2042CFBDB10BDB2
:10227000F600002000F07F01014A11607047000065
:10228000002C004010B504466FF00400FFF7C3FDBA
:10229000E11704EB5171C1F3C701074A11701046F1
:1022A000007800EB4001C1EBC0104FF6FF7101EA6E
:1022B000C0000249088010BDF8000020FA0000208C
:1022C00070B504464FF4077094FBF0F0C6B24FF4BB
:1022D000077094FBF0F100FB114085B205E04FF46C
:1022E000077000F009F8701EC6B2002EF7D115B1C4
:1022F000284600F001F870BD0146114A12884A4391
:102300004FF0E0235A6100229A611A46126942F0A6
:1023100001021A6100BF4FF0E022106900F00102D3
:102320001AB100F48032002AF5D04FF0E022126991
:1023300022F001024FF0E0231A6100229A617047F7
:10234000FA00002010B500230EE0002107E0002273
:1023500001E0541CA2B2642AFBDB4C1CA1B2B1F513
:10236000C87FF4DB5C1CA3B28342EEDB10BD00002F
:102370001CB501214020FEF7B5FB80200090012014
:102380008DF8040000208DF8060003208DF805006C
:1023900001208DF8070069462C48FEF757FA802186
:1023A0002A48FEF7BEFA01210846FEF79BFB4FF4D0
:1023B0000060009001208DF8040000208DF80600D8
:1023C00003208DF8050001208DF80700694620489C
:1023D000FEF73CFA4FF400611D48FEF7A2FA012116
:1023E0001020FEF77FFB0320009001208DF80400F1
:1023F00000208DF8060003208DF8050001208DF8DF
:10240000070069461348FEF721FA03211148FEF739
:1024100088FA01210220FEF765FB4FF460700090FE
:1024200001208DF8040000208DF8060003208DF8AF
:10243000050001208DF8070069460748FEF706FAF7
:102440004FF460710448FEF76CFA1CBD001802409E
:10245000000002400010024000040240A820FFF7E4
:1024600011FFFFF785FF01202E49086000202E494B
:10247000C1F8AC0205202D4908700A20FFF720FFA3
:10248000FEF736F80A20FFF71BFFFEF753FA0A2083
:10249000FFF716FF0020264908700CE0244800785A
:1024A000800014302349224A12788854204800784A
:1024B000401C1F4908701E4800781228EEDBFFF709
:1024C00023FA0A20FFF7FCFE42F2CF0142F210701D
:1024D000FFF7FEFC4FF4165000F038F800201649C4
:1024E00008701649087016490870012010490870D4
:1024F00008E0FEF799FC6420FFF7E2FEFEF710FE0D
:102500000B4908700A4800780128F2D00D4800688D
:10251000401C0C49086004E00B4800786420FFF779
:10252000CFFEF9E79C024342000040422100002018
:10253000D0000020461300207000002088000020FA
:1025400071000020CC0000200000002010B588B0F1
:10255000044601210846FEF7C5FA01211020FEF7C6
:10256000F1FA01210846FEF7BDFA4FF4807006909B
:1025700000208DF81C0003208DF81D0001208DF82F
:102580001F0006A92448FEF761F907220921224805
:10259000FEF7A4F907220A211F48FEF79FF94FF41E
:1025A000C060069002208DF81C008DF81D000020F0
:1025B0008DF81E0001208DF81F0006A91648FEF7B1
:1025C00045F902940020ADF80C00ADF80E00ADF80E
:1025D0001000ADF814000C20ADF8120002A90F484D
:1025E000FFF7C2FD01210D48FFF762FD012240F215
:1025F00025510A48FFF792FD25208DF8040002209E
:102600008DF805008DF8060001208DF8070001A85F
:10261000FEF7D6F908B010BD0000024000100140DE
:102620004FF04070E1EE100A704700004C260008A1
:1026300000000020FC000000C4010008482700083A
:10264000FC000020BC390000E00100080000000090
:1026500000000000040E4CC0A801420E56C0A801A4
:102660004300000000000000000000000000646162
:1026700071690005010006060C1012150B030F4EC0
:102680004F50676DC8252B0319444E5A0C10121574
:102690000B030F4E4F50676DC8252B0319444E5A3C
:1026A0000000C0A801477E0E0008DC010203C0A89C
:1026B0000142C0A80104FFFFFF00F2040000000077
:1026C00008DC010203C0A80142C0A80104FFFFFF0B
:1026D0000000F20400000000881303000000000066
:1026E00000000001000000000000000000000000E9
:1026F000000000000000000000006804430000002B
:10270000680407000000680E000000006401060075
:1027100001000000001400000000000000000000A4
:10272000000102030401020304060708090008026D
:102730000101010101010802010101010101000083
:0827400000007F000000000012
:040000050800018965
:00000001FF
