:020000040800F2
:10000000C03A00202902000831020008330200082B
:10001000350200083702000839020008000000001D
:100020000000000000000000000000003B0200088B
:100030003D020008000000003F02000841020008E5
:10004000430200084302000843020008430200087C
:10005000430200084302000831060008430200087A
:10006000430200084302000843020008430200085C
:10007000430200084302000843020008430200084C
:10008000430200084302000843020008430200083C
:10009000430200084302000843020008ED0600087E
:1000A000430200084302000843020008430200081C
:1000B00043020008A1200008430200084302000890
:1000C00043020008430200084302000843020008FC
:1000D00043020008FD210008430200084302000813
:1000E00061060008430200084302000843020008BA
:1000F00043020008430200084302000843020008CC
:1001000043020008430200084302000843020008BB
:1001100043020008430200084302000843020008AB
:10012000430200084302000843020008430200089B
:10013000430200084302000843020008430200088B
:10014000430200084302000843020008430200087B
:10015000430200084302000843020008430200086B
:10016000430200084302000843020008430200085B
:10017000430200084302000843020008430200084B
:10018000430200084302000800F002F800F03CF8C7
:100190000AA090E8000C82448344AAF10107DA45E2
:1001A00001D100F031F8AFF2090EBAE80F0013F0F8
:1001B000010F18BFFB1A43F00103184798260000EF
:1001C000B8260000103A24BF78C878C1FAD8520780
:1001D00024BF30C830C144BF04680C6070470000C1
:1001E0000023002400250026103A28BF78C1FBD840
:1001F000520728BF30C148BF0B6070471FB502F0DF
:1002000023FB1FBD10B510BD00F031F81146FFF7FC
:10021000F5FF02F001FA00F04FF803B4FFF7F2FF28
:1002200003BC00F053F80000094880470948004724
:10023000FEE7FEE7FEE7FEE7FEE7FEE7FEE7FEE796
:10024000FEE7FEE704480549054A064B70470000F3
:100250003920000889010008C0340020C03A00207D
:10026000C0360020C0360020704770477047754682
:1002700000F028F8AE4605006946534620F0070016
:10028000854618B020B5FFF7DDFFBDE820404FF0F0
:1002900000064FF000074FF000084FF0000B21F070
:1002A0000701AC46ACE8C009ACE8C009ACE8C0093D
:1002B000ACE8C0098D4670470446AFF30080204685
:1002C000FFF7ABFF004870475C340020014918205D
:1002D000ABBEFEE726000200704700001CB50121FE
:1002E000082000F0F5FB4FF44050009001208DF8FD
:1002F000040000208DF8060003208DF80500012081
:100300008DF807006946054800F096FA0120044977
:1003100008600449C1F8B4021CBD0000000C024092
:10032000B0824142008041420021124A11601249CC
:10033000096821F04061104A11601146096841F0D6
:100340008061116000210D4AC2F8B412002001E062
:10035000411CC8B21428FBDB0121064A11600020B1
:1003600001E0411CC8B21428FBDB0021014A1160E6
:1003700070470000B0824142000C024000804142C0
:100380000021104A11601049096821F040610E4AAD
:1003900011601146096841F080611160002001E0A0
:1003A000411CC8B21428FBDB0121064A1160002061
:1003B00001E0411CC8B21428FBDB0021014A116096
:1003C00070470000B0824142000C024012490968A7
:1003D00021F04061104A11601146096841F08061C6
:1003E000116001210D4A11600D4AC2F8B0120020BF
:1003F00001E0411CC8B23228FBDB0021074A116032
:10040000002001E0411CC8B23228FBDB0021034A76
:10041000121F116070470000000C0240B48241427C
:10042000008041421249096821F04061104A116080
:100430001146096841F08061116000210D4A116088
:100440000D4AC2F8B012002001E0411CC8B23228A7
:10045000FBDB0121074A121F1160074AC2F8B412E0
:10046000002001E0411CC8B23228FBDB70470000CD
:10047000000C0240B48241420080414210B5002489
:1004800000231748006820F04060154908600846BE
:100490000068086001201349086000BF01E0581C93
:1004A000C3B2142BFBDB01200E49091F0860002397
:1004B00001E0581CC3B2142BFBDB07E0601CC4B284
:1004C000FA2C03DDFFF7AEFF012010BD0548803890
:1004D00000680028F2D10349091F086000BFF4E753
:1004E000000C0240B482414210B5FFF7F7FE10BD88
:1004F00070B506460C46154608E03046721CD6B26A
:1005000000F007F804F8010B681EC5B2002DF4D105
:1005100070BD30B50446FFF759FFA02000F04EF83B
:10052000FFF7ACFF204600F049F8FFF7A7FFFFF701
:100530004DFFA12000F042F8FFF7A0FF002000F0DF
:1005400005F80546FFF76EFF284630BD70B5054635
:100550001748006820F040601549086008460068A8
:10056000086000261AE0002012490860002301E01C
:10057000581CC3B2142BFBDB01200E490860600637
:10058000040E0D48D0F834022044C4B2002301E028
:10059000581CC3B2142BFBDB701CC6B2082EE2DB66
:1005A00015B1FFF7C1FE01E0FFF7EAFE204670BD7E
:1005B000000C0240B08241420080414210B5014629
:1005C000194B1B6823F04063174C236023461B68BC
:1005D00043F0806323600023144C236000221FE05B
:1005E000CB09124C241D23604B06190E002001E09C
:1005F000431CD8B21428FBDB01230C4C23600020E1
:1006000001E0431CD8B21428FBDB0023074C236015
:10061000002001E0431CD8B21428FBDB531CDAB2E3
:10062000082ADDDB10BD0000000C0240B082414210
:1006300010B5012000F0AAF878B10221522000F094
:10064000F1F984B204F0010020B101F0A5F9012014
:1006500002490870012000F093F810BD1800002036
:1006600010B54FF4804000F091F8002835D044F2E6
:10067000020000F007FD044604F0010048B101212A
:1006800044F2020000F09AFD012014490870144958
:10069000086004F0020070B1022144F2020000F090
:1006A0008DFD102144F2010000F088FD00200C496E
:1006B00008600A49087004F0040050B1094800F0CD
:1006C0000BFC012008490870042144F2020000F0EC
:1006D00075FD4FF4804000F053F810BD6800002015
:1006E0009C824042BA1300206900002010B52020EF
:1006F00000F04CF8002839D044F2020000F092FFDC
:10070000044604F0010048B1012019490870194954
:100710000860012144F2020001F01CF804F002001C
:1007200098B1022144F2020001F014F8102144F2C1
:10073000010001F00FF800200E49086000F034FEBF
:10074000642001F09BFE00F0ADFF04F0040050B106
:10075000094800F095FE012008490870042144F280
:10076000020000F0F7FF202000F00AF810BD0000A2
:1007700080000020A0824042BA1B0020810000209F
:100780000149086070470000143C01400146002008
:10079000034A12680A400AB1012000E000207047B5
:1007A000143C0140002123498279002A3AD00A46AC
:1007B000126803689A430B461A600A1D12680368A0
:1007C0009A430B1D1A60027911440A6803681A43A0
:1007D0000A60184A0832126803689A43154B0833B6
:1007E0001A601A1D126803689A43124B0C331A6080
:1007F0004279102A0ED11A1F126803681A430D4B52
:1008000008331A601A1D126803681A43094B0C3327
:100810001A600DE00749427911440A6803681A43D7
:100820000A6005E0027911440A6803689A430A6085
:1008300070470000003C0140F0B50A46002100234B
:10084000002400BF3DE0012505FA01F3156805EA23
:1008500003049C4234D105684F000326BE40B543D3
:10086000056015794E00B540066835430560157979
:10087000012D02D01579022D16D185684F0003266F
:10088000BE40B543856055794E00B5408668354316
:100890008560456801268E40B54345604568967978
:1008A0008E40B6B235434560C5684F000326BE4052
:1008B000B543C560D5794E00B540C6683543C560BF
:1008C000491C1029BFD3F0BDF0B5002300244D070B
:1008D000ED0E02FA05F3CE1000F1200555F8265072
:1008E0004E07F70E0F26BE40B543CF1000F120068D
:1008F00046F82750CE1000F1200555F8265045EA5D
:100900000304CE1000F1200545F82640F0BD4183D8
:1009100070470183704742694A4042617047000056
:1009200000B50020FFF7F5FD1B4908700120FFF717
:10093000F0FD1A490880084600884FF6FF7101EA69
:100940000020164908800220FFF7E3FD13490988BB
:10095000084412490880042211490320FFF7C8FD0A
:100960000720FFF7D6FD0F490880084600884FF69C
:10097000FF7101EA00200B4908800820FFF7C9FD3C
:1009800008490988084407490880042206490920C3
:10099000FFF7AEFD00BD0000000000206600002053
:1009A0005A0000207E0000207100002070B5002158
:1009B00000230F22C4781CB3174C246804F4E064AD
:1009C000C4F5E064C4F30721C1F10404E3B20A41B1
:1009D00044789C40E1B28478144021430C07210EF6
:1009E0000E4C05786155047804F01F050124AC40D5
:1009F00005786D11AD0005F1E025C5F8004109E06D
:100A0000047804F01F050124AC40054D06787611EA
:100A100045F8264070BD00000CED00E000E400E069
:100A200080E100E02DE9F04106460F460024002059
:100A30001049086006F07F06304601F03BF8054695
:100A4000032F05D1304601F035F805462C44240229
:100A5000304601F02FF805462C442402304601F0C0
:100A600029F805462C440120024908602046BDE8CB
:100A7000F0810000808241422DE9F04105460E469A
:100A80001446002700201149086005F07F0040F05F
:100A90008005284601F00EF88046032E05D1C4F3E8
:100AA0000747384601F006F88046C4F30727384662
:100AB00001F000F88046E7B2384600F0FBFF8046C0
:100AC000012002490860BDE8F081000080824142B7
:100AD00029B1064A12680243044B1A6004E0034A33
:100AE00012688243014B1A607047000030380240A0
:100AF00029B1064A12680243044B1A6004E0034A13
:100B000012688243014B1A6070470000403802406F
:100B100029B1064A12680243044B1A6004E0034AF2
:100B200012688243014B1A6070470000203802406F
:100B300029B1064A12680243044B1A6004E0034AD2
:100B400012688243014B1A6070470000443802402B
:100B500029B1064A12680243044B1A6004E0034AB2
:100B600012688243014B1A6070470000243802402B
:100B7000F0B5002100220024022500260223324F76
:100B80003F6807F00C0121B1042905D0082937D1AD
:100B900005E02E4F076036E02D4F076033E02A4F07
:100BA0003F1F3F68C7F38056274F3F1F3F6807F03E
:100BB0003F036EB1264FB7FBF3F7DFF88CC0ACF103
:100BC000040CDCF800C0CCF3881C07FB0CF40CE030
:100BD0001E4FB7FBF3F7DFF870C0ACF1040CDCF884
:100BE00000C0CCF3881C07FB0CF4174F3F1F3F6875
:100BF000C7F301477F1C7D00B4FBF5F7076002E0F7
:100C0000124F076000BF00BF0F4F3F6807F0F001B1
:100C10000909104F7A5C0768D74047600A4F3F6860
:100C200007F4E051890A0B4F7A5C4768D740876028
:100C3000054F3F6807F46041490B064F7A5C4768EF
:100C4000D740C760F0BD0000083802400024F4001F
:100C500000127A00C900002000B58BB001211020DD
:100C6000FFF736FF4FF48050099001208DF82800DF
:100C700000208DF82A0003208DF8290001208DF82E
:100C80002B0009A96148FFF7D7FD4FF480515F4859
:100C9000FFF73FFE4FF40050099001208DF8280027
:100CA00000208DF82A0003208DF8290001208DF8FE
:100CB0002B0009A95548FFF7BFFD4FF400515348D9
:100CC000FFF725FE01210220FFF702FF0121880323
:100CD000FFF70EFF4FF48050099001208DF8280097
:100CE00000208DF82A0003208DF8290001208DF8BE
:100CF0002B0009A94648FFF79FFD4FF48051444857
:100D0000FFF707FE4FF46040099002208DF828009D
:100D100000208DF82A0002208DF8290001208DF88E
:100D20002B0009A93A48FFF787FD05220D21384815
:100D3000FFF7CAFD05220E213548FFF7C5FD052244
:100D40000F213348FFF7C0FD324800F0E7FE0020D6
:100D5000ADF804004FF48270ADF806000020ADF845
:100D60000800ADF80A00ADF80C004FF40070ADF8C3
:100D70000E000020ADF81000ADF812000720ADF80D
:100D8000140001A9234800F02FFF0121214800F0A1
:100D9000B9FE01211020FFF79BFE4FF4804009901F
:100DA00000208DF8280003208DF8290001208DF8FF
:100DB0002B0009A91548FFF73FFD01218803FFF724
:100DC000B7FE0E21042000F089FF4FF48040079009
:100DD00000208DF820000C208DF8210001208DF8D6
:100DE000220007A8FFF7DEFC28208DF8180002205B
:100DF0008DF8190003208DF81A0001208DF81B00D2
:100E000006A8FFF7D3FD0BB000BD000000100240A4
:100E1000000402400038004010B5FFF71DFF00F04D
:100E200051F9002407E0254A115D04F1090000F0A2
:100E3000C5F9601CC4B2062CF5DB002406E0204A8C
:100E4000115D601C00F0BAF9601CC4B2042CF6DB22
:100E5000002407E01B4A115D04F10F0000F0AEF919
:100E6000601CC4B2042CF5DB17480088010A172067
:100E700000F0A4F914480178182000F09FF91348F5
:100E80000178192000F09AF9002413E0104A115D4E
:100E900044F21E0202EB042290B200F08FF90D4AD8
:100EA000115D44F21F0202EB042290B200F086F9B9
:100EB000601CC4B2082CE9DB10BD00005400002007
:100EC0005E0000205A0000208400002086000020E0
:100ED000D9000020E10000202DE9F047804644F2CF
:100EE000260000F0CFF888F8000044F2270000F058
:100EF000C9F888F8010098F8010098F8001000EB94
:100F0000012087B2C7F30C0744F2280000F0BAF8BA
:100F10000446240244F2290000F0B4F8204484B2CC
:100F2000E0191FFA80F9C4F30C04E019B0F5005F72
:100F300048DDC4F5005085B204F5404084B24FF45A
:100F400080514148FFF7E3FC200A00F07FF8E0B24F
:100F500000F07CF8C5F3062000F078F8E8B200F065
:100F600075F8002607E0002000F070F8B11C08F8C2
:100F70000100701C86B2AE42F5DB4FF44044200AFB
:100F800000F064F8E0B200F061F8791BC1F30620CC
:100F900000F05CF8791BC8B200F058F8002608E0B1
:100FA000002000F053F87119891C08F80100701C2A
:100FB00086B2781BB042F3DC4FF480512248FFF731
:100FC000A8FC26E004F5404084B23D464FF4805131
:100FD0001D48FFF79CFC200A00F038F8E0B200F052
:100FE00035F8C5F3062000F031F8E8B200F02EF82D
:100FF000002607E0002000F029F8B11C08F80100E5
:10100000701C86B2AE42F5DB4FF480510E48FFF7FC
:1010100080FC4FEA192144F2280000F0CFF809F0D3
:10102000FF0144F2290000F0C9F8402144F2010018
:1010300000F0C4F800BF44F2010000F023F80028DB
:10104000F9D1BDE8F08700000004024010B5044665
:1010500000BF02210A4800F0B9FD0028F9D021465E
:10106000074800F0BFFD00BF0121054800F0AEFDBC
:101070000028F9D0024800F0B2FDC0B210BD000057
:101080000038004070B504464FF480510C48FFF71B
:101090003EFC200AFFF7DAFFE0B2FFF7D7FF00209F
:1010A000FFF7D4FF0120FFF7D1FF0020FFF7CEFFAD
:1010B00005464FF480510248FFF72BFC284670BDCF
:1010C0000004024070B54FF480510F48FFF71FFC39
:1010D000002401E0601C84B2A52CFBDB4FF480519E
:1010E0000948FFF716FC002408E0002501E0681C11
:1010F00085B2B5F57A7FFADB601C84B241F28830A4
:101100008442F2DB70BD00000010024010B50121E6
:10111000162000F053F8072144F22C0000F04EF89E
:1011200000BF0121880300F049F823480088010A24
:1011300044F2040000F042F81F48017844F2050030
:1011400000F03CF8012144F2010000F037F844F2CD
:101150000300FFF797FF132810D0601CC4B20A2CBD
:1011600005DA102144F2010000F028F8D9E7102137
:1011700044F2010000F022F8002010BD022144F2E8
:10118000010000F01BF844F20300FFF77BFF142876
:1011900010D0601CC4B20A2C05DA102144F2010000
:1011A00000F00CF8BDE7102144F2010000F006F851
:1011B0000020E2E70120E0E76600002070B5044669
:1011C0000D464FF480510C48FFF7A1FB200AFFF7B2
:1011D0003DFFE0B2FFF73AFF8020FFF737FF012025
:1011E000FFF734FF2846FFF731FF4FF480510248E4
:1011F000FFF78FFB70BD00000004024000B58BB00C
:1012000001210846FFF764FC0420099001208DF8B5
:10121000280000208DF82A0003208DF829000120E5
:101220008DF82B0009A95D48FFF706FB04215B48F8
:10123000FFF76FFB0820099001208DF8280000209F
:101240008DF82A0003208DF8290001208DF82B004D
:1012500009A95248FFF7F0FA08215048FFF757FB59
:1012600001210846FFF734FC01210803FFF760FC69
:101270001020099001208DF8280000208DF82A0008
:1012800003208DF8290001208DF82B0009A943487F
:10129000FFF7D2FA10214148FFF73BFBE02009900D
:1012A00002208DF8280000208DF82A0002208DF8F9
:1012B000290001208DF82B0009A93848FFF7BCFA56
:1012C000052211463548FFF7FFFA0522062133486B
:1012D000FFF7FAFA052207213048FFF7F5FA304800
:1012E00000F01CFC0020ADF804004FF48270ADF853
:1012F00006000020ADF80800ADF80A00ADF80C00BB
:101300004FF40070ADF80E000020ADF81000ADF8FD
:1013100012000720ADF8140001A9214800F064FC78
:1013200001211F4800F0EEFB01210420FFF7D0FB54
:101330002020099000208DF8280003208DF8290036
:1013400001208DF82B0009A91648FFF775FA012135
:101350008803FFF7EDFB0521022000F0BFFC2020F1
:10136000079000208DF820000C208DF8210001202E
:101370008DF8220007A8FFF715FA17208DF818003E
:1013800002208DF8190003208DF81A0001208DF835
:101390001B0006A8FFF70AFB0BB000BD00000240CF
:1013A000003001400008024010B5FFF727FF00F0B1
:1013B00057F9002407E02A4A115D04F1090000F002
:1013C000C9F9601CC4B2062CF5DB002406E0254AEE
:1013D000115D601D00F0BEF9601CC4B2042CF6DB88
:1013E000002406E0204A115D601C00F0B3F9601C87
:1013F000C4B2042CF6DB002407E01C4A115D04F1A2
:101400000F0000F0A7F9601CC4B2042CF5DB1848EB
:101410000088010A172000F09DF91548017818206E
:1014200000F098F913480178192000F093F900248E
:1014300013E0114A115D44F21E0202EB042290B245
:1014400000F088F90D4A115D44F21F0202EB0422FC
:1014500090B200F07FF9601CC4B2082CE9DB10BD2B
:101460006B00002079000020750000207100002032
:101470008400002086000020D9000020E100002028
:101480002DE9F047804644F2260000F0CBF888F8BA
:10149000000044F2270000F0C5F888F8010098F831
:1014A000010098F8001000EB012087B2C7F30C0789
:1014B00044F2280000F0B6F80446240244F2290061
:1014C00000F0B0F8204484B2E0191FFA80F9C4F3A8
:1014D0000C04E019B0F5005F46DDC4F5005085B29C
:1014E00004F5404084B210213F48FFF710FA200A6B
:1014F00000F07CF8E0B200F079F8C5F3062000F0C7
:1015000075F8E8B200F072F8002607E0002000F05D
:101510006DF8B11C08F80100701C86B2AE42F5DB14
:101520004FF44044200A00F061F8E0B200F05EF8A9
:10153000791BC1F3062000F059F8791BC8B200F0FE
:1015400055F8002608E0002000F050F87119891CB9
:1015500008F80100701C86B2781BB042F3DC102141
:101560002148FFF7D6F924E004F5404084B23D4617
:1015700010211D48FFF7CBF9200A00F037F8E0B240
:1015800000F034F8C5F3062000F030F8E8B200F0BF
:101590002DF8002607E0002000F028F8B11C08F81C
:1015A0000100701C86B2AE42F5DB10210E48FFF739
:1015B000B0F94FEA192144F2280000F0CBF809F005
:1015C000FF0144F2290000F0C5F8402144F2010077
:1015D00000F0C0F800BF44F2010000F023F800283A
:1015E000F9D1BDE8F08700000000024010B50446C4
:1015F00000BF02210A4800F0E9FA0028F9D021468C
:10160000074800F0EFFA00BF0121054800F0DEFABC
:101610000028F9D0024800F0E2FAC0B210BD000084
:101620000030014070B5044610210C48FFF76FF9F7
:10163000200AFFF7DBFFE0B2FFF7D8FF0020FFF73B
:10164000D5FF0120FFF7D2FF0020FFF7CFFF0546AF
:1016500010210248FFF75DF9284670BD00000240E6
:1016600070B504210E48FFF752F9002401E0601C18
:1016700084B2A52CFBDB04210948FFF74AF90024BA
:1016800008E0002501E0681C85B2B5F57A7FFADB39
:10169000601C84B241F288308442F2DB70BD0000ED
:1016A0000000024010B50121162000F053F8072178
:1016B00044F22C0000F04EF800BF0121880300F036
:1016C00049F823480088010A44F2040000F042F877
:1016D0001F48017844F2050000F03CF8012144F273
:1016E000010000F037F844F20300FFF79BFF1328D6
:1016F00010D0601CC4B20A2C05DA102144F201009B
:1017000000F028F8D9E7102144F2010000F022F897
:10171000002010BD022144F2010000F01BF844F249
:101720000300FFF77FFF142810D0601CC4B20A2CFE
:1017300005DA102144F2010000F00CF8BDE7102199
:1017400044F2010000F006F80020E2E70120E0E7A3
:101750007E00002070B504460D4610210B48FFF7AF
:10176000D6F8200AFFF742FFE0B2FFF73FFF8020E4
:10177000FFF73CFF0120FFF739FF2846FFF736FF50
:1017800010210248FFF7C5F870BD000000000240BC
:1017900000B585B001210820FFF79AF901200390D8
:1017A0008DF8100000208DF8120003208DF8110034
:1017B00001208DF8130003A92C48FFF73DF8012103
:1017C0002A48FFF7A6F801210846FFF781F9022011
:1017D000039001208DF8100000208DF812000320E6
:1017E0008DF8110001208DF8130003A92048FFF7A0
:1017F00023F802211E48FFF78CF801210846FFF765
:1018000067F90120039000208DF8100003208DF867
:10181000110001208DF8130003A91548FFF70CF8FB
:1018200001218803FFF784F90021084600F056FAE9
:101830000120009000208DF804000C208DF8050098
:1018400001208DF806006846FEF7ACFF06208DF8F3
:10185000080003208DF809008DF80A0001208DF89A
:101860000B0002A8FFF7A2F805B000BD000C024073
:101870000000024010B50024FFF78AFF012000F0AD
:101880003FFE00F0CFF901203E4908600A2000F039
:1018900037FE00203C49C1F884020A2000F030FEE7
:1018A00040F2052202215620FFF7E6F83748027879
:1018B00002216020FFF7E0F84FF6FF720221682056
:1018C000FFF7DAF8012202215020FFF7D5F80322B2
:1018D00002213C20FFF7D0F800BF16E0224602218B
:1018E0002020FFF7C9F8072202213220FFF7C4F8B1
:1018F0002748025D02212220FFF7BEF8224602217E
:101900003A20FFF7B9F8601CC4B2122CE6DB4AF6A5
:10191000A13202217020FFF7AFF80022022120201F
:10192000FFF7AAF8002202217220FFF7A5F8012292
:1019300002212020FFF7A0F8102202217220FFF7D9
:101940009BF8022211462020FFF796F82022022160
:101950007220FFF791F8032202212020FFF78CF874
:10196000302202217220FFF787F80A4A03212A2039
:10197000FFF782F84FF4447202212420FFF77CF82D
:1019800010BD0000840240420000404200000020E0
:101990004E130020FFFF03002DE9F04103214020FA
:1019A000FFF740F88046002431E00120A04000EA23
:1019B000080050B30120A0401749096808431649A0
:1019C0000860224602212020FFF756F80221262037
:1019D000FFF728F8054605F48070B0B1EFB200209B
:1019E0000E490860482000F065F8002608E0AA20AB
:1019F00000F060F80A4901EBC4118855701CC6B2AA
:101A0000BE42F4DB012005490860601CC4B2122C00
:101A1000CBDBBDE8F0810000140000208082414251
:101A20004E0A002070B500242DE00120A0401C4982
:101A30000968084028B3224602212020FFF71CF83D
:101A40001848005D1849095D40EA0122022126205C
:101A5000FFF712F8002015490860B42000F02AF8BA
:101A6000002507E0124901EBC411485D00F022F89F
:101A7000681CC5B20B48005DA842F3DC01200B498D
:101A80000860601CC4B2122CCFDB05480268032139
:101A90003620FEF7F1FF00200149086070BD00000C
:101AA0001000002060130020721300208082414249
:101AB0004E01002010B5044600BF02210A4800F084
:101AC00085F80028F9D02146074800F08BF800BFC0
:101AD0000121054800F07AF80028F9D0024800F00A
:101AE0007EF8C0B210BD0000003C004021B1028869
:101AF00042F40052028004E002884DF6FF731A405F
:101B00000280704721B1028842F04002028004E066
:101B100002884FF6BF731A400280704710B5044622
:101B20002448844208D101218014FFF711F80021D4
:101B3000A014FFF70DF83CE01F48844208D10121B2
:101B40000014FEF7E5FF00212014FEF7E1FF30E06E
:101B50001A48844208D10121C013FEF7D9FF0021A1
:101B6000E013FEF7D5FF24E01548844208D1012197
:101B70004014FEF7EDFF00216014FEF7E9FF18E0C6
:101B80001048844209D101210805FEF7E1FF002138
:101B90004FF48010FEF7DCFF0BE00B48844208D1C5
:101BA00001214805FEF7D4FF00214FF40010FEF795
:101BB000CFFF10BD0030014000380040003C004025
:101BC0000034014000500140005401400246002012
:101BD00013890B400BB1012000E000207047014643
:101BE000888970478181704710B50022028802F40D
:101BF00041520B884C8823438C882343CC88234351
:101C00000C8923434C8923438C892343CC89234368
:101C10001A430280838B4FF2FF74234083830B8A25
:101C2000038210BD00B587B001210420FEF750FFEC
:101C30000121C803FEF75CFF4FF4E050059002203D
:101C40008DF8180000208DF81A0002208DF8190078
:101C50008DF81B0005A91F48FEF7EEFD06220A219C
:101C60001C48FEF731FE06220B211A48FEF72CFE17
:101C700006220C211748FEF727FE1748FFF74EFFF4
:101C80000020ADF800004FF48270ADF80200002093
:101C9000ADF80400ADF80600ADF808004FF4007090
:101CA000ADF80A001020ADF80C000020ADF80E00D1
:101CB0000720ADF8100069460748FFF795FF00219F
:101CC0000548FFF713FF01210348FFF71BFF07B08B
:101CD00000BD000000080240003C004030B500227A
:101CE0008B071C0F0F2303FA04F20B4B8C1053F8D5
:101CF00024309343084C8D1044F8253023468C1033
:101D000053F824308C07240F00FA04F42343024CC8
:101D10008D1044F8253030BD083801402DE9F041E0
:101D20000546012D7ED10027FFF732FD012000F08E
:101D3000E7FBFFF777FF01206D4908600A2000F0FC
:101D4000DFFB00206B49C1F884020A2000F0D8FBB9
:101D50004D2069490870052202215620FEF78CFEAD
:101D6000092202215020FEF787FE032202213C2097
:101D7000FEF782FE00BF18E03A4602212020FEF75F
:101D80007BFE072202213220FEF776FE07EB87005A
:101D900000F10D0202212220FEF76EFE3A460221DA
:101DA0003A20FEF769FE781CC7B2122FE4DB4AF630
:101DB000A13202217020FEF75FFE002202212020C6
:101DC000FEF75AFE002202217220FEF755FE012284
:101DD00002212020FEF750FE102202217220FEF781
:101DE0004BFE022211462020FEF746FE2022022151
:101DF0007220FEF741FE032202212020FEF73CFE66
:101E0000302202217220FEF737FE3C4A03212A20AD
:101E1000FEF732FE4FF4457202212420FEF72CFE1D
:101E20000A2000E008E000F06BFB40F2473142F28C
:101E30000F7000F049F900BF00240FE0002609E010
:101E4000A0192F49097808442E4901EBC41188557F
:101E5000701CC6B2502EF3DB601CC4B2122CEDDB3A
:101E600027480078401C26490870084600789628C4
:101E700001DB0020087000240EE00120A040224970
:101E8000096808432049086023202049085500209C
:101E90001F490855601CC4B2122CEEDBFFF7C2FDCF
:101EA00000201949086000BF1A4800780128FBD1BA
:101EB00000201949086006E01748D0F80080B8F5FE
:101EC0007A7F00D904E0154800680C498842F3D1B4
:101ED00000BFB5F57A7F04D210480068104941F878
:101EE000250000200D4908600A490870BDE8F0810E
:101EF0008402404200004042BA170020FFFF030066
:101F0000000100204E01002010000020601300207E
:101F10007213002018000020240400401400002048
:101F2000BC2300200CB500200190009034480068CC
:101F300040F480303249086000BF3148006800F446
:101F4000003000900198401C0190009818B9019849
:101F5000B0F5A04FF1D12A48006800F4003010B16C
:101F60000120009001E0002000900098012846D157
:101F700023484030006840F08050214940310860DB
:101F80002048006840F440401E4908601C48083062
:101F900000681B49083108600846006840F40040AA
:101FA00008600846006840F4A05008601648091F01
:101FB0000860081F006840F08070091F086000BFBB
:101FC0000F48006800F000700028F9D040F205705A
:101FD0000E4908600A480830006820F003000849EC
:101FE000083108600846006840F00200086000BF41
:101FF00003480830006800F00C000828F8D10CBD38
:10200000003802400070004008544007003C024085
:10201000042808D14FF0E021096941F004014FF094
:10202000E022116107E04FF0E021096921F004018D
:102030004FF0E0221161704710B51548006840F478
:102040007000134908601348006840F0010011490E
:10205000086000200F49083108600E4800680E49EA
:1020600008400C4908600D48091D0860081F0068F9
:1020700020F48020091F0860002006490C31086008
:10208000FFF750FF4FF0006001498039086010BD34
:1020900088ED00E000380240FFFFF6FE103000241B
:1020A00010B50121064800F04CF8012803D1410287
:1020B0000448FEF730FC0121014800F033F810BD60
:1020C00000040040000402407FB505460C46012193
:1020D0000220FEF70DFD0295ADF804400020ADF89A
:1020E0000600ADF80C0001A90D4800F045F80122EA
:1020F00011460B4800F036F80121094800F015F8A8
:102100001D208DF8000001208DF8010003208DF8BE
:10211000020000208DF803006846FEF747FC7FBDF3
:1021200000040040CA430282704721B1028842F095
:102130000102028004E002884FF6FE731A4002801A
:10214000704730B50246002000230024158A05EAB6
:102150000103958905EA010413B10CB1012000E0E7
:10216000002030BD1AB183890B43838102E083894B
:102170008B4383817047000000220288184B9842ED
:102180000ED0184B98420BD0B0F1804F08D0164BB0
:10219000984205D0154B984202D0154B984204D175
:1021A0004FF68F731A404B881A43124B984207D050
:1021B000114B984204D04FF6FF431A400B891A4343
:1021C00002804B68C3620B880385054B984202D09E
:1021D000044B984201D18B7A038601238382704796
:1021E00000000140000401400004004000080040DD
:1021F000000C0040001000400014004010B540F2F8
:102200002551234800F05CF8002838D0204800F021
:1022100011F9C4B21F48007848B9102C01D0682CBD
:1022200005D101201B49087000201B4908701B487C
:1022300019490978445418480078401C1649087018
:1022400016480078102809D108460078052805D1DD
:1022500001201349087000200E4908700F480078CB
:1022600068280CD10D484078801D0B4909788842B8
:1022700005D101200A490870002006490870094864
:10228000006808B9012000E000200649086010BD80
:1022900000100140F9000020FA0000205C3300200B
:1022A0009F000020A482404221B1828942F4005262
:1022B000828104E082894DF6FF731A408281704763
:1022C00070B50246002400230025002040F66A165F
:1022D000B14200D100BFC1F3421501F01F03012636
:1022E00006FA03F3012D02D19689334006E0022D50
:1022F00002D1168A334001E0968A33400C1201263F
:1023000006FA04F41688344013B10CB1012000E041
:10231000002070BDF0B503460024002600250020F3
:1023200040F66A17B94200D100BF1846C1F3421403
:1023300001F01F06012707FA06F5012C01D10C3028
:1023400004E0022C01D1103000E014301AB107680B
:102350002F43076002E00768AF430760F0BD00004D
:102360002DE9FF4705460E460024A14600BFA046C2
:10237000B08900B100BF2C8A24F44054F088044393
:102380002C82AC8941F20C608443B08831890843C7
:10239000718908430443AC81AC8A24F44074B08949
:1023A0000443AC826846FEF7E3FB2048854202D036
:1023B0001F48854202D1DDF80C9001E0DDF808905D
:1023C000A88900F4004040B109EBC90000EB0910F6
:1023D00031684900B0FBF1F707E009EBC90000EBF9
:1023E000091031688900B0FBF1F76420B7FBF0F009
:1023F00004012009642101FB1078A88900F4004041
:1024000040B1322000EBC800B0FBF1F000F0070053
:10241000044308E0322000EB08106421B0FBF1F027
:1024200000F00F0004432C81BDE8FF87001001403D
:102430000014014001468888C0F30800704700007E
:1024400010B504466FF00400FFF7E2FDE11704EB5E
:102450005171C1F3C701074A11701046007800EBB3
:102460004001C1EBC0104FF6FF7101EAC000024904
:10247000088010BDFC000020FE00002070B504465E
:102480004FF4077094FBF0F0C6B24FF4077094FB62
:10249000F0F100FB114085B205E04FF4077000F049
:1024A00009F8701EC6B2002EF7D115B1284600F00B
:1024B00001F870BD0146114A12884A434FF0E023EB
:1024C0005A6100229A611A46126942F001021A61A9
:1024D00000BF4FF0E022106900F001021AB100F4D1
:1024E0008032002AF5D04FF0E022126922F001027A
:1024F0004FF0E0231A6100229A617047FE0000202D
:1025000010B500230EE0002107E0002201E0541C7A
:10251000A2B2642AFBDB4C1CA1B2B1F5C87FF4DB8C
:102520005C1CA3B28342EEDB10BD00001CB5012190
:102530004020FEF7CDFA8020009001208DF80400A5
:1025400000208DF8060003208DF8050001208DF88D
:10255000070069462C48FEF76FF980212A48FEF7EC
:10256000D6F901210846FEF7B3FA4FF40060009057
:1025700001208DF8040000208DF8060003208DF85E
:10258000050001208DF8070069462048FEF754F940
:102590004FF400611D48FEF7BAF901211020FEF743
:1025A00097FA0320009001208DF8040000208DF898
:1025B000060003208DF8050001208DF8070069460C
:1025C0001348FEF739F903211148FEF7A0F901215C
:1025D0000220FEF77DFA4FF46070009001208DF824
:1025E000040000208DF8060003208DF8050001206E
:1025F0008DF8070069460748FEF71EF94FF4607131
:102600000448FEF784F91CBD001802400000024097
:102610000010024000040240A820FFF711FFFFF75E
:1026200085FF01204749086000204749C1F8AC02F6
:102630000A20FFF723FFFDF757FF0A20FFF71EFFD1
:10264000FEF76EF90A20FFF719FF00203F490870D6
:102650000CE03E480078800014303D493B4A127837
:1026600088543A480078401C384908703748007848
:102670001228EEDBFFF7FEF80A20FFF7FFFE42F21A
:10268000CF0142F21070FFF71FFD4FF4165000F01B
:1026900071F800202F4908702F4908702F490870E1
:1026A000FEF7BAFB6420FFF7E9FEFEF72FFDFEF709
:1026B0007BFE6420FFF7E2FEFEF7F4FF2848006887
:1026C000401C274908603BE025480068FFF726FBCF
:1026D00023480068401C224908602248006808B965
:1026E000012000E000201F4908601F48D0F8800248
:1026F00008B9012000E000201A49091F08601B48A2
:10270000D0F8A40208B9012000E0002018490860B0
:102710001648D0F8A00208B9012000E000201449B2
:10272000091F08601148D0F89C0208B9012000E098
:1027300000200F49083908604FF4FA70FFF79EFE39
:10274000C2E700009C02434200004042C800002053
:102750004E13002068000020800000206900002047
:10276000C4000020840242420000424200804042F5
:10277000A482404210B588B0044601210846FEF705
:10278000A7F901211020FEF7D3F901210846FEF731
:102790009FF94FF48070069000208DF81C000320F4
:1027A0008DF81D0001208DF81F0006A92448FEF7B2
:1027B00043F8072209212248FEF786F807220A215A
:1027C0001F48FEF781F84FF4C060069002208DF894
:1027D0001C008DF81D0000208DF81E0001208DF8D2
:1027E0001F0006A91648FEF727F802940020ADF84E
:1027F0000C00ADF80E00ADF81000ADF814000C2080
:10280000ADF8120002A90F48FFF7AAFD01210D48FB
:10281000FFF74AFD012240F225510A48FFF77AFDF1
:1028200025208DF8040003208DF805008DF80600A2
:1028300001208DF8070001A8FEF7B8F808B010BD18
:1028400000000240001001404FF04070E1EE100A1D
:1028500070470000742800080000002004010000F8
:10286000C40100087829000804010020BC390000D8
:10287000E0010008000000040E4CC0A801420E5602
:10288000C0A80143000000000000000000006461D7
:1028900071690005010006060C1012150B030F4E9E
:1028A0004F50676DC8252B0319444E5A0C10121552
:1028B0000B030F4E4F50676DC8252B0319444E5A1A
:1028C0000000C0A8010164090008DC010203C0A8DF
:1028D0000142C0A80104FFFFFF00F2040000000055
:1028E00008DC010203C0A80142C0A80104FFFFFFE9
:1028F0000000F20400000000881303000000000044
:1029000000000001000000000000000000000000C6
:102910000000000000000000000068044300000008
:10292000680407000000680E000000006401060053
:102930000100000000140000000000000000000082
:10294000000102030401020304060708090802014A
:1029500001010101010802010101010101436F6E42
:102960006E6563746453687574646F776E000000FD
:0829700000000000000000005F
:040000050800018965
:00000001FF
