:020000040800F2
:10000000B03A00202902000831020008330200083B
:10001000350200083702000839020008000000001D
:100020000000000000000000000000003B0200088B
:100030003D020008000000003F02000841020008E5
:100040009528000843020008430200084302000804
:100050004302000843020008390600084302000872
:10006000430200084302000843020008430200085C
:10007000430200084302000843020008430200084C
:10008000430200084302000843020008430200083C
:10009000430200084302000843020008F906000872
:1000A000430200084302000843020008430200081C
:1000B00043020008CD240008430200084302000860
:1000C00043020008430200084302000843020008FC
:1000D00043020008292600084302000843020008E2
:1000E0006D060008430200084302000843020008AE
:1000F00043020008430200084302000843020008CC
:1001000043020008430200084302000843020008BB
:1001100043020008430200084302000843020008AB
:10012000430200084302000843020008430200089B
:10013000430200084302000843020008430200088B
:10014000430200084302000843020008430200087B
:10015000430200084302000843020008430200086B
:10016000430200084302000843020008430200085B
:10017000430200084302000843020008430200084B
:10018000430200084302000800F002F800F03CF8C7
:100190000AA090E8000C82448344AAF10107DA45E2
:1001A00001D100F031F8AFF2090EBAE80F0013F0F8
:1001B000010F18BFFB1A43F001031847542B00002E
:1001C000742B0000103A24BF78C878C1FAD85207BF
:1001D00024BF30C830C144BF04680C6070470000C1
:1001E0000023002400250026103A28BF78C1FBD840
:1001F000520728BF30C148BF0B6070471FB502F0DF
:1002000081FD1FBD10B510BD00F031F81146FFF79C
:10021000F5FF02F091FC00F04FF803B4FFF7F2FF96
:1002200003BC00F057F80000094880470948004720
:10023000FEE7FEE7FEE7FEE7FEE7FEE7FEE7FEE796
:10024000FEE7FEE704480549054A064B70470000F3
:100250006524000889010008B0340020B03A00206D
:10026000B0360020B03600207047704770477546A2
:1002700000F02CF8AE4605006946534620F0070012
:10028000854618B020B5FFF7DDFFBDE820404FF0F0
:1002900000064FF000074FF000084FF0000B21F070
:1002A0000701AC46ACE8C009ACE8C009ACE8C0093D
:1002B000ACE8C0098D46704710B50446AFF3008026
:1002C0002046BDE81040FFF7A8BF00000048704777
:1002D0005034002001491820ABBEFEE72600020082
:1002E000704700001CB50121082000F053FD4FF4B9
:1002F0004050009001208DF8040000208DF8060089
:1003000003208DF8050001208DF807006946054897
:1003100000F09EFA0120044908600449C1F8B402C3
:100320001CBD0000000C0240B082414200804142EE
:100330000021124A11601249096821F04061104AF7
:1003400011601146096841F08061116000210D4A79
:10035000C2F8B412002001E0411CC8B21428FBDB33
:100360000121064A1160002001E0411CC8B2142896
:10037000FBDB0021014A116070470000B08241425E
:10038000000C0240008041420021104A11601049D7
:10039000096821F040610E4A11601146096841F078
:1003A00080611160002001E0411CC8B21428FBDB11
:1003B0000121064A1160002001E0411CC8B2142846
:1003C000FBDB0021014A116070470000B08241420E
:1003D000000C02401249096821F04061104A116086
:1003E0001146096841F08061116001210D4A1160D8
:1003F0000D4AC2F8B012002001E0411CC8B23228F8
:10040000FBDB0021074A1160002001E0411CC8B25B
:100410003228FBDB0021034A121F116070470000E5
:10042000000C0240B48241420080414212490968F6
:1004300021F04061104A11601146096841F0806165
:10044000116000210D4A11600D4AC2F8B01200205F
:1004500001E0411CC8B23228FBDB0121074A121F10
:100460001160074AC2F8B412002001E0411CC8B272
:100470003228FBDB70470000000C0240B48241428E
:100480000080414210B5002400231748006820F086
:10049000406015490860084600680860012013495B
:1004A000086000BF01E0581CC3B2142BFBDB012025
:1004B0000E49091F0860002301E0581CC3B2142B29
:1004C000FBDB07E0601CC4B2FA2C03DDFFF7AEFFD4
:1004D000012010BD0548803800680028F2D103498A
:1004E000091F086000BFF4E7000C0240B4824142DB
:1004F00010B5FFF7F7FE10BD70B506460C46154661
:1005000008E03046721CD6B200F007F804F8010B80
:10051000681EC5B2002DF4D170BD30B50446FFF79A
:1005200059FFA02000F04EF8FFF7ACFF204600F086
:1005300049F8FFF7A7FFFFF74DFFA12000F042F8B1
:10054000FFF7A0FF002000F005F80546FFF76EFF5B
:10055000284630BD70B505461748006820F0406059
:100560001549086008460068086000261AE0002067
:1005700012490860002301E0581CC3B2142BFBDBB6
:1005800001200E4908606006040E0D48D0F83402C0
:100590002044C4B2002301E0581CC3B2142BFBDB7F
:1005A000701CC6B2082EE2DB15B1FFF7C1FE01E0F8
:1005B000FFF7EAFE204670BD000C0240B0824142C7
:1005C0000080414210B50146194B1B6823F040637F
:1005D000174C236023461B6843F08063236000238D
:1005E000144C236000221FE0CB09124C241D236011
:1005F0004B06190E002001E0431CD8B21428FBDB87
:1006000001230C4C2360002001E0431CD8B21428C5
:10061000FBDB0023074C2360002001E0431CD8B221
:100620001428FBDB531CDAB2082ADDDB10BD000006
:10063000000C0240B082414210B501F0EDFE0120F5
:1006400000F0B0F878B10221522000F04DFB84B2E6
:1006500004F0010020B101F0A3FC01200249087060
:10066000012000F099F810BD1800002010B54FF4DB
:10067000804000F097F8002835D044F2020000F0E6
:1006800063FE044604F0010048B1012144F2020077
:1006900000F0AAFF0120144908701449086004F012
:1006A000020070B1022144F2020000F09DFF10210F
:1006B00044F2010000F098FF00200C4908600A494C
:1006C000087004F0040050B1094800F065FD0120F5
:1006D00008490870042144F2020000F085FF4FF43D
:1006E000804000F059F810BD680000209C82404214
:1006F000AE1300206900002010B5202000F052F851
:1007000000283FD044F2020001F0E0F9044604F072
:10071000010048B101201C4908701C4908600121F2
:1007200044F2020001F01AFB04F00200B8B1022109
:1007300044F2020001F012FB102144F2010001F02A
:100740000DFB01F069FE0020104908600E49087099
:1007500001F07CF8012002F021F901F0F7F904F032
:10076000040060B10A4801F0DDF800F05DFF0120EF
:1007700008490870042144F2020001F0EFFA202039
:1007800000F00AF810BD000080000020A082404266
:10079000AE1B002081000020014908607047000066
:1007A000143C014001460020034A12680A400AB185
:1007B000012000E000207047143C01400021234943
:1007C0008279002A3AD00A46126803689A430B4697
:1007D0001A600A1D126803689A430B1D1A60027999
:1007E00011440A6803681A430A60184A08321268FA
:1007F00003689A43154B08331A601A1D1268036880
:100800009A43124B0C331A604279102A0ED11A1FE8
:10081000126803681A430D4B08331A601A1D1268D8
:1008200003681A43094B0C331A600DE007494279FB
:1008300011440A6803681A430A6005E0027911440A
:100840000A6803689A430A6070470000003C014050
:10085000F0B50A4600210023002400BF3DE0012539
:1008600005FA01F3156805EA03049C4234D10568D2
:100870004F000326BE40B543056015794E00B540D4
:100880000668354305601579012D02D01579022DD2
:1008900016D185684F000326BE40B5438560557963
:1008A0004E00B540866835438560456801268E4018
:1008B000B5434560456896798E40B6B2354345608C
:1008C000C5684F000326BE40B543C560D5794E00CC
:1008D000B540C6683543C560491C1029BFD3F0BD7B
:1008E000F0B5002300244D07ED0E02FA05F3CE10FB
:1008F00000F1200555F826504E07F70E0F26BE4092
:10090000B543CF1000F1200646F82750CE1000F175
:10091000200555F8265045EA0304CE1000F12005C5
:1009200045F82640F0BD4183704701837047426916
:100930004A4042617047000000B50020FFF7EDFD1E
:100940001B4908700120FFF7E8FD1A490880084696
:1009500000884FF6FF7101EA002016490880022046
:10096000FFF7DBFD13490988084412490880042277
:1009700011490320FFF7C0FD0720FFF7CEFD0F4907
:100980000880084600884FF6FF7101EA00200B49F5
:1009900008800820FFF7C1FD084909880844074975
:1009A0000880042206490920FFF7A6FD00BD0000CB
:1009B00000000020660000205A0000207E00002079
:1009C0007100002070B5002100230F22C4781CB3F1
:1009D000174C246804F4E064C4F5E064C4F3072110
:1009E000C1F10404E3B20A4144789C40E1B2847846
:1009F000144021430C07210E0E4C057861550478F4
:100A000004F01F050124AC4005786D11AD0005F11F
:100A1000E025C5F8004109E0047804F01F05012431
:100A2000AC40054D0678761145F8264070BD0000B3
:100A30000CED00E000E400E080E100E02DE9F04191
:100A40000746012F7ED1002601F0A6F9012001F012
:100A5000E7FF01F0EFFB0120914908600A2001F057
:100A6000DFFF00208F49C1F884020A2001F0D8FF7F
:100A70004D208D49087005220221562000F05EF9B4
:100A800009220221502000F059F9012202213C20C4
:100A900000F054F900BF18E032460221202000F097
:100AA0004DF907220221322000F048F906EB8600BA
:100AB00000F10D020221222000F040F9324602210D
:100AC0003A2000F03BF9701CC6B2122EE4DB4AF665
:100AD000A1320221702000F031F9002202212020F1
:100AE00000F02CF900220221722000F027F90122E7
:100AF0000221202000F022F910220221722000F0B1
:100B00001DF902221146202000F018F920220221AE
:100B1000722000F013F903220221202000F00EF9C8
:100B200030220221722000F009F9604A03212A20B4
:100B300000F004F94FF444720221242000F0FEF882
:100B40000A2000E008E001F06BFF42F2CF0142F220
:100B50000F7001F0CFFC00BF55480078042842D147
:100B600000240FE0002509E0601952490978084483
:100B7000514901EBC4114855681CC5B2502DF3DB37
:100B8000601CC4B2122CEDDB4A480078401C494975
:100B9000087008460078962801DB002008700F24B2
:100BA0000EE00120A0404549096808434349086018
:100BB000232043490855002042490855601CC4B20F
:100BC000122CEEDB01F034FA00203C4908603E486C
:100BD000006808B9012000E000203B4908604FF49C
:100BE000FA7001F0DBFE32480078012855D1374811
:100BF0000078012851D100203549086007E03448C9
:100C0000D0F8008040F6B830804500D904E0314883
:100C1000006826498842F2D100BF2E480068234967
:100C2000884203D102212C48FFF781FE00240DE009
:100C300022460221202000F081F80221422000F00B
:100C400053F8264921F81400601CC4B2122CEFDBC3
:100C50002348007801280FD11E480068000C124973
:100C600048701C480068000A88701A480068C870FC
:100C700008210D4800F004FC1648016819480D4A87
:100C8000127840F822100B480078401C094908707F
:100C90000020104908600D490870BDE8F08100008F
:100CA0008402404200004042AE170020FFFF0300D4
:100CB00000000020F400002042010020100000206D
:100CC00054130020661300208402424218000020C2
:100CD000240400401400002000100240781300207B
:100CE000C2000020B02300202DE9F04106460F4647
:100CF000002400201049086006F07F06304601F00D
:100D0000E1F90546032F05D1304601F0DBF9054630
:100D10002C442402304601F0D5F905462C44240227
:100D2000304601F0CFF905462C4401200249086005
:100D30002046BDE8F0810000808241422DE9F0416B
:100D400005460E461446002700201149086005F0AC
:100D50007F0040F08005284601F0B4F98046032E5C
:100D600005D1C4F30747384601F0ACF98046C4F317
:100D70000727384601F0A6F98046E7B2384601F069
:100D8000A1F98046012002490860BDE8F081000019
:100D90008082414229B1064A12680243044B1A601C
:100DA00004E0034A12688243014B1A607047000056
:100DB0003038024029B1064A12680243044B1A60D7
:100DC00004E0034A12688243014B1A607047000036
:100DD0004038024029B1064A12680243044B1A60A7
:100DE00004E0034A12688243014B1A607047000016
:100DF0002038024029B1064A12680243044B1A60A7
:100E000004E0034A12688243014B1A6070470000F5
:100E10004438024029B1064A12680243044B1A6062
:100E200004E0034A12688243014B1A6070470000D5
:100E300024380240F0B500210022002402250026BB
:100E40000223324F3F6807F00C0121B1042905D07D
:100E5000082937D105E02E4F076036E02D4F076097
:100E600033E02A4F3F1F3F68C7F38056274F3F1F8D
:100E70003F6807F03F036EB1264FB7FBF3F7DFF88B
:100E80008CC0ACF1040CDCF800C0CCF3881C07FB70
:100E90000CF40CE01E4FB7FBF3F7DFF870C0ACF1B9
:100EA000040CDCF800C0CCF3881C07FB0CF4174FD3
:100EB0003F1F3F68C7F301477F1C7D00B4FBF5F778
:100EC000076002E0124F076000BF00BF0F4F3F688E
:100ED00007F0F0010909104F7A5C0768D7404760B6
:100EE0000A4F3F6807F4E051890A0B4F7A5C476864
:100EF000D7408760054F3F6807F46041490B064FB4
:100F00007A5C4768D740C760F0BD000008380240EF
:100F10000024F40000127A00C900002000B58BB054
:100F200001211020FFF736FF4FF480500990012077
:100F30008DF8280000208DF82A0003208DF8290064
:100F400001208DF82B0009A96048FFF781FC4FF4C0
:100F500080515E48FFF7E9FC4FF4005009900120F2
:100F60008DF8280000208DF82A0003208DF8290034
:100F700001208DF82B0009A95448FFF769FC4FF4B4
:100F800000515248FFF7CFFC01210220FFF702FF7A
:100F900001218803FFF70EFF4FF4805009900120D4
:100FA0008DF8280000208DF82A0003208DF82900F4
:100FB00001208DF82B0009A94548FFF749FC4FF4A3
:100FC00080514348FFF7B1FC4FF460400990022084
:100FD0008DF8280000208DF82A0002208DF82900C5
:100FE00001208DF82B0009A93948FFF731FC0522B3
:100FF0000D213748FFF774FC05220E213448FFF716
:101000006FFC05220F213248FFF76AFC314801F0DE
:101010008DF80020ADF804004FF48270ADF80600A2
:101020000020ADF80800ADF80A00ADF80C004FF450
:101030000070ADF80E000020ADF81000ADF8120001
:101040000720ADF8140001A9224801F0D5F80121CC
:10105000204801F05FF801211020FFF79BFE4FF4BC
:101060008040099000208DF8280003208DF8290089
:1010700001208DF82B0009A91448FFF7E9FB012195
:101080008803FFF7B7FE0E21042001F02FF94FF47B
:101090008040079000208DF820000C208DF8210062
:1010A00001208DF8220007A8FFF788FB28208DF883
:1010B000180002208DF819008DF81A0001208DF813
:1010C0001B0006A8FFF77EFC0BB000BD001002401D
:1010D000000402400038004010B5FFF71FFF00F089
:1010E00053F9002407E0254A115D04F1090000F0DE
:1010F0007BFA601CC4B2062CF5DB002406E0204A13
:10110000115D601C00F070FA601CC4B2042CF6DBA8
:10111000002407E01B4A115D04F10F0000F064FA9F
:10112000601CC4B2042CF5DB17480088010A1720A4
:1011300000F05AFA14480178182000F055FA1348C4
:101140000178192000F050FA002413E0104A115DD4
:1011500044F21E0202EB042290B200F045FA0D4A5E
:10116000115D44F21F0202EB042290B200F03CFA3F
:10117000601CC4B2082CE9DB10BD00005400002044
:101180005E0000205A00002084000020860000201D
:10119000DA000020E20000202DE9F047804601F04F
:1011A0003BF944F2260000F0CFF888F8000044F242
:1011B000270000F0C9F888F8010098F8010098F8B5
:1011C000001000EB012087B2C7F30C0744F228009F
:1011D00000F0BAF80446240244F2290000F0B4F802
:1011E000204484B2E0191FFA80F9C4F30C04E0191A
:1011F000B0F5005F48DDC4F5005085B204F540400D
:1012000084B24FF480514148FFF78DFB200A00F073
:101210007FF8E0B200F07CF8C5F3062000F078F823
:10122000E8B200F075F8002607E0002000F070F842
:10123000B11C08F80100701C86B2AE42F5DB4FF419
:101240004044200A00F064F8E0B200F061F8791B35
:10125000C1F3062000F05CF8791BC8B200F058F822
:10126000002608E0002000F053F87119891C08F8E6
:101270000100701C86B2781BB042F3DC4FF4805141
:101280002248FFF752FB26E004F5404084B23D4679
:101290004FF480511D48FFF746FB200A00F038F854
:1012A000E0B200F035F8C5F3062000F031F8E8B2FE
:1012B00000F02EF8002607E0002000F029F8B11C0D
:1012C00008F80100701C86B2AE42F5DB4FF4805185
:1012D0000E48FFF72AFB4FEA192144F2280000F0DC
:1012E00083F909F0FF0144F2290000F07DF9402163
:1012F00044F2010000F078F900BF44F2010000F070
:1013000023F80028F9D1BDE8F0870000000402406E
:1013100010B5044600BF02210A4800F05FFF002814
:10132000F9D02146074800F065FF00BF01210548BC
:1013300000F054FF0028F9D0024800F058FFC0B276
:1013400010BD00000038004070B504464FF48051D5
:101350000C48FFF7E8FA200AFFF7DAFFE0B2FFF7E0
:10136000D7FF0020FFF7D4FF0120FFF7D1FF0020B7
:10137000FFF7CEFF05464FF480510248FFF7D5FA3C
:10138000284670BD0004024070B54FF480510F48EC
:10139000FFF7C9FA002401E0601C84B2A52CFBDB36
:1013A0004FF480510948FFF7C0FA002408E00025F7
:1013B00001E0681C85B2B5F57A7FFADB601C84B267
:1013C00041F288308442F2DB70BD00000010024020
:1013D00010B50121162000F007F9072144F22C0076
:1013E00000F002F900BF0121880300F0FDF8234856
:1013F0000088010A44F2040000F0F6F81F48017862
:1014000044F2050000F0F0F8012144F2010000F080
:10141000EBF844F20300FFF797FF132810D0601C8D
:10142000C4B20A2C05DA102144F2010000F0DCF805
:10143000D9E7102144F2010000F0D6F8002010BDD9
:10144000022144F2010000F0CFF844F20300FFF75C
:101450007BFF142810D0601CC4B20A2C05DA1021BE
:1014600044F2010000F0C0F8BDE7102144F2010091
:1014700000F0BAF80020E2E70120E0E76600002073
:101480002DE9F04780460F4600F0C6FF44F22400E5
:10149000FFF75AFF040244F22500FFF755FF2044EE
:1014A00084B2E0191FFA80F9C4F30C04E019B0F516
:1014B000005F54DDC4F5005085B204F5004084B2ED
:1014C0004FF480514748FFF72EFA200AFFF720FF1C
:1014D000E0B2FFF71DFFC5F3062141F08000FFF7E2
:1014E00017FFE8B2FFF714FF002605E018F8060022
:1014F000FFF70EFF701C86B2AE42F7DB4FF40044DC
:10150000200AFFF705FFE0B2FFF702FF791BC1F3E6
:10151000062141F08000FFF7FBFE791BC8B2FFF700
:10152000F7FE002606E0A91918F80100FFF7F0FE03
:10153000701C86B2781BB042F5DC4FF4805129480C
:10154000FFF7F3F94FEA192144F2240000F04CF8B8
:1015500009F0FF0144F2250000F046F834E0C4F33E
:101560000C043D4604F5004084B24FF480511D4800
:10157000FFF7D9F9200AFFF7CBFEE0B2FFF7C8FE6C
:10158000C5F3062141F08000FFF7C2FEE8B2FFF785
:10159000BFFE002605E018F80600FFF7B9FE701C34
:1015A00086B2AE42F7DB4FF480510E48FFF7BDF92B
:1015B0004FEA192144F2240000F016F809F0FF0167
:1015C00044F2250000F010F8202144F2010000F060
:1015D0000BF800BF44F20100FFF7B6FE0028F9D176
:1015E000BDE8F0870004024070B504460D464FF494
:1015F00080510C48FFF797F9200AFFF789FEE0B207
:10160000FFF786FE8020FFF783FE0120FFF780FEB4
:101610002846FFF77DFE4FF480510248FFF785F919
:1016200070BD00000004024010B500F0F5FE18483F
:1016300000783C282BD117480088401E1449085CCC
:101640003E2824D10846407810B101281ED10EE072
:101650003C2011490870002048703E20887003210A
:101660000D4800F0CBFA01200C4908700EE03C2038
:1016700009490870012048703E20887003210648FF
:1016800000F0BCFA00200549087000BF00BF10BD83
:10169000AE1B0020EA000020AE1F002080000020CA
:1016A00000B58BB001210846FFF774FB04200990B8
:1016B00001208DF8280000208DF82A0003208DF8E5
:1016C000290001208DF82B0009A95D48FFF7C0F81B
:1016D00004215B48FFF729F90820099001208DF8C3
:1016E000280000208DF82A0003208DF82900012011
:1016F0008DF82B0009A95248FFF7AAF80821504895
:10170000FFF711F901210846FFF744FB0121080307
:10171000FFF770FB1020099001208DF828000020B1
:101720008DF82A0003208DF8290001208DF82B0068
:1017300009A94348FFF78CF810214148FFF7F5F855
:10174000E020099002208DF8280000208DF82A0062
:1017500002208DF8290001208DF82B0009A93848B6
:10176000FFF776F8052211463548FFF7B9F805224C
:1017700006213348FFF7B4F8052207213048FFF768
:10178000AFF8304800F0D2FC0020ADF804004FF470
:101790008270ADF806000020ADF80800ADF80A0030
:1017A000ADF80C004FF40070ADF80E000020ADF85D
:1017B0001000ADF812000720ADF8140001A921486F
:1017C00000F01AFD01211F4800F0A4FC01210420B3
:1017D000FFF7E0FA2020099000208DF82800032070
:1017E0008DF8290001208DF82B0009A91648FFF774
:1017F0002FF801218803FFF7FDFA0521022000F0F0
:1018000075FD2020079000208DF820000C208DF819
:10181000210001208DF8220007A8FEF7CFFF172036
:101820008DF8180002208DF819008DF81A0001209B
:101830008DF81B0006A8FFF7C5F80BB000BD00002F
:1018400000000240003001400008024010B5FFF7E0
:1018500027FF00F059F9002407E02A4A115D04F13E
:10186000090000F07BFA601CC4B2062CF5DB0024F2
:1018700006E0254A115D601D00F070FA601CC4B2DC
:10188000042CF6DB002406E0204A115D601C00F009
:1018900065FA601CC4B2042CF6DB002407E01C4A85
:1018A000115D04F10F0000F059FA601CC4B2042C61
:1018B000F5DB18480088010A172000F04FFA154898
:1018C0000178182000F04AFA13480178192000F036
:1018D00045FA002413E0114A115D44F21E0202EBA6
:1018E000042290B200F03AFA0D4A115D44F21F0250
:1018F00002EB042290B200F031FA601CC4B2082C52
:10190000E9DB10BD6B00002079000020750000208D
:10191000710000208400002086000020DA000020F2
:10192000E20000202DE9F047804600F075FD44F20A
:10193000260000F0CBF888F8000044F2270000F001
:10194000C5F888F8010098F8010098F8001000EB3D
:10195000012087B2C7F30C074C48078044F22800E7
:1019600000F0B4F80446240244F2290000F0AEF876
:10197000204484B2E0191FFA80F9C4F30C04E01982
:10198000B0F5005F44DDC4F5005085B204F5404079
:1019900084B210213E48FEF7C6FF200A00F07AF814
:1019A000E0B200F077F8C5F3062000F073F8E8B273
:1019B00000F070F8002606E0002000F06BF808F850
:1019C0000600701C86B2AE42F6DB4FF44044200A9B
:1019D00000F060F8E0B200F05DF8791BC1F306207A
:1019E00000F058F8791BC8B200F054F8002607E060
:1019F000002000F04FF8711908F80100701C86B241
:101A0000781BB042F4DC10212148FEF78EFF23E062
:101A100004F5404084B23D4610211D48FEF783FF87
:101A2000200A00F037F8E0B200F034F8C5F30620E1
:101A300000F030F8E8B200F02DF8002606E00020B3
:101A400000F028F808F80600701C86B2AE42F6DBFB
:101A500010210F48FEF769FF4FEA192144F22800D0
:101A600000F07CF909F0FF0144F2290000F076F95A
:101A7000402144F2010000F071F900BF44F201007E
:101A800000F024F80028F9D1BDE8F087EA00002032
:101A90000000024010B5044600BF02210A4800F0D1
:101AA0009DFB0028F9D02146074800F0A3FB00BFAA
:101AB0000121054800F092FB0028F9D0024800F00F
:101AC00096FBC0B210BD00000030014070B5044666
:101AD00010210C48FEF727FF200AFFF7DBFFE0B2DA
:101AE000FFF7D8FF0020FFF7D5FF0120FFF7D2FF57
:101AF0000020FFF7CFFF054610210248FEF715FF33
:101B0000284670BD0000024070B504210E48FEF763
:101B10000AFF002401E0601C84B2A52CFBDB042139
:101B20000948FEF702FF002408E0002501E0681CD8
:101B300085B2B5F57A7FFADB601C84B241F2883059
:101B40008442F2DB70BD00000000024010B50121AC
:101B5000162000F003F9072144F22C0000F0FEF8F3
:101B600000BF0121880300F0F9F823480088010A2A
:101B700044F2040000F0F2F81F48017844F2050036
:101B800000F0ECF8012144F2010000F0E7F844F223
:101B90000300FFF79BFF132810D0601CC4B20A2C6F
:101BA00005DA102144F2010000F0D8F8D9E710213D
:101BB00044F2010000F0D2F8002010BD022144F2EE
:101BC000010000F0CBF844F20300FFF77FFF142878
:101BD00010D0601CC4B20A2C05DA102144F20100B6
:101BE00000F0BCF8BDE7102144F2010000F0B6F8A7
:101BF0000020E2E70120E0E77E0000202DE9F04729
:101C000080460F4600F008FC44F22400FFF75EFF18
:101C1000040244F22500FFF759FF204484B2E01982
:101C20001FFA80F9C4F30C04E019B0F5005F52DD2F
:101C3000C4F5005085B204F5004084B21021464836
:101C4000FEF771FE200AFFF725FFE0B2FFF722FF43
:101C5000C5F3062141F08000FFF71CFFE8B2FFF753
:101C600019FF002605E018F80600FFF713FF701CA7
:101C700086B2AE42F7DB4FF40044200AFFF70AFFBA
:101C8000E0B2FFF707FF791BC1F3062141F08000A6
:101C9000FFF700FF791BC8B2FFF7FCFE002606E045
:101CA000A91918F80100FFF7F5FE701C86B2781B21
:101CB000B042F5DC10212848FEF737FE4FEA192123
:101CC00044F2240000F04AF809F0FF0144F2250034
:101CD00000F044F832E0C4F30C043D4604F5004043
:101CE00084B210211C48FEF71EFE200AFFF7D2FE28
:101CF000E0B2FFF7CFFEC5F3062141F08000FFF709
:101D0000C9FEE8B2FFF7C6FE002605E018F8060097
:101D1000FFF7C0FE701C86B2AE42F7DB10210E4802
:101D2000FEF703FE4FEA192144F2240000F016F8F2
:101D300009F0FF0144F2250000F010F8202144F2E0
:101D4000010000F00BF800BF44F20100FFF7BEFEF7
:101D50000028F9D1BDE8F0870000024070B50446C4
:101D60000D4610210B48FEF7DEFD200AFFF792FE1C
:101D7000E0B2FFF78FFE8020FFF78CFE0120FFF717
:101D800089FE2846FFF786FE10210248FEF7CDFDAA
:101D900070BD00000000024000B585B001210820A0
:101DA000FEF7F8FF012003908DF8100000208DF859
:101DB000120003208DF8110001208DF8130003A9F3
:101DC0002C48FEF745FD01212A48FEF7AEFD012112
:101DD0000846FEF7DFFF0220039001208DF8100077
:101DE00000208DF8120003208DF8110001208DF8DD
:101DF000130003A92048FEF72BFD02211E48FEF721
:101E000094FD01210846FEF7C5FF01200390002044
:101E10008DF8100003208DF8110001208DF81300BB
:101E200003A91548FEF714FD01218803FEF7E2FF20
:101E30000021084600F05AFA0120009000208DF899
:101E400004000C208DF8050001208DF8060068467E
:101E5000FEF7B4FC06208DF8080002208DF809007A
:101E60008DF80A0001208DF80B0002A8FEF7AAFDEC
:101E700005B000BD000C02400000024010B5002477
:101E8000FFF78AFF012000F0CBFD00F0D3F901201D
:101E90003E4908600A2000F0C3FD00203C49C1F81B
:101EA00084020A2000F0BCFD40F2052202215620E7
:101EB000FEF744FF3748027802216020FEF73EFF1C
:101EC0004FF6FF7202216820FEF738FF012202213F
:101ED0005020FEF733FF032202213C20FEF72EFFA5
:101EE00000BF16E0224602212020FEF727FF07222E
:101EF00002213220FEF722FF2748025D0221222024
:101F0000FEF71CFF224602213A20FEF717FF601C55
:101F1000C4B2122CE6DB4AF6A13202217020FEF791
:101F20000DFF002202212020FEF708FF00220221DF
:101F30007220FEF703FF012202212020FEF7FEFEA1
:101F4000102202217220FEF7F9FE02221146202003
:101F5000FEF7F4FE202202217220FEF7EFFE03229C
:101F600002212020FEF7EAFE302202217220FEF735
:101F7000E5FE0A4A03212A20FEF7E0FE4FF44472F0
:101F800002212420FEF7DAFE10BD00008402404248
:101F9000000040420000002042130020FFFF030029
:101FA0002DE9F04100F038FA03214020FEF79CFEB5
:101FB0008046002431E00120A04000EA080050B330
:101FC0000120A040174909680843164908602246C5
:101FD00002212020FEF7B2FE02212620FEF784FE19
:101FE000054605F48070B0B1EFB200200E490860DC
:101FF000482000F067F8002608E0AA2000F062F808
:102000000A4901EBC4118855701CC6B2BE42F4DB0C
:10201000012005490860601CC4B2122CCBDBBDE86E
:10202000F08100001400002080824142420A00201A
:1020300070B500F0F1F900242DE00120A0401C490A
:102040000968084028B3224602212020FEF776FEC8
:102050001848005D1849095D40EA01220221262046
:10206000FEF76CFE002015490860B42000F02AF845
:10207000002507E0124901EBC411485D00F022F889
:10208000681CC5B20B48005DA842F3DC01200B4977
:102090000860601CC4B2122CCFDB05480268032123
:1020A0003620FEF74BFE00200149086070BD00009D
:1020B000100000205413002066130020808241424B
:1020C0004201002010B5044600BF02210A4800F07A
:1020D00085F80028F9D02146074800F08BF800BFAA
:1020E0000121054800F07AF80028F9D0024800F0F4
:1020F0007EF8C0B210BD0000003C004021B1028853
:1021000042F40052028004E002884DF6FF731A4048
:102110000280704721B1028842F04002028004E050
:1021200002884FF6BF731A400280704710B504460C
:102130002448844208D101218014FEF76BFE00215F
:10214000A014FEF767FE3CE01F48844208D101213D
:102150000014FEF73FFE00212014FEF73BFE30E0A6
:102160001A48844208D10121C013FEF733FE002132
:10217000E013FEF72FFE24E01548844208D1012128
:102180004014FEF747FE00216014FEF743FE18E0FE
:102190001048844209D101210805FEF73BFE0021C9
:1021A0004FF48010FEF736FE0BE00B48844208D156
:1021B00001214805FEF72EFE00214FF40010FEF726
:1021C00029FE10BD0030014000380040003C0040B6
:1021D00000340140005001400054014002460020FC
:1021E00013890B400BB1012000E00020704701462D
:1021F000888970478181704710B50022028802F4F7
:1022000041520B884C8823438C882343CC8823433A
:102210000C8923434C8923438C892343CC89234352
:102220001A430280838B4FF2FF74234083830B8A0F
:10223000038210BD00B587B001210420FEF7AAFD7E
:102240000121C803FEF7B6FD4FF4E05005900220CF
:102250008DF8180000208DF81A0002208DF8190062
:102260008DF81B0005A91F48FEF7F2FA06220A2185
:102270001C48FEF735FB06220B211A48FEF730FBFF
:1022800006220C211748FEF72BFB1748FFF74EFFDD
:102290000020ADF800004FF48270ADF8020000207D
:1022A000ADF80400ADF80600ADF808004FF400707A
:1022B000ADF80A001020ADF80C000020ADF80E00BB
:1022C0000720ADF8100069460748FFF795FF002189
:1022D0000548FFF713FF01210348FFF71BFF07B075
:1022E00000BD000000080240003C004030B5002264
:1022F0008B071C0F0F2303FA04F20B4B8C1053F8BF
:1023000024309343084C8D1044F8253023468C101C
:1023100053F824308C07240F00FA04F42343024CB2
:102320008D1044F8253030BD083801400CB5002030
:10233000019000903448006840F4803032490860D1
:1023400000BF3148006800F4003000900198401C44
:102350000190009818B90198B0F5A04FF1D12A4822
:10236000006800F4003010B10120009001E000206E
:1023700000900098012846D123484030006840F082
:1023800080502149403108602048006840F44040B6
:102390001E4908601C48083000681B490831086065
:1023A0000846006840F4004008600846006840F4B1
:1023B000A05008601648091F0860081F006840F018
:1023C0008070091F086000BF0F48006800F00070AF
:1023D0000028F9D040F205700E4908600A4808301C
:1023E000006820F0030008490831086008460068CA
:1023F00040F00200086000BF03480830006800F0A9
:102400000C000828F8D10CBD0038024000700040D4
:1024100008544007003C02400749096801F07F0169
:102420007E2902D27F21044A1160002001E0411C74
:10243000C8B20228FBDB7047002C0040042808D1FA
:102440004FF0E021096941F004014FF0E0221161F1
:1024500007E04FF0E021096921F004014FF0E0228C
:102460001161704710B51548006840F470001349B9
:1024700008601348006840F001001149086000201E
:102480000F49083108600E4800680E4908400C49A1
:1024900008600D48091D0860081F006820F48020AE
:1024A000091F0860002006490C310860FFF73EFF55
:1024B0004FF0006001498039086010BD88ED00E0F0
:1024C00000380240FFFFF6FE1030002410B5012155
:1024D000064800F04CF8012803D141020448FEF7F9
:1024E00026FA0121014800F033F810BD0004004035
:1024F000000402407FB505460C4601210220FEF78C
:1025000059FC0295ADF804400020ADF80600ADF886
:102510000C0001A90D4800F045F8012211460B48B6
:1025200000F036F80121094800F015F81D208DF85B
:10253000000001208DF8010003208DF8020000202A
:102540008DF803006846FEF73DFA7FBD00040040A9
:10255000CA430282704721B1028842F00102028020
:1025600004E002884FF6FE731A400280704730B5CF
:102570000246002000230024158A05EA01039589FC
:1025800005EA010413B10CB1012000E0002030BDC8
:102590001AB183890B43838102E083898B43838152
:1025A0007047000000220288184B98420ED0184B4A
:1025B00098420BD0B0F1804F08D0164B984205D00E
:1025C000154B984202D0154B984204D14FF68F73A9
:1025D0001A404B881A43124B984207D0114B98422D
:1025E00004D04FF6FF431A400B891A4302804B6810
:1025F000C3620B880385054B984202D0044B984276
:1026000001D18B7A03860123838270470000014049
:10261000000401400004004000080040000C00409D
:10262000001000400014004010B540F2255123482E
:1026300000F05CF8002838D0204800F011F9C4B24E
:102640001F48007848B9102C01D0682C05D1012012
:102650001B49087000201B4908701B48194909785C
:10266000445418480078401C1649087016480078F1
:10267000102809D108460078052805D10120134902
:10268000087000200E4908700F48007868280CD1A7
:102690000D484078801D0B490978884205D10120FA
:1026A0000A4908700020064908700948006808B9FE
:1026B000012000E000200649086010BD0010014024
:1026C000EC000020ED000020503300209F0000208F
:1026D000A482404221B1828942F40052828104E006
:1026E00082894DF6FF731A408281704770B50246A9
:1026F000002400230025002040F66A16B14200D1D4
:1027000000BFC1F3421501F01F03012606FA03F3CF
:10271000012D02D19689334006E0022D02D1168A9E
:10272000334001E0968A33400C12012606FA04F485
:102730001688344013B10CB1012000E0002070BDB8
:10274000F0B50346002400260025002040F66A1755
:10275000B94200D100BF1846C1F3421401F01F0670
:10276000012707FA06F5012C01D10C3004E0022CF8
:1027700001D1103000E014301AB107682F43076010
:1027800002E00768AF430760F0BD00002DE9FF4796
:1027900005460E460024A14600BFA046B08900B100
:1027A00000BF2C8A24F44054F08804432C82AC8966
:1027B00041F20C608443B088318908437189084331
:1027C0000443AC81AC8A24F44074B0890443AC82E5
:1027D0006846FEF72FFB2048854202D01F488542FD
:1027E00002D1DDF80C9001E0DDF80890A88900F432
:1027F000004040B109EBC90000EB09103168490005
:10280000B0FBF1F707E009EBC90000EB09103168F4
:102810008900B0FBF1F76420B7FBF0F00401200958
:10282000642101FB1078A88900F4004040B13220F7
:1028300000EBC800B0FBF1F000F00700044308E033
:10284000322000EB08106421B0FBF1F000F00F0023
:1028500004432C81BDE8FF870010014000140140B3
:1028600001468888C0F30800704700000020014935
:1028700008607047082C004040F08001014A116058
:1028800070470000002C004001200149086070479B
:10289000A480054210B50648007800F039F8FFF72B
:1028A000E5FF002401E0601CC4B2022CFBDB10BD7C
:1028B000EE000020F8B506460C4615460121C80278
:1028C000FEF778FA11480078304010490870284621
:1028D00000F026F8204600F02FF80C480078FFF7AB
:1028E000CBFF00208DF8000002208DF801000320AE
:1028F0008DF8020001208DF803006846FEF762F8AB
:10290000FFF7B4FFFFF7C0FFF8BD0000EE000020A6
:1029100000F07F01014A116070470000002C004068
:102920000021044A126822F4C0710143014A116077
:1029300070470000042C004008B5002100910749B1
:10294000096821F07F01009100F07F01009A114396
:102950000091024A0099116008BD0000042C00405B
:1029600010B504466FF00400FFF768FDE11704EBB3
:102970005171C1F3C701074A11701046007800EB8E
:102980004001C1EBC0104FF6FF7101EAC0000249DF
:10299000088010BDF0000020F200002070B5044651
:1029A0004FF4077094FBF0F0C6B24FF4077094FB3D
:1029B000F0F100FB114085B205E04FF4077000F024
:1029C00009F8701EC6B2002EF7D115B1284600F0E6
:1029D00001F870BD0146114A12884A434FF0E023C6
:1029E0005A6100229A611A46126942F001021A6184
:1029F00000BF4FF0E022106900F001021AB100F4AC
:102A00008032002AF5D04FF0E022126922F0010254
:102A10004FF0E0231A6100229A617047F200002013
:102A200010B500230EE0002107E0002201E0541C55
:102A3000A2B2642AFBDB4C1CA1B2B1F5C87FF4DB67
:102A40005C1CA3B28342EEDB10BD00001CB501216B
:102A50004020FEF79FF98020009001208DF80400AF
:102A600000208DF8060003208DF8050001208DF868
:102A7000070069462C48FDF7EBFE80212A48FDF748
:102A800052FF01210846FEF785F94FF400600090DF
:102A900001208DF8040000208DF8060003208DF839
:102AA000050001208DF8070069462048FDF7D0FE9B
:102AB0004FF400611D48FDF736FF01211020FEF79D
:102AC00069F90320009001208DF8040000208DF8A2
:102AD000060003208DF8050001208DF807006946E7
:102AE0001348FDF7B5FE03211148FDF71CFF012136
:102AF0000220FEF74FF94FF46070009001208DF82E
:102B0000040000208DF8060003208DF80500012048
:102B10008DF8070069460748FDF79AFE4FF460718B
:102B20000448FDF700FF1CBD0018024000000240F1
:102B30000010024000040240A820FFF711FF4FF4EC
:102B4000C0727B217F20FFF7B5FEFFF77FFF0120DA
:102B50002F49086000202F49C1F8AC020A20FFF776
:102B60001DFFFDF7C5FC0A20FFF718FFFDF7E4FE87
:102B70000A20FFF713FF0020274908700CE02648C1
:102B80000078800014302549234A1278885422485E
:102B90000078401C204908701F4800781228EEDB9E
:102BA000FFF76CF90A20FFF7F9FE42F2CF0142F27B
:102BB0001070FFF79FFC4FF4165000F039F800201A
:102BC000174908701749087017490870FEF784FA0A
:102BD0006420FFF7E3FEFEF7FBFBFEF737FE642001
:102BE000FFF7DCFEFEF7B2FF10480068401C0F49FB
:102BF00008600CE00D480068FDF720FF0B480068F6
:102C0000401C0A4908604FF4FA70FFF7C7FEF1E76D
:102C10009C02434200004042C800002042130020B2
:102C2000680000208000002069000020C40000200F
:102C300010B588B0044601210846FEF7ABF8012123
:102C40001020FEF7D7F801210846FEF7A3F84FF44D
:102C50008070069000208DF81C0003208DF81D0068
:102C600001208DF81F0006A92448FDF7F1FD072279
:102C700009212248FDF734FE07220A211F48FDF7EB
:102C80002FFE4FF4C060069002208DF81C008DF8D6
:102C90001D0000208DF81E0001208DF81F0006A9E0
:102CA0001648FDF7D5FD02940020ADF80C00ADF8F4
:102CB0000E00ADF81000ADF814000C20ADF81200B5
:102CC00002A90F48FFF762FD01210D48FFF702FD41
:102CD000012240F225510A48FFF732FD25208DF8E8
:102CE000040002208DF805008DF8060001208DF803
:102CF000070001A8FDF766FE08B010BD0000024005
:102D0000001001404FF04070E1EE100A70470000E3
:102D1000302D000800000020F8000000C401000869
:102D2000282E0008F8000020B8390000E001000853
:102D3000000000040E4CC0A801420E56C0A801437A
:102D400000000000000000000000646171690005DF
:102D5000010006060C1012150B030F4E4F50676D45
:102D6000C8252B0319444E5A0C1012150B030F4E95
:102D70004F50676DC8252B0319444E5A0000C0A858
:102D8000010164090008DC010203C0A80142C0A8D7
:102D90000104FFFFFF00F2040000000008DC010254
:102DA00003C0A80142C0A80104FFFFFF0000F20415
:102DB0000000000088130300000000000000000174
:102DC0000000000000000000000000000000000003
:102DD00000000000000068044300000068040700D1
:102DE0000000680E00000000640106000100000001
:102DF00000140000000000000000000000010203B9
:102E00000401020304060708090008020101010188
:102E100001010802010101010101000000007F0021
:082E20000000000000000000AA
:040000050800018965
:00000001FF
