:020000040800F2
:10000000903A00202902000831020008330200085B
:10001000350200083702000839020008000000001D
:100020000000000000000000000000003B0200088B
:100030003D020008000000003F02000841020008E5
:10004000A51F0008430200084302000843020008FD
:100050004302000843020008790600084302000832
:10006000430200084302000843020008430200085C
:10007000430200084302000843020008430200084C
:10008000430200084302000843020008430200083C
:100090004302000843020008430200080507000865
:1000A000430200084302000843020008430200081C
:1000B000430200085D1C0008E11C00084302000820
:1000C00043020008430200084302000843020008FC
:1000D000430200089D1E0008430200084302000876
:1000E000A906000843020008430200084302000872
:1000F00043020008430200084302000843020008CC
:1001000043020008430200084302000843020008BB
:1001100043020008430200084302000843020008AB
:10012000430200084302000843020008430200089B
:10013000430200084302000843020008430200088B
:10014000430200084302000843020008430200087B
:10015000430200084302000843020008430200086B
:10016000430200084302000843020008430200085B
:10017000430200084302000843020008430200084B
:10018000430200084302000800F002F800F03CF8C7
:100190000AA090E8000C82448344AAF10107DA45E2
:1001A00001D100F031F8AFF2090EBAE80F0013F0F8
:1001B000010F18BFFB1A43F00103184794200000F9
:1001C000B4200000103A24BF78C878C1FAD852078A
:1001D00024BF30C830C144BF04680C6070470000C1
:1001E0000023002400250026103A28BF78C1FBD840
:1001F000520728BF30C148BF0B6070471FB502F0DF
:1002000021F81FBD10B510BD00F031F81146FFF701
:10021000F5FF01F0B3FF00F04FF803B4FFF7F2FF72
:1002200003BC00F057F80000094880470948004720
:10023000FEE7FEE7FEE7FEE7FEE7FEE7FEE7FEE796
:10024000FEE7FEE704480549054A064B70470000F3
:10025000F51B00088901000890340020903A002026
:1002600090360020903600207047704770477546E2
:1002700000F02CF8AE4605006946534620F0070012
:10028000854618B020B5FFF7DDFFBDE820404FF0F0
:1002900000064FF000074FF000084FF0000B21F070
:1002A0000701AC46ACE8C009ACE8C009ACE8C0093D
:1002B000ACE8C0098D46704710B50446AFF3008026
:1002C0002046BDE81040FFF7A8BF00000048704777
:1002D0002C34002001491820ABBEFEE726000200A6
:1002E000704700001CB50121082000F053FC4FF4BA
:1002F0004050009001208DF8040000208DF8060089
:1003000003208DF8050001208DF807006946054897
:1003100000F082FA0120044908600449C1F8B402DF
:100320001CBD0000000C0240B082414200804142EE
:100330000021124A11601249096821F04061104AF7
:1003400011601146096841F08061116000210D4A79
:10035000C2F8B412002001E0411CC8B21428FBDB33
:100360000121064A1160002001E0411CC8B2142896
:10037000FBDB0021014A116070470000B08241425E
:10038000000C0240008041420021104A11601049D7
:10039000096821F040610E4A11601146096841F078
:1003A00080611160002001E0411CC8B21428FBDB11
:1003B0000121064A1160002001E0411CC8B2142846
:1003C000FBDB0021014A116070470000B08241420E
:1003D000000C02401249096821F04061104A116086
:1003E0001146096841F08061116001210D4A1160D8
:1003F0000D4AC2F8B012002001E0411CC8B23228F8
:10040000FBDB0021074A1160002001E0411CC8B25B
:100410003228FBDB0021034A121F116070470000E5
:10042000000C0240B48241420080414212490968F6
:1004300021F04061104A11601146096841F0806165
:10044000116000210D4A11600D4AC2F8B01200205F
:1004500001E0411CC8B23228FBDB0121074A121F10
:100460001160074AC2F8B412002001E0411CC8B272
:100470003228FBDB70470000000C0240B48241428E
:100480000080414210B5002400231748006820F086
:10049000406015490860084600680860012013495B
:1004A000086000BF01E0581CC3B2142BFBDB012025
:1004B0000E49091F0860002301E0581CC3B2142B29
:1004C000FBDB07E0601CC4B2FA2C03DDFFF7AEFFD4
:1004D000012010BD0548803800680028F2D103498A
:1004E000091F086000BFF4E7000C0240B4824142DB
:1004F00010B5FFF7F7FE10BD70B506460C46154661
:1005000008E03046721CD6B200F007F804F8010B80
:10051000681EC5B2002DF4D170BD30B50446FFF79A
:1005200059FFA02000F04EF8FFF7ACFF204600F086
:1005300049F8FFF7A7FFFFF74DFFA12000F042F8B1
:10054000FFF7A0FF002000F005F80546FFF76EFF5B
:10055000284630BD70B505461748006820F0406059
:100560001549086008460068086000261AE0002067
:1005700012490860002301E0581CC3B2142BFBDBB6
:1005800001200E4908606006040E0D48D0F83402C0
:100590002044C4B2002301E0581CC3B2142BFBDB7F
:1005A000701CC6B2082EE2DB15B1FFF7C1FE01E0F8
:1005B000FFF7EAFE204670BD000C0240B0824142C7
:1005C0000080414210B50146194B1B6823F040637F
:1005D000174C236023461B6843F08063236000238D
:1005E000144C236000221FE0CB09124C241D236011
:1005F0004B06190E002001E0431CD8B21428FBDB87
:1006000001230C4C2360002001E0431CD8B21428C5
:10061000FBDB0023074C2360002001E0431CD8B221
:100620001428FBDB531CDAB2082ADDDB10BD000006
:10063000000C0240B082414210B510214FF484708A
:1006400000F008FF002401E0601CC4B2142CFBDBA6
:1006500005E0002401E0601CC4B2142CFBDB4FF465
:10066000847000F0DBFD0028F3D1FF214FF402700D
:1006700000F0F0FE10BD000010B5012000F076F88B
:1006800078B10221522000F02FFA84B204F0010068
:1006900020B100F071FF012002490870012000F034
:1006A0005FF810BD2000002010B54FF4804000F02E
:1006B0005DF818B34FF4027000F054FB044604F0E8
:1006C000010020B101214FF4027000F095FB04F00D
:1006D000040038B10A4800F0ADFA04214FF402706A
:1006E00000F08AFB04F0020020B102214FF40270F6
:1006F00000F082FB4FF4804000F032F810BD0000A3
:100700008A13002010B5202000F030F820B34FF4F9
:10071000027000F083FD044604F0010020B10121C5
:100720004FF4027000F096FE04F0040048B10B484C
:1007300000F0DEFC04214FF4027000F08BFE00F0AC
:100740007DFB04F0020020B102214FF4027000F0A2
:1007500081FE202000F004F810BD00008A1B00205C
:100760000149086070470000143C01400146002028
:10077000034A12680A400AB1012000E000207047D5
:10078000143C0140002123498279002A3AD00A46CC
:10079000126803689A430B461A600A1D12680368C0
:1007A0009A430B1D1A60027911440A6803681A43C0
:1007B0000A60184A0832126803689A43154B0833D6
:1007C0001A601A1D126803689A43124B0C331A60A0
:1007D0004279102A0ED11A1F126803681A430D4B72
:1007E00008331A601A1D126803681A43094B0C3348
:1007F0001A600DE00749427911440A6803681A43F8
:100800000A6005E0027911440A6803689A430A60A5
:1008100070470000003C0140F0B50A46002100236B
:10082000002400BF3DE0012505FA01F3156805EA43
:1008300003049C4234D105684F000326BE40B543F3
:10084000056015794E00B540066835430560157999
:10085000012D02D01579022D16D185684F0003268F
:10086000BE40B543856055794E00B5408668354336
:100870008560456801268E40B54345604568967998
:100880008E40B6B235434560C5684F000326BE4072
:10089000B543C560D5794E00B540C6683543C560DF
:1008A000491C1029BFD3F0BDF0B5002300244D072B
:1008B000ED0E02FA05F3CE1000F1200555F8265092
:1008C0004E07F70E0F26BE40B543CF1000F12006AD
:1008D00046F82750CE1000F1200555F8265045EA7D
:1008E0000304CE1000F1200545F82640F0BD4183F9
:1008F00070470183704742694A4042617047000077
:1009000000B50020FFF709FE434908700120FFF7FA
:1009100004FE42490880084600884FF6FF7101EA4C
:1009200000203E4908800220FFF7F7FD3B49098877
:1009300008443A490880042239490320FFF7DCFDC6
:1009400035490978642211FB02F0C11700EB1161EF
:100950000912A0EB0121334AD1702F49097801EB2C
:1009600081014800C11700EB11610912A0EB0121C0
:1009700011712949097801EB81014800C11700EB89
:1009800011610912A0EB012151710720FFF7C5FD8C
:1009900025490880084600884FF6FF7101EA0020CB
:1009A000214908800820FFF7B8FD1F49098808443D
:1009B0001D49088004221D490920FFF79DFD1649A5
:1009C000097801EBC10202EB0111012202EB810067
:1009D000C11700EB11610912A0EB0121144AD1707B
:1009E0000D49097801EB8101012202EB4100C11799
:1009F00000EB11610912A0EB01210D4A11710649AA
:100A0000097801EB81014800C11700EB116109125F
:100A1000A0EB0121517100BD000000206E000020FC
:100A2000620000205C000020880000207B00002085
:100A30007500002038B10849096844F221021143C9
:100A4000054A116006E00449096844F22102914315
:100A5000014A116070470000003C014070B5002160
:100A600000230F22C4781CB3174C246804F4E064FC
:100A7000C4F5E064C4F30721C1F10404E3B20A4100
:100A800044789C40E1B28478144021430C07210E45
:100A90000E4C05786155047804F01F050124AC4024
:100AA00005786D11AD0005F1E025C5F8004109E0BC
:100AB000047804F01F050124AC40054D067876113A
:100AC00045F8264070BD00000CED00E000E400E0B9
:100AD00080E100E002490143024A116070470000D2
:100AE0000000FA050CED00E02DE9F04106460F4646
:100AF000002400201049086006F07F06304600F010
:100B0000CFFD0546032F05D1304600F0C9FD05464F
:100B10002C442402304600F0C3FD05462C44240238
:100B2000304600F0BDFD05462C4401200249086016
:100B30002046BDE8F0810000808241422DE9F0416D
:100B400005460E461446002700201149086005F0AE
:100B50007F0040F08005284600F0A2FD8046032E6D
:100B600005D1C4F30747384600F09AFD8046C4F328
:100B70000727384600F094FD8046E7B2384600F07B
:100B80008FFD8046012002490860BDE8F081000029
:100B90008082414229B1064A12680243044B1A601E
:100BA00004E0034A12688243014B1A607047000058
:100BB0003038024029B1064A12680243044B1A60D9
:100BC00004E0034A12688243014B1A607047000038
:100BD0004038024029B1064A12680243044B1A60A9
:100BE00004E0034A12688243014B1A607047000018
:100BF0002038024029B1064A12680243044B1A60A9
:100C000004E0034A12688243014B1A6070470000F7
:100C10004438024029B1064A12680243044B1A6064
:100C200004E0034A12688243014B1A6070470000D7
:100C30002438024070B505460222244942F2086079
:100C400000F066F821484178007801EB0020204947
:100C5000088002221D4942F6080000F059F81B489E
:100C60004178007801EB002084B2194909886018A6
:100C7000C11700EB1161090A164A1170144909885D
:100C80006018C11700EB11610912A0EB012151702E
:100C9000002000EB042000F118060D4802882946C8
:100CA000304600F035F802220A4942F6080000F00A
:100CB00079F840214FF4847000F09EF800BF4FF4A3
:100CC000847000F04FF80028F9D170BDC6000020F4
:100CD00070000020C400002010B5044600BF0221AF
:100CE0000A4800F069FD0028F9D02146074800F0C5
:100CF0006FFD00BF0121054800F05EFD0028F9D01E
:100D0000024800F062FDC0B210BD00000038004093
:100D10002DE9F04104460E4617464FF48051104825
:100D2000FFF7E5FDC4F30740FFF7D6FFC4F3072044
:100D3000FFF7D2FF04F0F800FFF7CEFF002505E033
:100D40000020FFF7C9FF7055681C85B2BD42F7DB74
:100D50004FF480510248FFF7CCFDBDE8F081000060
:100D60000004024070B504464FF480510C48FFF770
:100D7000BEFDC4F30740FFF7AFFFC4F30720FFF742
:100D8000ABFF04F0F800FFF7A7FF0020FFF7A4FF78
:100D900005464FF480510248FFF7ABFD284670BD71
:100DA000000402402DE9F04104460E4617464FF478
:100DB00080511048FFF79BFDC4F30740FFF78CFFFD
:100DC000C4F30720FFF788FF04F0F801091DC8B23B
:100DD000FFF782FF002504E0705DFFF77DFF681CD0
:100DE00085B2BD42F8DB4FF480510248FFF781FD28
:100DF000BDE8F0810004024070B504460D464FF492
:100E000080510D48FFF773FDC4F30740FFF764FFFF
:100E1000C4F30720FFF760FF04F0F801091DC8B212
:100E2000FFF75AFF2846FFF757FF4FF4805102485B
:100E3000FFF75FFD70BD00000004024010B51748C9
:100E400000783C2829D116480078401E1349085CD8
:100E50003E2822D10846407868B93C2011490870E4
:100E6000002048703E20C87108210E4800F088FA22
:100E700001200D4908700948407801280DD13C2017
:100E800008490870012048703E20C87108210548B3
:100E900000F076FA00200449087010BD8A1B00207B
:100EA0008A0000208A1F00208C00002000B58BB033
:100EB00001210846FFF76EFE0420099001208DF8FD
:100EC000280000208DF82A0003208DF82900012039
:100ED0008DF82B0009A95248FFF79EFC04215048C9
:100EE000FFF707FD01210846FFF754FE0121080323
:100EF000FFF780FE1020099001208DF828000020C7
:100F00008DF82A0003208DF8290001208DF82B0090
:100F100009A94348FFF780FC10214148FFF7E9FC8D
:100F2000E020099002208DF8280000208DF82A008A
:100F300002208DF8290001208DF82B0009A93848DE
:100F4000FFF76AFC052211463548FFF7ADFC052284
:100F500006213348FFF7A8FC052207213048FFF798
:100F6000A3FC304800F0D0FB0020ADF804004FF4A3
:100F70008270ADF806000020ADF80800ADF80A0058
:100F8000ADF80C004FF40070ADF80E000020ADF885
:100F90001000ADF812000720ADF8140001A9214897
:100FA00000F018FC01211F4800F0A2FB01210420E1
:100FB000FFF7F0FD2020099000208DF82800032085
:100FC0008DF8290001208DF82B0009A91648FFF79C
:100FD00023FC01218803FFF70DFE0521022000F00C
:100FE00073FC2020079000208DF820000C208DF845
:100FF000210001208DF8220007A8FFF7C3FB17206E
:101000008DF8180002208DF819008DF81A000120C3
:101010008DF81B0006A8FFF721FD0BB000BD0000F6
:1010200000000240003001400008024010B5FFF708
:101030003DFF00F011F9062224494FF4106000F042
:10104000E1F9042222494FF4A06000F0DBF9042208
:101050002049900100F0D6F904221F494FF4706036
:1010600000F0D0F91D490888C11700EB1161090A89
:101070001B4A117019490888C11700EB1161091248
:10108000A0EB01215170022215494FF4C85000F025
:10109000B9F9144801784FF4D85000F0DBF9002476
:1010A00011E0114A115D41F6087202EB441000F0A4
:1010B000D1F90E4A115D41F6086202EB441000F0CE
:1010C000C9F9601CC4B2082CEBDB10BD7500002010
:1010D000830000207F0000207B0000209000002083
:1010E000C400002092000020BA000020B2000020BE
:1010F00070B505460222244942F2086000F066F805
:1011000021484178007801EB002020490870022234
:101110001D4942F6080000F059F81B484178007854
:1011200001EB002084B2194909786018C11700EB5F
:101130001161090A164A1170144909786018C1171B
:1011400000EB11610912A0EB01215170002000EBAE
:10115000042000F118060D4802782946304600F0B8
:1011600035F802220A4942F6080000F04BF9402106
:101170004FF4847000F06EF900BF4FF4847000F0FB
:101180004DF80028F9D170BDC60000208A0000206B
:10119000C400002010B5044600BF02210A4800F038
:1011A0000BFB0028F9D02146074800F011FB00BFD7
:1011B0000121054800F000FB0028F9D0024800F0AA
:1011C00004FBC0B210BD0000003001402DE9F04129
:1011D00004460E46174610210F48FFF788FBC4F35C
:1011E0000740FFF7D7FFC4F30720FFF7D3FF04F052
:1011F000F800FFF7CFFF002505E00020FFF7CAFF4A
:101200007055681C85B2BD42F7DB10210248FFF71C
:1012100070FBBDE8F08100000000024070B504469C
:1012200010210C48FFF763FBC4F30740FFF7B2FF40
:10123000C4F30720FFF7AEFF04F0F800FFF7AAFFA2
:101240000020FFF7A7FF054610210248FFF751FBDA
:10125000284670BD0000024070B504210E48FFF71B
:1012600046FB002401E0601C84B246F2A8108442D0
:10127000F9DB04210848FFF73CFB002409E00025C6
:1012800001E0681C85B240F6C4108542F9DB601CA1
:1012900084B2322CF3DB70BD0000024070B5002533
:1012A00001214FF4C05000F0D5F80F2142F608405C
:1012B00000F0D0F8FFF7C0F92121082000F0CAF8AB
:1012C0002D490888C11700EB1161090A2B4A1170DA
:1012D00029490888C11700EB11610912A0EB01210F
:1012E0005170022225494FF4816000F08BF800BF55
:1012F00001214FF4847000F0ADF8002401E0601C7F
:10130000C4B2142CFBDB05E0002401E0601CC4B275
:10131000142CFBDB4FF48470FFF780FF0028F3D11F
:101320004FF44270FFF77AFF13280AD0681CC5B249
:101330000A2D02DAFFF780F9DAE7FFF77DF90020DE
:1013400070BD02214FF4847000F084F8002401E0A5
:10135000601CC4B2142CFBDB05E0002401E0601C1F
:10136000C4B2142CFBDB4FF48470FFF757FF002846
:10137000F3D10120E4E7000088000020C400002031
:101380002DE9F04106460D4602221C4942F2084072
:10139000FFF71CFF19484178007801EB002084B268
:1013A000002000EB042000F110072A4631463846A1
:1013B00000F028F8601984B22046E11704EB1161AF
:1013C000090A0F4A1170E11704EB11610912A4EB2D
:1013D0000121517002220A4942F2084000F012F83D
:1013E00020214FF4847000F035F800BF4FF4847072
:1013F000FFF714FF0028F9D1BDE8F081C6000020F6
:10140000C40000202DE9F04104460E461746102185
:101410000F48FFF76CFAC4F30740FFF7BBFEC4F3B5
:101420000720FFF7B7FE04F0F801091DC8B2FFF767
:10143000B1FE002504E0705DFFF7ACFE681C85B2CC
:10144000BD42F8DB10210248FFF753FABDE8F081F6
:101450000000024070B504460D4610210C48FFF70D
:1014600046FAC4F30740FFF795FEC4F30720FFF7E1
:1014700091FE04F0F801091DC8B2FFF78BFE284663
:10148000FFF788FE10210248FFF733FA70BD000015
:101490000000024000B585B001210820FFF77AFB6B
:1014A000012003908DF8100000208DF81200032019
:1014B0008DF8110001208DF8130003A92C48FFF7C7
:1014C000ABF901212A48FFF714FA01210846FFF77A
:1014D00061FB0220039001208DF8100000208DF8A0
:1014E000120003208DF8110001208DF8130003A9CC
:1014F0002048FFF791F902211E48FFF7FAF9012170
:101500000846FFF747FB0120039000208DF81000EC
:1015100003208DF8110001208DF8130003A9154850
:10152000FFF77AF901218803FFF764FB00210846E1
:1015300000F0CAF90120009000208DF804000C2072
:101540008DF8050001208DF806006846FFF71AF9AE
:1015500006208DF8080002208DF809008DF80A0099
:1015600001208DF80B0002A8FFF778FA05B000BD46
:10157000000C0240000002402DE9F0410321402010
:10158000FFF7B2FA8046002431E00120A04000EAD3
:10159000080050B30120A0401749096808431649C4
:1015A0000860224602212020FFF7C8FA02212620E7
:1015B000FFF79AFA054605F48070B0B1EFB200204B
:1015C0000E490860482000F06BF8002608E0AA20C9
:1015D00000F066F80A4901EBC4118855701CC6B2C8
:1015E000BE42F4DB012005490860601CC4B2122C25
:1015F000CBDBBDE8F08100001C000020808241426E
:101600001E0A002070B50020FFF714FA00242DE018
:101610000120A0401D490968084028B32246022144
:101620002020FFF78BFA1A48005D1A49095D40EA4D
:10163000012202212620FFF781FA002016490860C6
:10164000B42000F02DF8002507E0144901EBC41187
:10165000485D00F025F8681CC5B20D48005DA84241
:10166000F3DC01200C490860601CC4B2122CCFDBF3
:101670000648026803213620FFF760FA0120FFF7D1
:10168000D9F900200149086070BD00001800002051
:101690003013002042130020808241421E010020AE
:1016A00010B5044600BF02210A4800F085F8002862
:1016B000F9D02146074800F08BF800BF012105480A
:1016C00000F07AF80028F9D0024800F07EF8C0B2A5
:1016D00010BD0000003C004021B1028842F40052DD
:1016E000028004E002884DF6FF731A4002807047C2
:1016F00021B1028842F04002028004E002884FF6E5
:10170000BF731A400280704710B5044624488442D3
:1017100008D101218014FFF77DFA0021A014FFF702
:1017200079FA3CE01F48844208D101210014FFF7F8
:1017300051FA00212014FFF74DFA30E01A48844294
:1017400008D10121C013FFF745FA0021E013FFF78C
:1017500041FA24E01548844208D101214014FFF7E2
:1017600059FA00216014FFF755FA18E01048844236
:1017700009D101210805FFF74DFA00214FF480102F
:10178000FFF748FA0BE00B48844208D101214805D5
:10179000FFF740FA00214FF40010FFF73BFA10BDAD
:1017A0000030014000380040003C0040003401405F
:1017B00000500140005401400246002013890B40B4
:1017C0000BB1012000E00020704701468889704776
:1017D0008181704710B50022028802F441520B88C3
:1017E0004C8823438C882343CC8823430C89234390
:1017F0004C8923438C892343CC8923431A43028099
:10180000838B4FF2FF74234083830B8A038210BDC6
:1018100000B587B001210420FFF7BCF90121C803FE
:10182000FFF7C8F94FF4E050059002208DF818003A
:1018300000208DF81A0002208DF819008DF81B0089
:1018400005A91F48FEF7E8FF06220A211C48FFF7FA
:101850002BF806220B211A48FFF726F806220C2146
:101860001748FFF721F81748FFF74EFF0020ADF8A3
:1018700000004FF48270ADF802000020ADF80400C3
:10188000ADF80600ADF808004FF40070ADF80A009E
:101890001020ADF80C000020ADF80E000720ADF8C8
:1018A000100069460748FFF795FF00210548FFF73C
:1018B00013FF01210348FFF71BFF07B000BD000025
:1018C00000080240003C004030B500228B071C0F8E
:1018D0000F2303FA04F20B4B8C1053F8243093437C
:1018E000084C8D1044F8253023468C1053F82430D2
:1018F0008C07240F00FA04F42343024C8D1044F8A3
:10190000253030BD083801402DE9F0410546012D54
:101910007ED10027FFF7BEFD012000F0BBFBFFF7E3
:1019200077FF0120624908600A2000F0B3FB002025
:101930006049C1F884020A2000F0ACFB4D205E49EA
:101940000870052202215620FFF7F8F8092202212B
:101950005020FFF7F3F8042202213C20FFF7EEF8B5
:1019600000BF18E03A4602212020FFF7E7F80722DF
:1019700002213220FFF7E2F807EB870000F10A02AC
:1019800002212220FFF7DAF83A4602213A20FFF737
:10199000D5F8781CC7B2122FE4DB4AF6A132022137
:1019A0007020FFF7CBF8002202212020FFF7C6F8B5
:1019B000002202217220FFF7C1F80122022120201B
:1019C000FFF7BCF8102202217220FFF7B7F80222BD
:1019D00011462020FFF7B2F8202202217220FFF7E3
:1019E000ADF8032202212020FFF7A8F830220221BF
:1019F0007220FFF7A3F8314A03212A20FFF79EF84F
:101A00004FF4457202212420FFF798F80A2000E0E5
:101A100008E000F03FFB40F2473142F20F7000F067
:101A200031F900BF00240FE0002609E0A019244985
:101A300009780844234901EBC4118855701CC6B2CB
:101A4000502EF3DB601CC4B2122CEDDB1C48007876
:101A5000401C1B49087008460078962801DB0020CE
:101A6000087000240EE00120A040174909680843CF
:101A700015490860232015490855002014490855C8
:101A8000601CC4B2122CEEDBFFF7BCFD00200E4937
:101A90000860B5F57A7F04D20E4800680E4941F817
:101AA000250000200B4908600C490870BDE8F08152
:101AB00084024042000040428A170020FFFF0300DA
:101AC000D00000201E01002018000020301300204C
:101AD000421300201C0000208C2300202000002046
:101AE0000CB50020019000903448006840F480302C
:101AF0003249086000BF3148006800F400300090AF
:101B00000198401C0190009818B90198B0F5A04FB9
:101B1000F1D12A48006800F4003010B10120009093
:101B200001E0002000900098012846D12348403071
:101B3000006840F08050214940310860204800682A
:101B400040F440401E4908601C48083000681B49AA
:101B5000083108600846006840F400400860084604
:101B6000006840F4A05008601648091F0860081F6C
:101B7000006840F08070091F086000BF0F480068CF
:101B800000F000700028F9D040F205700E4908609E
:101B90000A480830006820F003000849083108604E
:101BA0000846006840F00200086000BF03480830A3
:101BB000006800F00C000828F8D10CBD0038024085
:101BC0000070004008544007003C0240042808D13F
:101BD0004FF0E021096941F004014FF0E02211616A
:101BE00007E04FF0E021096921F004014FF0E02205
:101BF0001161704710B51548006840F47000134932
:101C000008601348006840F0010011490860002096
:101C10000F49083108600E4800680E4908400C4919
:101C200008600D48091D0860081F006820F4802026
:101C3000091F0860002006490C310860FFF750FFBB
:101C40004FF0006001498039086010BD88ED00E068
:101C500000380240FFFFF6FE1030002410B50121CD
:101C6000064800F0BEF8012803D141020448FEF7FF
:101C700042FE0121014800F0A5F810BD000400401B
:101C8000000402407FB505460C4601210220FEF704
:101C900091FF0295ADF804400020ADF80600ADF8C4
:101CA0000C0001A90D4800F0B7F8012211460B48BD
:101CB00000F0A8F80121094800F087F81D208DF8F0
:101CC000000001208DF8010003208DF802000020A3
:101CD0008DF803006846FEF7C1FE7FBD000400409A
:101CE00010B501211C4800F07CF801282FD11B48B9
:101CF000006808B9012000E00020184908604FF48E
:101D00004270FFF78BFA044654B900201349091FAB
:101D10000860FFF78BF9FFF7C1FA0020104908703F
:101D2000132C01D0142C0CD10C48001F006808B9EA
:101D3000012000E000200949091F0860002008492F
:101D40000870172C03D101200449091F08600121E4
:101D5000014800F037F810BD0008004084024242FC
:101D60008C0000201FB501210420FEF723FF42F262
:101D70000F70029042F2CF00ADF804000020ADF8E1
:101D80000600ADF80C0001A90D4800F045F801224D
:101D900011460B4800F036F80121094800F015F80B
:101DA0001E208DF8000002208DF801008DF8020041
:101DB00001208DF803006846FEF750FE1FBD0000AD
:101DC00000080040CA430282704721B1028842F0F5
:101DD0000102028004E002884FF6FE731A4002807E
:101DE000704730B50246002000230024158A05EA1A
:101DF0000103958905EA010413B10CB1012000E04B
:101E0000002030BD1AB183890B43838102E08389AE
:101E10008B4383817047000000220288184B984250
:101E20000ED0184B98420BD0B0F1804F08D0164B13
:101E3000984205D0154B984202D0154B984204D1D8
:101E40004FF68F731A404B881A43124B984207D0B3
:101E5000114B984204D04FF6FF431A400B891A43A6
:101E600002804B68C3620B880385054B984202D001
:101E7000044B984201D18B7A0386012383827047F9
:101E80000000014000040140000400400008004040
:101E9000000C0040001000400014004010B540F25B
:101EA0002551204800F048F890B31E4800F06EF825
:101EB000C4B21D48007848B9102C01D0682C05D157
:101EC000012019490870002018490870184817495E
:101ED0000978445415480078401C14490870144887
:101EE0000078102806D108460078052802D1002085
:101EF0000D4908700E480078682809D10C484078D0
:101F0000801D0A490978884202D1002006490870DC
:101F10000848006808B9012000E000200549086071
:101F200010BD000000100140C8000020C9000020C2
:101F30002C330020A482404270B5024600240023C6
:101F40000025002040F66A16B14200D100BFC1F35F
:101F5000421501F01F03012606FA03F3012D02D1F9
:101F60009689334006E0022D02D1168A334001E003
:101F7000968A33400C12012606FA04F4168834407F
:101F800013B10CB1012000E0002070BD014688882B
:101F9000C0F3080070470000002001490860704746
:101FA000082C004010B50648007800F00BF8FFF749
:101FB000F3FF002401E0601CC4B2042CFBDB10BD65
:101FC000CA00002000F07F01014A11607047000044
:101FD000002C004010B504466FF00400FFF7F6FD3A
:101FE000E11704EB5171C1F3C701074A11701046A4
:101FF000007800EB4001C1EBC0104FF6FF7101EA21
:10200000C0000249088010BDCC000020CE00002096
:1020100070B504464FF4077094FBF0F0C6B24FF46D
:10202000077094FBF0F100FB114085B205E04FF41E
:10203000077000F009F8701EC6B2002EF7D115B176
:10204000284600F001F870BD0146114A12884A4343
:102050004FF0E0235A6100229A611A46126942F059
:1020600001021A6100BF4FF0E022106900F0010286
:102070001AB100F48032002AF5D04FF0E022126944
:1020800022F001024FF0E0231A6100229A617047AA
:10209000CE00002010B500230EE0002107E0002252
:1020A00001E0541CA2B2642AFBDB4C1CA1B2B1F5C6
:1020B000C87FF4DB5C1CA3B28342EEDB10BD0000E2
:1020C0001CB501214020FEF765FD4FF490600090A3
:1020D00001208DF8040000208DF8060003208DF803
:1020E000050001208DF8070069462148FEF794FBA2
:1020F00080211F48FEF7FBFB4FF480611C48FEF770
:10210000F8FB01211020FEF745FD0320009001207F
:102110008DF8040000208DF8060003208DF80500DE
:1021200001208DF8070069461248FEF775FB032170
:102130001048FEF7DCFB01210220FEF72BFD4FF4D7
:102140006070009001208DF8040000208DF80600DA
:1021500003208DF8050001208DF807006946064828
:10216000FEF75AFB4FF460710348FEF7C0FB1CBD3D
:102170000018024000100240000402404FF4A0602A
:10218000FEF7A8FCA820FFF725FFFFF799FF012025
:102190002649086000202649C1F8A80205202549E3
:1021A00008700A20FFF734FFFEF7A2F90A20FFF7B4
:1021B0002FFFFEF7A5FB00201F4908700CE01E480A
:1021C0000078800014301D491B4A127888541A4840
:1021D0000078401C18490870174800781228EEDB78
:1021E0000A20FFF715FF42F2CF0142F21070FFF70D
:1021F00049FDFEF71BFFFFF751F80A20FFF708FF24
:10220000FFF7B0FD0E480068401C0D4908600CE067
:102210000B480068FFF778FB09480068401C084934
:1022200008604FF47A70FFF7F3FEF1E79C02434237
:102230000000434221000020B00000201E130020B7
:10224000AC0000204FF04070E1EE100A7047000033
:102250007022000800000020D4000000C401000823
:1022600044230008D4000020BC390000E00100082D
:102270000000000000000000050E4CC0A801420E46
:1022800056C0A8014300000000000000000000004C
:102290000000646171690005010006060C1012154A
:1022A0000B030F4E4F50676DC8252B0319444E5A30
:1022B0000C1012150B030F4E4F50676DC8252B03E2
:1022C00019444E5A00C0A801010064090008DC014D
:1022D0000203C0A80142C0A80101FFFFFF00F204F1
:1022E00000000000000008DC010203C0A80142C099
:1022F000A80101FFFFFF0000F20400000000000041
:10230000881303000000000000000001000000002E
:1023100000000000000000000000000000000000BD
:10232000000008020101010101010802010101018F
:10233000010100000000000000007F00000000001C
:042340000000000099
:040000050800018965
:00000001FF
