:020000040800F2
:10000000103E0020290200083102000833020008D7
:10001000350200083702000839020008000000001D
:100020000000000000000000000000003B0200088B
:100030003D020008000000003F02000841020008E5
:100040006130000843020008430200084302000830
:100050004302000843020008F506000843020008B6
:10006000430200084302000843020008430200085C
:10007000430200084302000843020008430200084C
:10008000430200084302000843020008430200083C
:1000900043020008430200084302000891070008D9
:1000A000430200084302000843020008430200081C
:1000B00043020008012C0008852C000843020008B8
:1000C00043020008430200084302000843020008FC
:1000D00043020008592F00084302000843020008A9
:1000E00031070008430200084302000843020008E9
:1000F00043020008430200084302000843020008CC
:100100004302000843020008FD2D000843020008D6
:1001100043020008430200084302000843020008AB
:10012000430200084302000843020008430200089B
:10013000430200084302000843020008430200088B
:10014000430200084302000843020008430200087B
:10015000430200084302000843020008430200086B
:10016000430200084302000843020008430200085B
:10017000430200084302000843020008430200084B
:10018000430200084302000800F002F800F03CF8C7
:100190000AA090E8000C82448344AAF10107DA45E2
:1001A00001D100F031F8AFF2090EBAE80F0013F0F8
:1001B000010F18BFFB1A43F001031847403200003B
:1001C00060320000103A24BF78C878C1FAD85207CC
:1001D00024BF30C830C144BF04680C6070470000C1
:1001E0000023002400250026103A28BF78C1FBD840
:1001F000520728BF30C148BF0B6070471FB503F0DE
:10020000F7F81FBD10B510BD00F031F81146FFF72B
:10021000F5FF03F011F800F04FF803B4FFF7F2FF19
:1002200003BC00F057F80000094880470948004720
:10023000FEE7FEE7FEE7FEE7FEE7FEE7FEE7FEE796
:10024000FEE7FEE704480549054A064B70470000F3
:10025000992B00088901000810380020103E00206A
:10026000103A0020103A00207047704770477546DA
:1002700000F02CF8AE4605006946534620F0070012
:10028000854618B020B5FFF7DDFFBDE820404FF0F0
:1002900000064FF000074FF000084FF0000B21F070
:1002A0000701AC46ACE8C009ACE8C009ACE8C0093D
:1002B000ACE8C0098D46704710B50446AFF3008026
:1002C0002046BDE81040FFF7A8BF00000048704777
:1002D000B037002001491820ABBEFEE7260002001F
:1002E000704700001CB50121082001F03BF94FF4D4
:1002F0004050009001208DF8040000208DF8060089
:1003000003208DF8050001208DF807006946054897
:1003100000F0D0FA0120044908600449C1F8B40291
:100320001CBD0000000C0240B082414200804142EE
:100330000021124A11601249096821F04061104AF7
:1003400011601146096841F08061116000210D4A79
:10035000C2F8B412002001E0411CC8B21428FBDB33
:100360000121064A1160002001E0411CC8B2142896
:10037000FBDB0021014A116070470000B08241425E
:10038000000C0240008041420021104A11601049D7
:10039000096821F040610E4A11601146096841F078
:1003A00080611160002001E0411CC8B21428FBDB11
:1003B0000121064A1160002001E0411CC8B2142846
:1003C000FBDB0021014A116070470000B08241420E
:1003D000000C02401249096821F04061104A116086
:1003E0001146096841F08061116001210D4A1160D8
:1003F0000D4AC2F8B012002001E0411CC8B23228F8
:10040000FBDB0021074A1160002001E0411CC8B25B
:100410003228FBDB0021034A121F116070470000E5
:10042000000C0240B48241420080414212490968F6
:1004300021F04061104A11601146096841F0806165
:10044000116000210D4A11600D4AC2F8B01200205F
:1004500001E0411CC8B23228FBDB0121074A121F10
:100460001160074AC2F8B412002001E0411CC8B272
:100470003228FBDB70470000000C0240B48241428E
:100480000080414210B5002400231748006820F086
:10049000406015490860084600680860012013495B
:1004A000086000BF01E0581CC3B2142BFBDB012025
:1004B0000E49091F0860002301E0581CC3B2142B29
:1004C000FBDB07E0601CC4B2FA2C03DDFFF7AEFFD4
:1004D000012010BD0548803800680028F2D103498A
:1004E000091F086000BFF4E7000C0240B4824142DB
:1004F00010B5FFF7F7FE10BD70B506460C46154661
:1005000008E03046721CD6B200F007F804F8010B80
:10051000681EC5B2002DF4D170BD30B50446FFF79A
:1005200059FFA02000F04EF8FFF7ACFF204600F086
:1005300049F8FFF7A7FFFFF74DFFA12000F042F8B1
:10054000FFF7A0FF002000F005F80546FFF76EFF5B
:10055000284630BD70B505461748006820F0406059
:100560001549086008460068086000261AE0002067
:1005700012490860002301E0581CC3B2142BFBDBB6
:1005800001200E4908606006040E0D48D0F83402C0
:100590002044C4B2002301E0581CC3B2142BFBDB7F
:1005A000701CC6B2082EE2DB15B1FFF7C1FE01E0F8
:1005B000FFF7EAFE204670BD000C0240B0824142C7
:1005C0000080414210B50146194B1B6823F040637F
:1005D000174C236023461B6843F08063236000238D
:1005E000144C236000221FE0CB09124C241D236011
:1005F0004B06190E002001E0431CD8B21428FBDB87
:1006000001230C4C2360002001E0431CD8B21428C5
:10061000FBDB0023074C2360002001E0431CD8B221
:100620001428FBDB531CDAB2082ADDDB10BD000006
:10063000000C0240B082414270B506460C46FFF7FE
:10064000C9FEA020FFF7BEFFFFF71CFF3046FFF7F3
:10065000B9FFFFF717FF2046FFF7B4FFFFF712FFC0
:10066000FFF7E4FE002500E06D1C02488542FBD345
:1006700070BD000040420F0010B510214FF484708F
:1006800001F0EEF9002401E0601CC4B2142CFBDB85
:1006900005E0002401E0601CC4B2142CFBDB4FF425
:1006A000847001F06FF90028F3D1FF214FF402703C
:1006B00001F0D6F910BD10B510214FF4847001F08F
:1006C000EFFE002401E0601CC4B2142CFBDB05E04B
:1006D000002401E0601CC4B2142CFBDB4FF48470D6
:1006E00001F0BEFD0028F3D1FF214FF4027001F0AC
:1006F000D7FE10BD10B5012000F086F890B10221A0
:10070000522000F079FA84B204F0010038B10120DF
:100710000549087001F0EAFF012004490870012032
:1007200000F06CF810BD00002E0000202C0000200E
:1007300010B54FF4804000F067F828B34FF4027012
:1007400001F020F9044604F0010020B101214FF42A
:10075000027001F085F904F0040038B10B4801F093
:1007600079F804214FF4027001F07AF904F00200E4
:1007700030B102214FF4027001F072F9FFF77CFFF3
:100780004FF4804000F03AF810BD00009A160020A7
:1007900010B5202000F038F860B34FF4027001F07B
:1007A0005FFD044604F0010020B101214FF4027006
:1007B00001F076FE04F0040048B10F4801F0BAFCE5
:1007C00004214FF4027001F06BFE01F06BF904F0AC
:1007D000020020B102214FF4027001F061FE04F02A
:1007E000080020B108214FF4027001F059FE2020CA
:1007F00000F004F810BD00009A1E002001490860B6
:1008000070470000143C014001460020034A126872
:100810000A400AB1012000E000207047143C01406A
:10082000002123498279002A3AD00A4612680368D7
:100830009A430B461A600A1D126803689A430B1DFF
:100840001A60027911440A6803681A430A60184A58
:100850000832126803689A43154B08331A601A1D50
:10086000126803689A43124B0C331A604279102ABB
:100870000ED11A1F126803681A430D4B08331A6011
:100880001A1D126803681A43094B0C331A600DE0F5
:100890000749427911440A6803681A430A6005E06F
:1008A000027911440A6803689A430A60704700009D
:1008B000003C0140F0B50A4600210023002400BF9F
:1008C0003DE0012505FA01F3156805EA03049C42A1
:1008D00034D105684F000326BE40B5430560157945
:1008E0004E00B5400668354305601579012D02D0EC
:1008F0001579022D16D185684F000326BE40B543F9
:10090000856055794E00B5408668354385604568F9
:1009100001268E40B5434560456896798E40B6B253
:1009200035434560C5684F000326BE40B543C560EA
:10093000D5794E00B540C6683543C560491C1029BD
:10094000BFD3F0BDF0B5002300244D07ED0E02FA31
:1009500005F3CE1000F1200555F826504E07F70E8E
:100960000F26BE40B543CF1000F1200646F82750B1
:10097000CE1000F1200555F8265045EA0304CE10AC
:1009800000F1200545F82640F0BD41837047018302
:10099000704742694A4042617047000000B500203C
:1009A000FFF7BBFD5A4908700120FFF7B6FD594912
:1009B0000880084600884FF6FF7101EA002055497B
:1009C00008800220FFF7A9FD5249098808445149CF
:1009D0000880042250490320FFF78EFD4C49097816
:1009E000642211FB02F0C11700EB11610912A0EBA8
:1009F00001214A4AD1704649097801EB810148003A
:100A0000C11700EB11610912A0EB012111714049DE
:100A1000097801EB81014800C11700EB116109124F
:100A2000A0EB012151710720FFF777FD3C490880B9
:100A3000084600884FF6FF7101EA00203849088017
:100A40000820FFF76AFD36490988084434490880C0
:100A5000042234490920FFF74FFD2D49097801EBA5
:100A6000C10202EB0111012202EB8100C11700EB70
:100A700011610912A0EB01212B4AD1702449097898
:100A800001EB8101012202EB4100C11700EB116172
:100A90000912A0EB0121244A11711D49097801EBCB
:100AA00081014800C11700EB11610912A0EB01217F
:100AB000517104221D490D20FFF71EFD1120FFF783
:100AC0002CFD1B490880084600884FF6FF7101EA9B
:100AD0000020174908801220FFF71FFD14490988DC
:100AE0000844134908801320FFF717FD11490870C7
:100AF0001420FFF712FD1049087007220F49152036
:100B0000FFF7FAFC2020FFF708FD0D49087000BD33
:100B100000000020480000203C000020360000209B
:100B2000680000205C000020560000204F000020DC
:100B300054000020100000202D00002001000020A3
:100B40007C00002038B10849096844F221021143B1
:100B5000054A116006E00449096844F22102914304
:100B6000014A116070470000003C014070B500214F
:100B700000230F22C4781CB3174C246804F4E064EB
:100B8000C4F5E064C4F30721C1F10404E3B20A41EF
:100B900044789C40E1B28478144021430C07210E34
:100BA0000E4C05786155047804F01F050124AC4013
:100BB00005786D11AD0005F1E025C5F8004109E0AB
:100BC000047804F01F050124AC40054D0678761129
:100BD00045F8264070BD00000CED00E000E400E0A8
:100BE00080E100E002490143024A116070470000C1
:100BF0000000FA050CED00E02DE9F04106460F4635
:100C0000002400201049086006F07F06304601F0FD
:100C100005FE0546032F05D1304601F0FFFD0546D0
:100C20002C442402304601F0F9FD05462C442402F0
:100C3000304601F0F3FD05462C44012002490860CE
:100C40002046BDE8F0810000808241422DE9F0415C
:100C500005460E461446002700201149086005F09D
:100C60007F0040F08005284601F0D8FD8046032E25
:100C700005D1C4F30747384601F0D0FD8046C4F3E0
:100C80000727384601F0CAFD8046E7B2384601F032
:100C9000C5FD8046012002490860BDE8F0810000E2
:100CA000808241422DE9F04780464FF00009FD481F
:100CB000007801287ED1002484E10020FA490855FB
:100CC00000BFFA480078012875D1F948005D002876
:100CD00071D0F8480068F8490860002595E0F448AC
:100CE000005DF64901EBC5110870F5480078F3493D
:100CF00001EBC5114870F3480078F04901EBC511CC
:100D0000887000261EE0F048815DEC4800EBC512BB
:100D10007000C01C11540120B040E7490968084028
:100D200038B10121E54800EBC5127000001D1154D7
:100D300006E00021E14800EBC5127000001D1154CF
:100D4000701CC6B2122EDEDB04EB440000EB041074
:100D5000DE4951F82000401C000ED84901EBC511B6
:100D600081F8270004EB440000EB0410D74951F848
:100D70002000401C000CD14901EBC51181F828006E
:100D800004EB440000EB0410D04931F82000401C73
:100D9000000ACA4901EBC51181F8290004EB44009F
:100DA00000EB0410C94911F82000401CC34901EBB5
:100DB000C51101E009E103E181F82A00BE4800689D
:100DC000000EBE4901EBC51181F84F00BA4800681A
:100DD000000CBA4901EBC51181F85000B648006813
:100DE000000AB64901EBC51181F85100B24800680C
:100DF000B24901EBC51181F852005820B449485559
:100E00000020B4494855681CC5B2122DFFF667AFE3
:100E100001F0B6FC0020B0490860B0490870A6494E
:100E20000860AF49086007E0AD48006887B241F24A
:100E30008830874200DD03E0AA4800780028F3D01C
:100E400000BFA848007840B1A4480078012804D029
:100E5000A1480068A44921F8140009F1010000F03C
:100E6000FF09A048007888B9C1450FDA04EB4400B7
:100E700000EB0410954951F82000401C04EB44019C
:100E800001EB0411914A42F821001AE704EB4400F7
:100E900000EB04108D4951F82000401C04EB440184
:100EA00001EB0411894A42F821008E48007800289D
:100EB00074D000208A49086006E08948006887B23B
:100EC000B7F5967F00DD04E08848006888498842CD
:100ED000F3D100BF002541E00120A8408349096803
:100EE0000840C0B3002633E0824800EBC511700013
:100EF000001D085C012814D104EB440000EB041031
:100F0000724901EB8001701C51F82000401C04EB79
:100F1000440101EB04116D4A02EB8102711C42F89D
:100F20002100744800EBC51170002C30095C714839
:100F300000EBC51270002B30105C01EB002004EBBD
:100F4000C4016D4A02EB810121F81600701CC6B283
:100F5000122EC9DB04E0FFE7681CC5B2122DBBDB13
:100F600000BF00205049085500250CE00120A84092
:100F70005E490968084020B14B48005D401C4A4961
:100F80000855681CC5B2122DF0DB4748005D5B496F
:100F90000855002053490870544908600020504902
:100FA000086006E04E48006887B2B7F5FA7F00DDBA
:100FB00000E0F7E700BF4FF0000900203E4908605D
:100FC000601CC4B2072CFFF678AE364800780028C3
:100FD00066D104E035480078012800D003E041489C
:100FE00000780028F6D000BF3E480078002857D08F
:100FF00000203B49086006E03948006887B2B7F531
:10100000967F00DD04E03948006839498842F3D111
:1010100000BF0024F7E00120A040344909680840DF
:1010200000283ED0334800EBC410407834490870A3
:101030000846007822490978884276DA2D4800EB84
:10104000C41090F8270000062A4901EBC41191F85A
:10105000281000EB0140274901EBC41191F8291039
:1010600000EB0120234901EBC41191F82A1001443F
:1010700023480078401E00EB400202EB0010134AA8
:1010800042F820101E480078401E00EB400101EBA2
:101090000010114651F82000012844D1002540E0FD
:1010A00055E2AEE010000020BC0000207C000020D3
:1010B0000100002078000020240000202E040020E1
:1010C000000000202D0000202E160020100100201E
:1010D0004016002052160020240C0040080000207A
:1010E000240400402C0000202004002028000020C0
:1010F000FFFF03002E0D0020240300200900002024
:10110000140000200021FE480078401E00EB400241
:1011100002EB0010FB4A02EB8002681C42F8201030
:10112000C5B2122DEEDB43E0FFE7F74800EBC41039
:1011300090F827000006F44901EBC41191F828103B
:1011400000EB0140F04901EBC41191F8291000EBCC
:101150000120ED4901EBC41191F82A100144E8483F
:101160000078801E00EB400202EB0010E54A42F8D6
:101170002010E3480078801E00EB400101EB0010D6
:10118000114651F82000012812D100250EE000215F
:10119000DB480078401E00EB400202EB0010D94A09
:1011A00002EB8002681C42F82010C5B2122DEEDB63
:1011B000D54800EBC4108078D449087008460278FE
:1011C00002213C20FFF742FDCF4800EBC41090F80D
:1011D0004F000006CC4901EBC41191F8501000EB10
:1011E0000140C94901EBC41191F8511000EB0120F5
:1011F000C54901EBC41191F852100844C449086074
:1012000004E0601CC4B2122CFFF605AF00BF00243E
:1012100038E0224602212020FFF718FDB848007868
:10122000002814DDB6480078BA49097888420EDAF9
:1012300002214220FFF7E0FC81B2B1480078401E55
:1012400000EBC000B44A02EB800020F81410AC4858
:101250000078002814DDAA480078AE490978884251
:101260000EDD02214220FFF7C7FC81B2A4480078BE
:10127000801E00EBC000A84A02EB800020F814108A
:10128000601CC4B2122CC4DB002453E10120A04036
:10129000A2490968084030B3994800789D49097807
:1012A000884210DA96490978491E01EB410202EBA7
:1012B0000111944A02EB8102611C02EB810001687A
:1012C000491C01600FE08E490978891E01EB41023B
:1012D00002EB01118B4A02EB8102611C02EB8100DF
:1012E0000168491C0160864800788D4901EBC411F2
:1012F0000870884800788A4901EBC4114870834817
:101300000078874901EBC411887000261EE08548EB
:10131000815D834800EBC4127000C01C1154012091
:10132000B0407E490968084038B101217C4800EB93
:10133000C4127000001D115406E00021784800EB33
:10134000C4127000001D1154701CC6B2122EDEDBD8
:101350006B4800786F490978884266DA68480078F7
:10136000401E00EB400101EB0010664951F82000DF
:10137000000E6B4901EBC41181F82700604800782A
:10138000401E00EB400101EB00105E4951F82000C7
:10139000000C634901EBC41181F82800584800781B
:1013A000401E00EB400101EB0010564931F82000CF
:1013B000000A5B4901EBC41181F82900504800780C
:1013C000401E00EB400101EB00104E4911F82000D7
:1013D000534901EBC41181F82A00002522E0484856
:1013E0000078401E00EBC0004B4901EB800030F854
:1013F0001500010A4A4800EBC41268002B30115452
:101400003F480078401E00EBC000434901EB8000DC
:1014100010F81510424800EBC41268002C3011542B
:10142000681CC5B2122DDADB65E035480078801EF5
:1014300000EB400101EB0010324951F82000000E92
:10144000374901EBC41181F827002D480078801E30
:1014500000EB400101EB00102A4951F82000000C7C
:101460002F4901EBC41181F8280025480078801E1F
:1014700000EB400101EB0010224931F82000000A86
:10148000274901EBC41181F829001D480078801E0E
:1014900000EB400101EB00101A4911F8200020492F
:1014A00001EBC41181F82A00002522E014480078DD
:1014B000801E00EBC000184901EB800030F81500D9
:1014C000010A174800EBC41268002B3011540C4875
:1014D0000078801E00EBC0000F4901EB800010F87F
:1014E00015100F4800EBC41268002C301154681C12
:1014F000C5B2122DDADB58200B490855002015E043
:1015000014000020100100202E0D00202D000020CE
:1015100024000020000000202403002028000020D8
:101520002E0400202E1600204016002009490855E0
:10153000601CC4B2122CFFF6A9AE00200649086058
:101540000649087001F01CF9002005490860BDE853
:10155000F087000052160020280000202C000020F8
:101560002400002029B1064A12680243044B1A6085
:1015700004E0034A12688243014B1A60704700007E
:101580003038024029B1064A12680243044B1A60FF
:1015900004E0034A12688243014B1A60704700005E
:1015A0004038024029B1064A12680243044B1A60CF
:1015B00004E0034A12688243014B1A60704700003E
:1015C0002038024029B1064A12680243044B1A60CF
:1015D00004E0034A12688243014B1A60704700001E
:1015E0004438024029B1064A12680243044B1A608B
:1015F00004E0034A12688243014B1A6070470000FE
:101600002438024000B58BB001211020FFF7AAFF5B
:101610004FF48050099001208DF8280000208DF8AB
:101620002A0003208DF8290001208DF82B0009A93C
:101630005448FFF73FF94FF480515248FFF7A7F99C
:1016400001210220FFF78EFF01218803FFF79AFF97
:101650004FF48050099001208DF8280000208DF86B
:101660002A0003208DF8290001208DF82B0009A9FC
:101670004548FFF71FF94FF480514348FFF787F9BA
:101680004FF46040099002208DF8280000208DF86A
:101690002A0002208DF8290001208DF82B0009A9CD
:1016A0003948FFF707F905220D213748FFF74AF9B6
:1016B00005220E213448FFF745F905220F21324853
:1016C000FFF740F9314801F0DDF80020ADF80400E3
:1016D0004FF48270ADF806000020ADF80800ADF8B8
:1016E0000A00ADF80C004FF40070ADF80E000020B9
:1016F000ADF81000ADF812000720ADF8140001A9F4
:10170000224801F025F90121204801F0AFF801211C
:101710001020FFF727FF4FF48040099000208DF83C
:10172000280003208DF8290001208DF82B0009A93D
:101730001448FFF7BFF801218803FFF743FF0E218C
:10174000042001F07FF94FF48040079000208DF8CD
:1017500020000C208DF8210001208DF8220007A820
:10176000FFF75EF828208DF8180002208DF8190088
:101770008DF81A0001208DF81B0006A8FFF7F6F976
:101780000BB000BD001002400004024000380040D1
:1017900010B5FFF737FF00F015F9062224494FF482
:1017A000106000F033F9042222494FF4A06000F0E9
:1017B0002DF904222049900100F028F904221F4944
:1017C0004FF4706000F022F91D490888C11700EB42
:1017D0001161090A1B4A117019490888C11700EBE9
:1017E00011610912A0EB01215170022215494FF439
:1017F000C85000F00BF9144801784FF4D85000F0AD
:101800002FF9002411E0114A115D41F6087202EB34
:10181000441000F025F90E4A115D41F6086202EB12
:10182000441000F01DF9601CC4B2082CEBDB10BDA5
:101830003600002044000020400000203C00002032
:1018400070000020B000002072000020A2000020E4
:101850009A00002070B505460222244942F2086031
:1018600000F066F821484178007801EB002020491B
:10187000088002221D4942F6080000F059F81B4872
:101880004178007801EB002084B21949098860187A
:10189000C11700EB1161090A164A11701449098831
:1018A0006018C11700EB11610912A0EB0121517002
:1018B000002000EB042000F118060D48028829469C
:1018C000304600F035F802220A4942F6080000F0DE
:1018D0009DF840214FF4847000F0C2F800BF4FF42F
:1018E000847000F04FF80028F9D170BDB2000020DC
:1018F0004A000020B000002010B5044600BF0221BD
:101900000A4801F017F80028F9D02146074801F0ED
:101910001DF800BF0121054801F00CF80028F9D09E
:10192000024801F010F8C0B210BD000000380040BD
:101930002DE9F04104460E4617464FF480511048F9
:10194000FFF723F8C4F30740FFF7D6FFC4F30720DF
:10195000FFF7D2FF04F0F800FFF7CEFF002505E007
:101960000020FFF7C9FF7055681C85B2BD42F7DB48
:101970004FF480510248FFF70AF8BDE8F0810000FB
:101980000004024070B504464FF480510C48FEF745
:10199000FCFFC4F30740FFF7AFFFC4F30720FFF7D6
:1019A000ABFF04F0F800FFF7A7FF0020FFF7A4FF4C
:1019B00005464FF480510248FEF7E9FF284670BD06
:1019C0000004024070B54FF480510F48FEF7DDFF70
:1019D000002401E0601C84B246F2A8108442F9DBC6
:1019E0004FF480510848FEF7D2FF002409E000259B
:1019F00001E0681C85B240F6C4108542F9DB601C2A
:101A000084B2322CF3DB70BD001002402DE9F041AE
:101A100004460E4617464FF480511048FEF7B5FFB6
:101A2000C4F30740FFF768FFC4F30720FFF764FF24
:101A300004F0F801091DC8B2FFF75EFF002504E0BD
:101A4000705DFFF759FF681C85B2BD42F8DB4FF4AB
:101A500080510248FEF79BFFBDE8F0810004024080
:101A600070B504460D464FF480510D48FEF78DFFCA
:101A7000C4F30740FFF740FFC4F30720FFF73CFF24
:101A800004F0F801091DC8B2FFF736FF2846FFF73A
:101A900033FF4FF480510248FEF779FF70BD00001C
:101AA000000402402DE9F041F84800783C287DD13F
:101AB000F7480078401EF549085C3E28F7D10846F3
:101AC0004078F449097888420FD13C20F2490870E7
:101AD000F048007848703E20C8710821EE4800F0B8
:101AE00075FC0120ED4908700024E8484078EC4975
:101AF000097888420ED13C20E7490870E848007810
:101B000048703E20C8710821E34800F05FFC0020C7
:101B1000E2490870DD484078E249097888426FD18F
:101B2000DA48807800285AD1D848C078DE49087051
:101B3000002406E0201DD549085CDC490855601CDE
:101B4000C4B2072CF6DBD148C07AD94908700846E0
:101B500000781C2802DCD748D7490860D4480078B0
:101B60001C2806DDD2480078382802DCD348D24948
:101B70000860CF480078382806DDCD480078462830
:101B800002DCCF48CC490860C9480078462803DD0C
:101B900048F20820C8490860C548027802213C2064
:101BA000FFF754F8C0480178132000E06BE1FEF71E
:101BB00043FDBF4801781420FEF73EFD002408E0F5
:101BC000BA4A115D04F11502D0B2FEF735FD601C72
:101BD000C4B2072CF4DB1021AC4800F0F7FBAB4893
:101BE0008078012820D13C20AB490870AD480078AE
:101BF000487001208870AC480078C870002407E065
:101C00008FE0AA48015D201DA34A1154601CC4B294
:101C1000072CF6DBA64800789F49C8723E20C8739F
:101C200010219D4800F0D2FB98488078022878D196
:101C30003C20994908709B480078487002208870C1
:101C40009248C078C8709148C0789E490978884207
:101C500069D100250AE005EB450000EB05109A4923
:101C600051F8200000B103E0681CC5B2072DF2DB7B
:101C700000BF05EB450000EB0510934951F82060CB
:101C8000002406E0C4F10701834A5654360A601C5A
:101C9000C4B2042CF6DB002440E005EB450000EB69
:101CA0000510894901EB8001601C51F82060002774
:101CB00007E0A0000B30C01B774A1654360A781C88
:101CC000C7B2042FF5DB8148005D401CC1B204F1AE
:101CD0005000714A115405EBC5017D4A02EB8101A8
:101CE00031F81400C11700EB1161C1F30722610044
:101CF0006531694B5A5405EBC501754A02EB810108
:101D000031F81400C11700EB11610912A0EB012199
:101D1000CAB2610066315A54601CC4B2122CBCDBDA
:101D200086E08DE0FFE7002508E06048405D574908
:101D3000C978884200D103E0681CC5B2072DF4DBE6
:101D400000BF05EB450000EB05105F4951F820602E
:101D5000002406E0C4F107014F4A5654360A601CBD
:101D6000C4B2042CF6DB00241FE005EB450000EBB9
:101D70000510554901EB8001601C51F820600027D7
:101D800007E0A0000B30C01B434A1654360A781CEB
:101D9000C7B2042FF5DB4D48005D401CC1B204F111
:101DA00050003D4A1154601CC4B2122CDDDB49497D
:101DB00031F81500C11700EB1161090A364A82F8A3
:101DC0006210444931F81500C11700EB1161091286
:101DD000A0EB012182F863103F48405D114681F875
:101DE0006400002422E005EBC501394A02EB8101C1
:101DF00031F81400C11700EB1161C1F30722610033
:101E00006531254B5A5405EBC501314A02EB81017E
:101E100031F81400C11700EB11610912A0EB012188
:101E2000CAB2610066315A54601CC4B2122CDADBAB
:101E30003E20194981F88B008C21174800F0C6FA22
:101E4000124840782549097888421CD10F4880788B
:101E5000234908700846007803280BD10B48C07846
:101E600020490870094800791F49087007484079DF
:101E70001E4908701A4801782020FEF7DDFB082172
:101E8000024800F0A3FABDE8F08100009A1E00208D
:101E90006A000020AC0000209A2200206C00002084
:101EA000AD000020AE000020100000200100002046
:101EB0002D000020FFFF030078000020AA5A010037
:101EC0009224010000000020100100202E160020A6
:101ED000240300202004002009000020AF0000207F
:101EE0007C0000207E0000207F0000207D0000207C
:101EF00000B58BB001210846FFF734FB04200990A0
:101F000001208DF8280000208DF82A0003208DF88C
:101F1000290001208DF82B0009A95248FEF7CAFCC0
:101F200004215048FEF733FD01210846FFF71AFB54
:101F300001210803FFF746FB1020099001208DF8CE
:101F4000280000208DF82A0003208DF829000120A8
:101F50008DF82B0009A94348FEF7ACFC102141483D
:101F6000FEF715FDE020099002208DF828000020E2
:101F70008DF82A0002208DF8290001208DF82B0011
:101F800009A93848FEF796FC052211463548FEF7A8
:101F9000D9FC052206213348FEF7D4FC052207218F
:101FA0003048FEF7CFFC304800F06CFC0020ADF864
:101FB00004004FF48270ADF806000020ADF8080070
:101FC000ADF80A00ADF80C004FF40070ADF80E004B
:101FD0000020ADF81000ADF812000720ADF8140095
:101FE00001A9214800F0B4FC01211F4800F03EFC8B
:101FF00001210420FFF7B6FA2020099000208DF877
:10200000280003208DF8290001208DF82B0009A954
:102010001648FEF74FFC01218803FFF7D3FA05218C
:10202000022000F00FFD2020079000208DF82000F6
:102030000C208DF8210001208DF8220007A8FEF762
:10204000EFFB17208DF8180002208DF819008DF88D
:102050001A0001208DF81B0006A8FEF787FD0BB0C3
:1020600000BD0000000002400030014000080240B6
:1020700010B5FFF73DFF00F011F9062224494FF497
:10208000106000F0E5F9042222494FF4A06000F04E
:10209000DFF904222049900100F0DAF904221F49F7
:1020A0004FF4706000F0D4F91D490888C11700EBA7
:1020B0001161090A1B4A117019490888C11700EB00
:1020C00011610912A0EB01215170022215494FF450
:1020D000C85000F0BDF9144801784FF4D85000F012
:1020E000DFF9002411E0114A115D41F6087202EB9C
:1020F000441000F0D5F90E4A115D41F6086202EB7A
:10210000441000F0CDF9601CC4B2082CEBDB10BD0C
:102110005600002064000020600000205C000020C9
:1021200070000020B000002072000020A2000020FB
:102130009A00002070B505460222244942F2086048
:1021400000F066F821484178007801EB0020204932
:10215000087002221D4942F6080000F059F81B4899
:102160004178007801EB002084B2194909786018A1
:10217000C11700EB1161090A164A11701449097858
:102180006018C11700EB11610912A0EB0121517019
:10219000002000EB042000F118060D4802782946C3
:1021A000304600F035F802220A4942F6080000F0F5
:1021B0004FF940214FF4847000F072F900BF4FF4E2
:1021C000847000F04DF80028F9D170BDB2000020F5
:1021D0006A000020B000002010B5044600BF0221B4
:1021E0000A4800F0A7FB0028F9D02146074800F074
:1021F000ADFB00BF0121054800F09CFB0028F9D091
:10220000024800F0A0FBC0B210BD00000030014049
:102210002DE9F04104460E46174610210F48FEF7FF
:10222000B4FBC4F30740FFF7D7FFC4F30720FFF761
:10223000D3FF04F0F800FFF7CFFF002505E00020F2
:10224000FFF7CAFF7055681C85B2BD42F7DB10214D
:102250000248FEF79CFBBDE8F08100000000024050
:1022600070B5044610210C48FEF78FFBC4F30740FD
:10227000FFF7B2FFC4F30720FFF7AEFF04F0F8004A
:10228000FFF7AAFF0020FFF7A7FF0546102102482D
:10229000FEF77DFB284670BD0000024070B50421AA
:1022A0000E48FEF772FB002401E0601C84B246F287
:1022B000A8108442F9DB04210848FEF768FB0024DB
:1022C00009E0002501E0681C85B240F6C410854293
:1022D000F9DB601C84B2322CF3DB70BD00000240DD
:1022E00070B5002501214FF4C05000F0D9F80F213E
:1022F00042F6084000F0D4F8FEF7DDF9212108206D
:1023000000F0CEF82F490888C11700EB1161090AC7
:102310002D4A11702B490888C11700EB1161091271
:10232000A0EB01215170022227494FF4816000F097
:102330008FF8012142F6087000F0B2F800BF0121C9
:102340004FF4847000F0ACF8002401E0601CC4B2CB
:10235000142CFBDB05E0002401E0601CC4B2142C4B
:10236000FBDB4FF48470FFF77BFF0028F3D14FF4C1
:102370004270FFF775FF13280AD0681CC5B20A2DFA
:1023800002DAFEF798F9DAE7FEF795F9002070BD5A
:1023900002214FF4847000F083F8002401E0601CF7
:1023A000C4B2142CFBDB05E0002401E0601CC4B2C5
:1023B000142CFBDB4FF48470FFF752FF0028F3D19D
:1023C0000120E4E768000020B00000202DE9F04182
:1023D00006460D4602221C4942F20840FFF718FF4C
:1023E00019484178007801EB002084B2002000EB0E
:1023F000042000F110072A463146384600F028F83C
:10240000601984B22046E11704EB1161090A0F4AF2
:102410001170E11704EB11610912A4EB0121517055
:1024200002220A4942F2084000F012F820214FF43B
:10243000847000F035F800BF4FF48470FFF710FF90
:102440000028F9D1BDE8F081B2000020B0000020E2
:102450002DE9F04104460E46174610210F48FEF7BD
:1024600094FAC4F30740FFF7B7FEC4F30720FFF761
:10247000B3FE04F0F801091DC8B2FFF7ADFE002558
:1024800004E0705DFFF7A8FE681C85B2BD42F8DB72
:1024900010210248FEF77BFABDE8F08100000240FF
:1024A00070B504460D4610210C48FEF76EFAC4F3D1
:1024B0000740FFF791FEC4F30720FFF78DFE04F0FD
:1024C000F801091DC8B2FFF787FE2846FFF784FE12
:1024D00010210248FEF75BFA70BD000000000240C8
:1024E00000B585B001210820FFF73CF801200390DA
:1024F0008DF8100000208DF8120003208DF81100D7
:1025000001208DF8130003A92C48FEF7D3F901210F
:102510002A48FEF73CFA01210846FFF723F802207B
:10252000039001208DF8100000208DF81200032088
:102530008DF8110001208DF8130003A92048FEF743
:10254000B9F902211E48FEF722FA01210846FFF7D9
:1025500009F80120039000208DF8100003208DF869
:10256000110001208DF8130003A91548FEF7A2F908
:1025700001218803FFF726F80021084600F062FADF
:102580000120009000208DF804000C208DF805003B
:1025900001208DF806006846FEF742F906208DF806
:1025A000080002208DF809008DF80A0001208DF83E
:1025B0000B0002A8FEF7DAFA05B000BD000C0240DD
:1025C0000000024010B50024FFF78AFF012000F050
:1025D000BFFD00F0DBF901203E4908600A2000F051
:1025E000B7FD00203C49C1F884020A2000F0B0FD8C
:1025F00040F2051202215620FEF728FB37480278E8
:1026000002216020FEF722FBFF2202216820FEF754
:102610001DFB012202215020FEF718FB30480278F2
:1026200002213C20FEF712FB00BF16E022460221E9
:102630002020FEF70BFB072202213220FEF706FBCB
:102640002848025D02212220FEF700FB22460221DB
:102650003A20FEF7FBFA601CC4B2122CE6DB4AF605
:10266000A13202217020FEF7F1FA0022022120207F
:10267000FEF7ECFA002202217220FEF7E7FA0122AF
:1026800002212020FEF7E2FA102202217220FEF73A
:10269000DDFA022211462020FEF7D8FA202202217C
:1026A0007220FEF7D3FA032202212020FEF7CEFA91
:1026B000302202217220FEF7C9FA0B4A03212A2098
:1026C000FEF7C4FA4FF4447202212420FEF7BEFA4A
:1026D00010BD000084024042000040420000002083
:1026E0002D0000202E160020FFFF03002DE9F041F1
:1026F00003214020FEF780FA8046002431E00120CB
:10270000A04000EA080050B30120A0401849096821
:10271000084317490860224602212020FEF796FA56
:1027200002212620FEF768FA054605F48070B0B154
:10273000EFB200200F490860482000F06FF8002633
:1027400008E0AA2000F06AF80B4901EBC411885593
:10275000701CC6B2BE42F4DB012006490860601C52
:10276000C4B2122CCBDB002004490870BDE8F08114
:1027700028000020808241422E0D00202E000020E3
:1027800070B50020FEF7DEF900242DE00120A04006
:102790001D490968084028B3224602212020FEF77F
:1027A00055FA1A48005D1A49095D40EA01220221E2
:1027B0002620FEF74BFA002016490860B42000F0EE
:1027C0002DF8002507E0144901EBC411485D00F025
:1027D00025F8681CC5B20D48005DA842F3DC012055
:1027E0000C490860601CC4B2122CCFDB064802689A
:1027F00003213620FEF72AFA0120FEF7A3F9002074
:102800000149086070BD000024000020401600202F
:1028100052160020808241422E04002010B504464A
:1028200000BF02210A4800F085F80028F9D02146AF
:10283000074800F08BF800BF0121054800F07AF846
:102840000028F9D0024800F07EF8C0B210BD0000A8
:10285000003C004021B1028842F40052028004E0B2
:1028600002884DF6FF731A400280704721B102883A
:1028700042F04002028004E002884FF6BF731A4023
:102880000280704710B504462448844208D10121D3
:102890008014FEF7A7FE0021A014FEF7A3FE3CE083
:1028A0001F48844208D101210014FEF77BFE00215D
:1028B0002014FEF777FE30E01A48844208D1012147
:1028C000C013FEF76FFE0021E013FEF76BFE24E05D
:1028D0001548844208D101214014FEF783FE0021EF
:1028E0006014FEF77FFE18E01048844209D10121F0
:1028F0000805FEF777FE00214FF48010FEF772FE08
:102900000BE00B48844208D101214805FEF76AFE1E
:1029100000214FF40010FEF765FE10BD00300140AD
:1029200000380040003C00400034014000500140AD
:10293000005401400246002013890B400BB10120D6
:1029400000E0002070470146888970478181704708
:1029500010B50022028802F441520B884C882343B0
:102960008C882343CC8823430C8923434C892343FD
:102970008C892343CC8923431A430280838B4FF2F3
:10298000FF74234083830B8A038210BD00B587B098
:1029900001210420FEF7E6FD0121C803FEF7F2FD48
:1029A0004FF4E050059002208DF8180000208DF8BB
:1029B0001A0002208DF819008DF81B0005A91F4888
:1029C000FDF778FF06220A211C48FDF7BBFF06220F
:1029D0000B211A48FDF7B6FF06220C211748FDF718
:1029E000B1FF1748FFF74EFF0020ADF800004FF48D
:1029F0008270ADF802000020ADF80400ADF80600CA
:102A0000ADF808004FF40070ADF80A001020ADF8E2
:102A10000C000020ADF80E000720ADF8100069464C
:102A20000748FFF795FF00210548FFF713FF012135
:102A30000348FFF71BFF07B000BD0000000802407D
:102A4000003C004030B500228B071C0F0F2303FA17
:102A500004F20B4B8C1053F824309343084C8D1028
:102A600044F8253023468C1053F824308C07240F6B
:102A700000FA04F42343024C8D1044F8253030BD95
:102A8000083801400CB500200190009034480068DF
:102A900040F480303249086000BF3148006800F4DB
:102AA000003000900198401C0190009818B90198DE
:102AB000B0F5A04FF1D12A48006800F4003010B101
:102AC0000120009001E0002000900098012846D1EC
:102AD00023484030006840F0805021494031086070
:102AE0002048006840F440401E4908601C480830F7
:102AF00000681B49083108600846006840F400403F
:102B000008600846006840F4A05008601648091F95
:102B10000860081F006840F08070091F086000BF4F
:102B20000F48006800F000700028F9D040F20570EE
:102B30000E4908600A480830006820F00300084980
:102B4000083108600846006840F00200086000BFD5
:102B500003480830006800F00C000828F8D10CBDCC
:102B6000003802400070004008544007003C02401A
:102B7000042808D14FF0E021096941F004014FF029
:102B8000E022116107E04FF0E021096921F0040122
:102B90004FF0E0221161704710B51548006840F40D
:102BA0007000134908601348006840F001001149A3
:102BB000086000200F49083108600E4800680E497F
:102BC00008400C4908600D48091D0860081F00688E
:102BD00020F48020091F0860002006490C3108609D
:102BE000FFF750FF4FF0006001498039086010BDC9
:102BF00088ED00E000380240FFFFF6FE10300024B0
:102C000010B50121064800F04AF9012803D141021C
:102C10000448FDF7BEFE0121014800F031F910BD66
:102C200000040040000402407FB505460C46012127
:102C30000220FEF7A7FC0295ADF804400020ADF895
:102C40000600ADF80C0001A90D4800F043F901227F
:102C500011460B4800F034F90121094800F013F93E
:102C60001D208DF8000001208DF8010003208DF853
:102C7000020000208DF803006846FDF777FF7FBD56
:102C8000000400402DE9F04101213D4800F007F922
:102C9000012872D13B48006808B9012000E00020FB
:102CA0003849086003214020FDF7A6FF064646B1DB
:102CB0003548007828B9002701E0781CC7B2C82F32
:102CC000FBDB8EB13048007870B9FFF70FFD0020B4
:102CD0002E490860FFF776FC2D48006808B90120EE
:102CE00000E000202A4908604FF44270FEF74AFED7
:102CF00005464FF44270FFF7B3FA04460CB11C2CA2
:102D00000AD100201F49091F0860FFF7B1F9FFF73A
:102D1000E7FA00201F490870132C01D0142C02D1AF
:102D200000201C490870172C04D101201549091FE7
:102D3000086003E000201349091F08600DB11C2D35
:102D400005D100201249091F086013490870132D8E
:102D500001D0142D02D100200F490870172D04D185
:102D600001200B49091F086003E000200849091FE2
:102D700008600121024800F083F8BDE8F0810000FE
:102D800000080040840242422E000020280000205B
:102D9000A08240426C0000204C0000201FB50121A1
:102DA0000420FEF7EFFB42F20F70029042F2CF00D8
:102DB000ADF804000020ADF80600ADF80C0001A944
:102DC0000D4800F087F8012211460B4800F078F812
:102DD0000121094800F057F81E208DF8000002205C
:102DE0008DF801008DF8020001208DF8030068467F
:102DF000FDF7BCFE1FBD00000008004010B501211A
:102E0000054800F04CF8012805D10449087001215B
:102E1000014800F035F810BD000C0040080000200B
:102E20001FB501210820FEF7ADFB41F26F70029043
:102E300042F2CF00ADF804000020ADF80600ADF876
:102E40000C0001A90D4800F045F8012211460B487D
:102E500000F036F80121094800F015F832208DF80D
:102E6000000002208DF801008DF8020001208DF88D
:102E700003006846FDF77AFE1FBD0000000C00400D
:102E8000CA430282704721B1028842F001020280E7
:102E900004E002884FF6FE731A400280704730B596
:102EA0000246002000230024158A05EA01039589C3
:102EB00005EA010413B10CB1012000E0002030BD8F
:102EC0001AB183890B43838102E083898B43838119
:102ED0007047000000220288184B98420ED0184B11
:102EE00098420BD0B0F1804F08D0164B984205D0D5
:102EF000154B984202D0154B984204D14FF68F7370
:102F00001A404B881A43124B984207D0114B9842F3
:102F100004D04FF6FF431A400B891A4302804B68D6
:102F2000C3620B880385054B984202D0044B98423C
:102F300001D18B7A03860123838270470000014010
:102F4000000401400004004000080040000C004064
:102F5000001000400014004010B540F225512048F8
:102F600000F048F890B31E4800F06EF8C4B21D4857
:102F7000007848B9102C01D0682C05D101201949DE
:102F800008700020184908701848174909784454F7
:102F900015480078401C144908701448007810281F
:102FA00006D108460078052802D100200D49087096
:102FB0000E480078682809D10C484078801D0A49DD
:102FC0000978884202D10020064908700848006844
:102FD00008B9012000E000200549086010BD00008C
:102FE00000100140B4000020B5000020B0360020E1
:102FF000A482404270B50246002400230025002030
:1030000040F66A16B14200D100BFC1F3421501F08B
:103010001F03012606FA03F3012D02D196893340DE
:1030200006E0022D02D1168A334001E0968A334031
:103030000C12012606FA04F41688344013B10CB1C0
:10304000012000E0002070BD01468888C0F3080020
:10305000704700000020014908607047082C0040BC
:1030600010B50648007800F00BF8FFF7F3FF0024D6
:1030700001E0601CC4B2042CFBDB10BDB6000020D4
:1030800000F07F01014A116070470000002C0040F1
:1030900010B504466FF00400FFF76AFDE11704EB7A
:1030A0005171C1F3C701074A11701046007800EB57
:1030B0004001C1EBC0104FF6FF7101EAC0000249A8
:1030C000088010BDB8000020BA00002070B504468A
:1030D0004FF4077094FBF0F0C6B24FF4077094FB06
:1030E000F0F100FB114085B205E04FF4077000F0ED
:1030F00009F8701EC6B2002EF7D115B1284600F0AF
:1031000001F870BD0146114A12884A434FF0E0238E
:103110005A6100229A611A46126942F001021A614C
:1031200000BF4FF0E022106900F001021AB100F474
:103130008032002AF5D04FF0E022126922F001021D
:103140004FF0E0231A6100229A617047BA00002014
:1031500010B500230EE0002107E0002201E0541C1E
:10316000A2B2642AFBDB4C1CA1B2B1F5C87FF4DB30
:103170005C1CA3B28342EEDB10BD00001CB5012134
:103180004020FEF7EFF94FF49060009001208DF899
:10319000040000208DF8060003208DF805000120B2
:1031A0008DF8070069462148FDF784FB80211F4800
:1031B000FDF7EBFB4FF480611C48FDF7E8FB0121B4
:1031C0001020FEF7CFF90320009001208DF80400B5
:1031D00000208DF8060003208DF8050001208DF8F1
:1031E000070069461248FDF765FB03211048FDF70B
:1031F000CCFB01210220FEF7B5F94FF4607000907E
:1032000001208DF8040000208DF8060003208DF8C1
:10321000050001208DF8070069460648FDF74AFBC6
:103220004FF460710348FDF7B0FB1CBD001802406D
:1032300000100240000402404FF4A060FDF7D2FCF1
:10324000A820FFF725FFFFF799FF012058490860E4
:1032500000205849C1F8A8020520574908700A20E3
:10326000FFF734FFFDF744F90A20FFF72FFFFDF7C2
:1032700095FB514800781C2802DC504850490860F2
:103280004D4800781C2806DD4B480078382802DCC1
:103290004C484B49086048480078382806DD4648C5
:1032A0000078462802DC48484549086042480078D2
:1032B000462803DD48F208204149086000204349C0
:1032C00008700DE04148007800EB40002330404991
:1032D0003E4A127888543D480078401C3B490870AB
:1032E0003A4800781228EDDB0020384908701FE0CA
:1032F00000203849088012E000203449097801EBA9
:10330000410202EB0111344A02EB8101314A128879
:1033100041F822002F480088401C2E4908802D4883
:1033200000881328E8DB29480078401C27490870EA
:10333000264800780728DBDB002028490870FFF7C3
:1033400041F90A20FFF7C2FE42F2CF0142F21070AB
:10335000FFF76AFCC02022490870A82048700120AD
:1033600088704720C87040F67E601E490880FEF7CE
:103370007FFEFEF7B5FF0A20FFF7A8FEFEF708FA6A
:10338000FFF70CFDFFF74CFD17480068401C16497D
:1033900008600CE015480078012802D0032805D108
:1033A00003E00320FDF77EFC00E000BF00BFF1E773
:1033B0009C024342000043422D000020FFFF030017
:1033C00078000020AA5A01009224010098000020F1
:1033D0002E1600208C000020100100200800002084
:1033E0004F00002054000020940000207C000020AA
:1033F0004FF04070E1EE100A704700001C340008E6
:1034000000000020C4000000C4010008E0340008EF
:10341000C40000204C3D0000E00100080000000056
:10342000000000000000000000000000000000009C
:1034300000050E4CC0A801420E56C0A80143000072
:10344000000000000000000000000000C0A8010112
:1034500064090008DC010203C0A80142C0A8010100
:10346000FFFFFF00F2040000000000C0A8014200BE
:1034700000000008DC010203C0A80142C0A801014D
:10348000FFFFFF00F20400000000000088130300AB
:10349000000000000000000000000000000000012B
:1034A000000000000000000000000000000000001C
:1034B00000000000000008020101010101010802F2
:1034C00001010101010100000001020300000000F0
:1034D00000007F000000000000000000000000006D
:040000050800018965
:00000001FF
