:020000040800F2
:10000000A03A00202902000831020008330200084B
:10001000350200083702000839020008000000001D
:100020000000000000000000000000003B0200088B
:100030003D020008000000003F02000841020008E5
:100040000D22000843020008430200084302000892
:100050004302000843020008F506000843020008B6
:10006000430200084302000843020008430200085C
:10007000430200084302000843020008430200084C
:10008000430200084302000843020008430200083C
:1000900043020008430200084302000885070008E5
:1000A000430200084302000843020008430200081C
:1000B00043020008C51E0008491F0008430200084B
:1000C00043020008430200084302000843020008FC
:1000D000430200080521000843020008430200080B
:1000E00025070008430200084302000843020008F5
:1000F00043020008430200084302000843020008CC
:1001000043020008430200084302000843020008BB
:1001100043020008430200084302000843020008AB
:10012000430200084302000843020008430200089B
:10013000430200084302000843020008430200088B
:10014000430200084302000843020008430200087B
:10015000430200084302000843020008430200086B
:10016000430200084302000843020008430200085B
:10017000430200084302000843020008430200084B
:10018000430200084302000800F002F800F03CF8C7
:100190000AA090E8000C82448344AAF10107DA45E2
:1001A00001D100F031F8AFF2090EBAE80F0013F0F8
:1001B000010F18BFFB1A43F001031847102300007A
:1001C00030230000103A24BF78C878C1FAD852070B
:1001D00024BF30C830C144BF04680C6070470000C1
:1001E0000023002400250026103A28BF78C1FBD840
:1001F000520728BF30C148BF0B6070471FB502F0DF
:100200005FF91FBD10B510BD00F031F81146FFF7C2
:10021000F5FF02F0E7F800F04FF803B4FFF7F2FF44
:1002200003BC00F057F80000094880470948004720
:10023000FEE7FEE7FEE7FEE7FEE7FEE7FEE7FEE796
:10024000FEE7FEE704480549054A064B70470000F3
:100250005D1E000889010008A0340020A03A00209B
:10026000A0360020A03600207047704770477546C2
:1002700000F02CF8AE4605006946534620F0070012
:10028000854618B020B5FFF7DDFFBDE820404FF0F0
:1002900000064FF000074FF000084FF0000B21F070
:1002A0000701AC46ACE8C009ACE8C009ACE8C0093D
:1002B000ACE8C0098D46704710B50446AFF3008026
:1002C0002046BDE81040FFF7A8BF00000048704777
:1002D0003C34002001491820ABBEFEE72600020096
:1002E000704700001CB50121082000F071FD4FF49B
:1002F0004050009001208DF8040000208DF8060089
:1003000003208DF8050001208DF807006946054897
:1003100000F0C2FA0120044908600449C1F8B4029F
:100320001CBD0000000C0240B082414200804142EE
:100330000021124A11601249096821F04061104AF7
:1003400011601146096841F08061116000210D4A79
:10035000C2F8B412002001E0411CC8B21428FBDB33
:100360000121064A1160002001E0411CC8B2142896
:10037000FBDB0021014A116070470000B08241425E
:10038000000C0240008041420021104A11601049D7
:10039000096821F040610E4A11601146096841F078
:1003A00080611160002001E0411CC8B21428FBDB11
:1003B0000121064A1160002001E0411CC8B2142846
:1003C000FBDB0021014A116070470000B08241420E
:1003D000000C02401249096821F04061104A116086
:1003E0001146096841F08061116001210D4A1160D8
:1003F0000D4AC2F8B012002001E0411CC8B23228F8
:10040000FBDB0021074A1160002001E0411CC8B25B
:100410003228FBDB0021034A121F116070470000E5
:10042000000C0240B48241420080414212490968F6
:1004300021F04061104A11601146096841F0806165
:10044000116000210D4A11600D4AC2F8B01200205F
:1004500001E0411CC8B23228FBDB0121074A121F10
:100460001160074AC2F8B412002001E0411CC8B272
:100470003228FBDB70470000000C0240B48241428E
:100480000080414210B5002400231748006820F086
:10049000406015490860084600680860012013495B
:1004A000086000BF01E0581CC3B2142BFBDB012025
:1004B0000E49091F0860002301E0581CC3B2142B29
:1004C000FBDB07E0601CC4B2FA2C03DDFFF7AEFFD4
:1004D000012010BD0548803800680028F2D103498A
:1004E000091F086000BFF4E7000C0240B4824142DB
:1004F00010B5FFF7F7FE10BD70B506460C46154661
:1005000008E03046721CD6B200F007F804F8010B80
:10051000681EC5B2002DF4D170BD30B50446FFF79A
:1005200059FFA02000F04EF8FFF7ACFF204600F086
:1005300049F8FFF7A7FFFFF74DFFA12000F042F8B1
:10054000FFF7A0FF002000F005F80546FFF76EFF5B
:10055000284630BD70B505461748006820F0406059
:100560001549086008460068086000261AE0002067
:1005700012490860002301E0581CC3B2142BFBDBB6
:1005800001200E4908606006040E0D48D0F83402C0
:100590002044C4B2002301E0581CC3B2142BFBDB7F
:1005A000701CC6B2082EE2DB15B1FFF7C1FE01E0F8
:1005B000FFF7EAFE204670BD000C0240B0824142C7
:1005C0000080414210B50146194B1B6823F040637F
:1005D000174C236023461B6843F08063236000238D
:1005E000144C236000221FE0CB09124C241D236011
:1005F0004B06190E002001E0431CD8B21428FBDB87
:1006000001230C4C2360002001E0431CD8B21428C5
:10061000FBDB0023074C2360002001E0431CD8B221
:100620001428FBDB531CDAB2082ADDDB10BD000006
:10063000000C0240B082414270B506460C46FFF7FE
:10064000C9FEA020FFF7BEFFFFF71CFF3046FFF7F3
:10065000B9FFFFF717FF2046FFF7B4FFFFF712FFC0
:10066000FFF7E4FE002500E06D1C02488542FBD345
:1006700070BD000040420F0010B510214FF484708F
:1006800000F0D8FC002401E0601CC4B2142CFBDB99
:1006900005E0002401E0601CC4B2142CFBDB4FF425
:1006A000847000F07DFC0028F3D1FF214FF402702C
:1006B00000F0C0FC10BD10B510214FF4847001F0A3
:1006C00055F8002401E0601CC4B2142CFBDB05E0EB
:1006D000002401E0601CC4B2142CFBDB4FF48470D6
:1006E00000F028FF0028F3D1FF214FF4027001F041
:1006F0003DF810BD10B5012000F078F878B1022166
:10070000522000F00FFB84B204F0010020B101F090
:1007100053F9012002490870012000F061F810BD72
:100720002400002010B54FF4804000F05FF828B39B
:100730004FF4027000F034FC044604F0010020B1D4
:1007400001214FF4027000F075FC04F0040038B190
:100750000B4800F08DFB04214FF4027000F06AFC9E
:1007600004F0020030B102214FF4027000F062FC8C
:10077000FFF782FF4FF4804000F032F810BD000018
:100780009A13002010B5202000F030F820B34FF469
:10079000027000F0CFFE044604F0010020B10121F8
:1007A0004FF4027000F0E2FF04F0040048B10B487F
:1007B00000F02AFE04214FF4027000F0D7FF00F091
:1007C0005BFC04F0020020B102214FF4027000F043
:1007D000CDFF202000F004F810BD00009A1B00207F
:1007E0000149086070470000143C014001460020A8
:1007F000034A12680A400AB1012000E00020704755
:10080000143C0140002123498279002A3AD00A464B
:10081000126803689A430B461A600A1D126803683F
:100820009A430B1D1A60027911440A6803681A433F
:100830000A60184A0832126803689A43154B083355
:100840001A601A1D126803689A43124B0C331A601F
:100850004279102A0ED11A1F126803681A430D4BF1
:1008600008331A601A1D126803681A43094B0C33C7
:100870001A600DE00749427911440A6803681A4377
:100880000A6005E0027911440A6803689A430A6025
:1008900070470000003C0140F0B50A4600210023EB
:1008A000002400BF3DE0012505FA01F3156805EAC3
:1008B00003049C4234D105684F000326BE40B54373
:1008C000056015794E00B540066835430560157919
:1008D000012D02D01579022D16D185684F0003260F
:1008E000BE40B543856055794E00B54086683543B6
:1008F0008560456801268E40B54345604568967918
:100900008E40B6B235434560C5684F000326BE40F1
:10091000B543C560D5794E00B540C6683543C5605E
:10092000491C1029BFD3F0BDF0B5002300244D07AA
:10093000ED0E02FA05F3CE1000F1200555F8265011
:100940004E07F70E0F26BE40B543CF1000F120062C
:1009500046F82750CE1000F1200555F8265045EAFC
:100960000304CE1000F1200545F82640F0BD418378
:1009700070470183704742694A40426170470000F6
:1009800000B50020FFF7C9FD584908700120FFF7A6
:10099000C4FD57490880084600884FF6FF7101EAF8
:1009A0000020534908800220FFF7B7FD504909880D
:1009B00008444F49088004224E490320FFF79CFD5C
:1009C0004A490978642211FB02F0C11700EB11615A
:1009D0000912A0EB0121484AD1704449097801EB82
:1009E00081014800C11700EB11610912A0EB012140
:1009F00011713E49097801EB81014800C11700EBF4
:100A000011610912A0EB012151710720FFF785FD4B
:100A10003A490880084600884FF6FF7101EA002035
:100A2000364908800820FFF778FD344909880844D2
:100A300032490880042232490920FFF75DFD2B4925
:100A4000097801EBC10202EB0111012202EB8100E6
:100A5000C11700EB11610912A0EB0121294AD170E5
:100A60002249097801EB8101012202EB4100C11703
:100A700000EB11610912A0EB0121224A11711B49FF
:100A8000097801EB81014800C11700EB11610912DF
:100A9000A0EB0121517104221B490D20FFF72CFD11
:100AA0001120FFF73AFD19490880084600884FF6E3
:100AB000FF7101EA0020154908801220FFF72DFD83
:100AC000124909880844114908801320FFF725FDC1
:100AD0000F4908701420FFF720FD0E490870072207
:100AE0000D491520FFF708FD00BD000000000020A3
:100AF00072000020660000206000002092000020AC
:100B00008600002080000020790000207E00002068
:100B100008000020250000200100002038B108490D
:100B2000096844F221021143054A116006E00449B4
:100B3000096844F221029143014A116070470000A4
:100B4000003C014070B5002100230F22C4781CB383
:100B5000174C246804F4E064C4F5E064C4F307218E
:100B6000C1F10404E3B20A4144789C40E1B28478C4
:100B7000144021430C07210E0E4C05786155047872
:100B800004F01F050124AC4005786D11AD0005F19E
:100B9000E025C5F8004109E0047804F01F050124B0
:100BA000AC40054D0678761145F8264070BD000032
:100BB0000CED00E000E400E080E100E002490143C8
:100BC000024A1160704700000000FA050CED00E0D9
:100BD0002DE9F04107464648007806283FD1002419
:100BE00014E00720434901EBC4110870012509E016
:100BF00060194149097808443E4901EBC411485540
:100C0000681CC5B2502DF3DB601CC4B2122CE8DBAB
:100C100039480078401C3849087008460078962802
:100C200001DB0020087000240EE00120A0403349C1
:100C300009680843314908602320314908550020DC
:100C400030490855601CC4B2122CEEDB00F0FAFEED
:100C500000202A4908604FF4FA7001F00DFB244887
:100C60000078072841D12848007801283DD100208C
:100C70002649086006E02548066840F6B8308642F6
:100C800000D904E02248006822498842F3D100BF1D
:100C90001F48006800240DE022460221202000F0B9
:100CA0006BF80221422000F03DF81B4921F81400A6
:100CB000601CC4B2122CEFDB1548006817490E4ABD
:100CC000127841F822000C480078401C0A4908704C
:100CD00000200F4908600C4908701148006808B9E5
:100CE000012000E000200E490860BDE8F08100000E
:100CF000000000202E010020E00000201C00002049
:100D0000401300205213002024000020240400403F
:100D100020000020FFFF0300641300209C2300201C
:100D2000A48240422DE9F04106460F4600240020EF
:100D30001049086006F07F06304600F0D1FE0546F7
:100D4000032F05D1304600F0CBFE05462C4424028B
:100D5000304600F0C5FE05462C442402304600F023
:100D6000BFFE05462C440120024908602046BDE82C
:100D7000F0810000808241422DE9F04105460E4697
:100D80001446002700201149086005F07F0040F05C
:100D90008005284600F0A4FE8046032E05D1C4F34A
:100DA0000747384600F09CFE8046C4F307273846C4
:100DB00000F096FE8046E7B2384600F091FE80468D
:100DC000012002490860BDE8F081000080824142B4
:100DD00029B1064A12680243044B1A6004E0034A30
:100DE00012688243014B1A6070470000303802409D
:100DF00029B1064A12680243044B1A6004E0034A10
:100E000012688243014B1A6070470000403802406C
:100E100029B1064A12680243044B1A6004E0034AEF
:100E200012688243014B1A6070470000203802406C
:100E300029B1064A12680243044B1A6004E0034ACF
:100E400012688243014B1A60704700004438024028
:100E500029B1064A12680243044B1A6004E0034AAF
:100E600012688243014B1A60704700002438024028
:100E700070B505460222244942F2086000F066F887
:100E800021484178007801EB0020204908800222A7
:100E90001D4942F6080000F059F81B4841780078D7
:100EA00001EB002084B2194909886018C11700EBD2
:100EB0001161090A164A1170144909886018C1178E
:100EC00000EB11610912A0EB01215170002000EB31
:100ED000042000F118060D4802882946304600F02B
:100EE00035F802220A4942F6080000F079F840215C
:100EF0004FF4847000F09EF800BF4FF4847000F04F
:100F00004FF80028F9D170BDD600002074000020F1
:100F1000D400002010B5044600BF02210A4800F0AA
:100F20006BFE0028F9D02146074800F071FE00BF93
:100F30000121054800F060FE0028F9D0024800F0C9
:100F400064FEC0B210BD0000003800402DE9F04141
:100F500004460E4617464FF480511048FFF707FD30
:100F6000C4F30740FFF7D6FFC4F30720FFF7D2FF13
:100F700004F0F800FFF7CEFF002505E00020FFF7A2
:100F8000C9FF7055681C85B2BD42F7DB4FF4805134
:100F90000248FFF7EEFCBDE8F081000000040240CB
:100FA00070B504464FF480510C48FFF7E0FCC4F3E1
:100FB0000740FFF7AFFFC4F30720FFF7ABFF04F0D4
:100FC000F800FFF7A7FF0020FFF7A4FF05464FF446
:100FD00080510248FFF7CDFC284670BD0004024056
:100FE0002DE9F04104460E4617464FF48051104853
:100FF000FFF7BDFCC4F30740FFF78CFFC4F30720E5
:10100000FFF788FF04F0F801091DC8B2FFF782FF5F
:10101000002504E0705DFFF77DFF681C85B2BD42CE
:10102000F8DB4FF480510248FFF7A3FCBDE8F081E4
:101030000004024070B504460D464FF480510D483F
:10104000FFF795FCC4F30740FFF764FFC4F30720E4
:10105000FFF760FF04F0F801091DC8B2FFF75AFF5F
:101060002846FFF757FF4FF480510248FFF781FCF5
:1010700070BD00000004024010B5474800783C28CD
:1010800075D146480078401E4349085C3E28F7D198
:10109000084640784249097888420ED13C204149AF
:1010A00008703F48007848703E20C87108213D48CC
:1010B00000F0F2FA01203C490870374840783B497B
:1010C000097888420ED13C203649087037480078AC
:1010D00048703E20C8710821324800F0DDFA002037
:1010E000314908702C4840783149097888422DD11F
:1010F000294880782F490870002406E0E01C264922
:10110000085C2D490855601CC4B2072CF6DB224848
:10111000807A2A490870274801781320FFF78CFA53
:10112000264801781420FFF787FA002408E0224AB5
:10113000115D04F11502D0B2FFF77EFA601CC4B253
:10114000072CF4DB1021144800F0A6FA124840786E
:101150001B49097888421ED13C2012490870184862
:1011600000784870134800788870002407E012E087
:101170001148015DE01C0B4A1154601CC4B2072CDD
:10118000F6DB0E480078074988723E20C8731021AC
:10119000044800F081FA10BD9A1B00209400002042
:1011A000D00000209A1F002096000020D1000020CF
:1011B000D2000020080000200100002025000020AF
:1011C000D300002000B58BB001210846FFF700FED8
:1011D0000420099001208DF8280000208DF82A00B5
:1011E00003208DF8290001208DF82B0009A9524811
:1011F000FFF752FB04215048FFF7BBFB01210846D3
:10120000FFF7E6FD01210803FFF712FE1020099009
:1012100001208DF8280000208DF82A0003208DF889
:10122000290001208DF82B0009A94348FFF734FB62
:1012300010214148FFF79DFBE020099002208DF826
:10124000280000208DF82A0002208DF829000120B6
:101250008DF82B0009A93848FFF71EFB052211461F
:101260003548FFF761FB052206213348FFF75CFB99
:10127000052207213048FFF757FB304800F064FC97
:101280000020ADF804004FF48270ADF80600002095
:10129000ADF80800ADF80A00ADF80C004FF400708E
:1012A000ADF80E000020ADF81000ADF812000720D8
:1012B000ADF8140001A9214800F0ACFC01211F4841
:1012C00000F036FC01210420FFF782FD2020099068
:1012D00000208DF8280003208DF8290001208DF8CA
:1012E0002B0009A91648FFF7D7FA01218803FFF759
:1012F0009FFD0521022000F007FD2020079000201F
:101300008DF820000C208DF8210001208DF822009E
:1013100007A8FFF777FA17208DF8180002208DF83C
:1013200019008DF81A0001208DF81B0006A8FFF7A0
:1013300009FC0BB000BD000000000240003001407D
:101340000008024010B5FFF73DFF00F011F906223A
:1013500024494FF4106000F0E1F9042222494FF4CF
:10136000A06000F0DBF904222049900100F0D6F9DA
:1013700004221F494FF4706000F0D0F91D4908881D
:10138000C11700EB1161090A1B4A1170194908883D
:10139000C11700EB11610912A0EB0121517002226B
:1013A00015494FF4C85000F0B9F9144801784FF4CA
:1013B000D85000F0DBF9002411E0114A115D41F62C
:1013C000087202EB441000F0D1F90E4A115D41F6AB
:1013D000086202EB441000F0C9F9601CC4B2082C8A
:1013E000EBDB10BD800000208E0000208A00002072
:1013F000860000209A000020D40000209C000020DD
:10140000C6000020BE00002070B505460222244917
:1014100042F2086000F066F821484178007801EB5C
:1014200000202049087002221D4942F6080000F001
:1014300059F81B484178007801EB002084B2194923
:1014400009786018C11700EB1161090A164A11707A
:10145000144909786018C11700EB11610912A0EB5B
:1014600001215170002000EB042000F118060D4806
:1014700002782946304600F035F802220A4942F641
:10148000080000F04BF940214FF4847000F06EF931
:1014900000BF4FF4847000F04DF80028F9D170BD02
:1014A000D600002094000020D400002010B504468F
:1014B00000BF02210A4800F09FFB0028F9D0214616
:1014C000074800F0A5FB00BF0121054800F094FB90
:1014D0000028F9D0024800F098FBC0B210BD00000F
:1014E000003001402DE9F04104460E461746102118
:1014F0000F48FFF73CFAC4F30740FFF7D7FFC4F3E8
:101500000720FFF7D3FF04F0F800FFF7CFFF002517
:1015100005E00020FFF7CAFF7055681C85B2BD4288
:10152000F7DB10210248FFF724FABDE8F081000044
:101530000000024070B5044610210C48FFF717FA6E
:10154000C4F30740FFF7B2FFC4F30720FFF7AEFF75
:1015500004F0F800FFF7AAFF0020FFF7A7FF0546F9
:1015600010210248FFF705FA284670BD000002402E
:1015700070B504210E48FFF7FAF9002401E0601C61
:1015800084B246F2A8108442F9DB04210848FFF730
:10159000F0F9002409E0002501E0681C85B240F65E
:1015A000C4108542F9DB601C84B2322CF3DB70BDC1
:1015B0000000024070B5002501214FF4C05000F03A
:1015C000D5F80F2142F6084000F0D0F8FFF773F885
:1015D0002121082000F0CAF82D490888C11700EB26
:1015E0001161090A2B4A117029490888C11700EBBB
:1015F00011610912A0EB01215170022225494FF41B
:10160000816000F08BF800BF01214FF4847000F07E
:10161000ADF8002401E0601CC4B2142CFBDB05E033
:10162000002401E0601CC4B2142CFBDB4FF4847076
:10163000FFF780FF0028F3D14FF44270FFF77AFFE5
:1016400013280AD0681CC5B20A2D02DAFFF733F856
:10165000DAE7FFF730F8002070BD02214FF4847004
:1016600000F084F8002401E0601CC4B2142CFBDB01
:1016700005E0002401E0601CC4B2142CFBDB4FF435
:101680008470FFF757FF0028F3D10120E4E7000042
:1016900092000020D40000202DE9F04106460D46BE
:1016A00002221C4942F20840FFF71CFF194841780A
:1016B000007801EB002084B2002000EB042000F150
:1016C00010072A463146384600F028F8601984B2DF
:1016D0002046E11704EB1161090A0F4A1170E11766
:1016E00004EB11610912A4EB0121517002220A4995
:1016F00042F2084000F012F820214FF4847000F00C
:1017000035F800BF4FF48470FFF714FF0028F9D1BB
:10171000BDE8F081D6000020D40000202DE9F04182
:1017200004460E46174610210F48FFF720F9C4F370
:101730000740FFF7BBFEC4F30720FFF7B7FE04F036
:10174000F801091DC8B2FFF7B1FE002504E0705D85
:10175000FFF7ACFE681C85B2BD42F8DB10210248E1
:10176000FFF707F9BDE8F0810000024070B50446BC
:101770000D4610210C48FFF7FAF8C4F30740FFF7B5
:1017800095FEC4F30720FFF791FE04F0F801091D50
:10179000C8B2FFF78BFE2846FFF788FE10210248EB
:1017A000FFF7E7F870BD00000000024000B585B00B
:1017B00001210820FFF70CFB012003908DF8100099
:1017C00000208DF8120003208DF8110001208DF803
:1017D000130003A92C48FFF75FF801212A48FFF7FF
:1017E000C8F801210846FFF7F3FA02200390012010
:1017F0008DF8100000208DF8120003208DF81100E4
:1018000001208DF8130003A92048FFF745F80221B5
:101810001E48FFF7AEF801210846FFF7D9FA01206C
:10182000039000208DF8100003208DF81100012096
:101830008DF8130003A91548FFF72EF8012188033E
:10184000FFF7F6FA0021084600F05EFA012000904A
:1018500000208DF804000C208DF8050001208DF883
:1018600006006846FEF7CEFF06208DF8080002202D
:101870008DF809008DF80A0001208DF80B0002A8F0
:10188000FFF760F905B000BD000C02400000024007
:1018900010B50024FFF78AFF012000F02FFD00F0B3
:1018A000D7F901203E4908600A2000F027FD0020FA
:1018B0003C49C1F884020A2000F020FD40F20512E4
:1018C00002215620FFF758FA37480278022160209B
:1018D000FFF752FAFF2202216820FFF74DFA01229A
:1018E00002215020FFF748FA3048027802213C20BC
:1018F000FFF742FA00BF16E0224602212020FFF740
:101900003BFA072202213220FFF736FA2848025D0F
:1019100002212220FFF730FA224602213A20FFF767
:101920002BFA601CC4B2122CE6DB4AF6A13202216B
:101930007020FFF721FA002202212020FFF71CFA75
:10194000002202217220FFF717FA01220221202033
:10195000FFF712FA102202217220FFF70DFA02227D
:1019600011462020FFF708FA202202217220FFF7FB
:1019700003FA032202212020FFF7FEF93022022180
:101980007220FFF7F9F90B4A03212A20FFF7F4F937
:101990004FF4447202212420FFF7EEF910BD00003D
:1019A0008402404200004042000000202500002048
:1019B0002E130020FFFF03002DE9F04103214020FA
:1019C000FFF7B0F98046002431E00120A04000EA92
:1019D000080050B30120A040174909680843164980
:1019E0000860224602212020FFF7C6F902212620A6
:1019F000FFF798F9054605F48070B0B1EFB200200A
:101A00000E490860482000F06BF8002608E0AA2084
:101A100000F066F80A4901EBC4118855701CC6B283
:101A2000BE42F4DB012005490860601CC4B2122CE0
:101A3000CBDBBDE8F0810000200000208082414225
:101A40002E0A002070B50020FFF768F800242DE072
:101A50000120A0401D490968084028B32246022100
:101A60002020FFF789F91A48005D1A49095D40EA0C
:101A7000012202212620FFF77FF900201649086085
:101A8000B42000F02DF8002507E0144901EBC41143
:101A9000485D00F025F8681CC5B20D48005DA842FD
:101AA000F3DC01200C490860601CC4B2122CCFDBAF
:101AB0000648026803213620FFF75EF90120FFF790
:101AC0002DF800200149086070BD00001C000020B6
:101AD0004013002052130020808241422E0100203A
:101AE00010B5044600BF02210A4800F085F800281E
:101AF000F9D02146074800F08BF800BF01210548C6
:101B000000F07AF80028F9D0024800F07EF8C0B260
:101B100010BD0000003C004021B1028842F4005298
:101B2000028004E002884DF6FF731A40028070477D
:101B300021B1028842F04002028004E002884FF6A0
:101B4000BF731A400280704710B50446244884428F
:101B500008D101218014FFF77BF90021A014FFF7C1
:101B600077F93CE01F48844208D101210014FFF7B7
:101B70004FF900212014FFF74BF930E01A48844256
:101B800008D10121C013FFF743F90021E013FFF74B
:101B90003FF924E01548844208D101214014FFF7A1
:101BA00057F900216014FFF753F918E010488442F8
:101BB00009D101210805FFF74BF900214FF48010EE
:101BC000FFF746F90BE00B48844208D10121480594
:101BD000FFF73EF900214FF40010FFF739F910BD6F
:101BE0000030014000380040003C0040003401401B
:101BF00000500140005401400246002013890B4070
:101C00000BB1012000E00020704701468889704731
:101C10008181704710B50022028802F441520B887E
:101C20004C8823438C882343CC8823430C8923434B
:101C30004C8923438C892343CC8923431A43028054
:101C4000838B4FF2FF74234083830B8A038210BD82
:101C500000B587B001210420FFF7BAF80121C803BD
:101C6000FFF7C6F84FF4E050059002208DF81800F9
:101C700000208DF81A0002208DF819008DF81B0045
:101C800005A91F48FEF708FE06220A211C48FEF798
:101C90004BFE06220B211A48FEF746FE06220C21B7
:101CA0001748FEF741FE1748FFF74EFF0020ADF83A
:101CB00000004FF48270ADF802000020ADF804007F
:101CC000ADF80600ADF808004FF40070ADF80A005A
:101CD0001020ADF80C000020ADF80E000720ADF884
:101CE000100069460748FFF795FF00210548FFF7F8
:101CF00013FF01210348FFF71BFF07B000BD0000E1
:101D000000080240003C004030B500228B071C0F49
:101D10000F2303FA04F20B4B8C1053F82430934337
:101D2000084C8D1044F8253023468C1053F824308D
:101D30008C07240F00FA04F42343024C8D1044F85E
:101D4000253030BD083801400CB5002001900090CE
:101D50003448006840F480303249086000BF3148A0
:101D6000006800F4003000900198401C0190009839
:101D700018B90198B0F5A04FF1D12A48006800F4D5
:101D8000003010B10120009001E000200090009888
:101D9000012846D123484030006840F08050214956
:101DA000403108602048006840F440401E49086007
:101DB0001C48083000681B49083108600846006864
:101DC00040F4004008600846006840F4A0500860F5
:101DD0001648091F0860081F006840F08070091F3E
:101DE000086000BF0F48006800F000700028F9D0BC
:101DF00040F205700E4908600A480830006820F07B
:101E000003000849083108600846006840F00200F5
:101E1000086000BF03480830006800F00C00082884
:101E2000F8D10CBD00380240007000400854400753
:101E3000003C0240042808D14FF0E021096941F03C
:101E400004014FF0E022116107E04FF0E021096941
:101E500021F004014FF0E0221161704710B51548E0
:101E6000006840F47000134908601348006840F0AF
:101E700001001149086000200F49083108600E4830
:101E800000680E4908400C4908600D48091D0860AB
:101E9000081F006820F48020091F08600020064900
:101EA0000C310860FFF750FF4FF0006001498039A6
:101EB000086010BD88ED00E000380240FFFFF6FE2C
:101EC0001030002410B50121064800F0BEF80128AA
:101ED00003D141020448FEF74EFD0121014800F004
:101EE000A5F810BD00040040000402407FB505467F
:101EF0000C4601210220FEF77BFF0295ADF804405D
:101F00000020ADF80600ADF80C0001A90D4800F066
:101F1000B7F8012211460B4800F0A8F80121094842
:101F200000F087F81D208DF8000001208DF80100D9
:101F300003208DF8020000208DF803006846FEF7AC
:101F400001FE7FBD0004004010B501211C4800F0D7
:101F50007CF801282FD11B48006808B9012000E057
:101F60000020184908604FF44270FFF7E3FA044676
:101F700054B900201349091F0860FFF7E3F9FFF780
:101F800019FB002010490870132C01D0142C0CD11F
:101F90000C48001F006808B9012000E00020094932
:101FA000091F0860002008490870172C03D1012080
:101FB0000449091F08600121014800F037F810BDED
:101FC0000008004084024242960000201FB5012113
:101FD0000420FEF70DFF42F20F70029042F2CF0094
:101FE000ADF804000020ADF80600ADF80C0001A922
:101FF0000D4800F045F8012211460B4800F036F874
:102000000121094800F015F81E208DF8000002207B
:102010008DF801008DF8020001208DF8030068465C
:10202000FEF790FD1FBD000000080040CA43028279
:10203000704721B1028842F00102028004E0028868
:102040004FF6FE731A400280704730B502460020FA
:1020500000230024158A05EA0103958905EA010495
:1020600013B10CB1012000E0002030BD1AB183890A
:102070000B43838102E083898B4383817047000097
:1020800000220288184B98420ED0184B98420BD071
:10209000B0F1804F08D0164B984205D0154B9842AE
:1020A00002D0154B984204D14FF68F731A404B88DB
:1020B0001A43124B984207D0114B984204D04FF666
:1020C000FF431A400B891A4302804B68C3620B8896
:1020D0000385054B984202D0044B984201D18B7A7C
:1020E0000386012383827047000001400004014001
:1020F0000004004000080040000C004000100040B8
:102100000014004010B540F22551204800F048F876
:1021100090B31E4800F06EF8C4B21D48007848B96C
:10212000102C01D0682C05D101201949087000201D
:102130001849087018481749097844541548007818
:10214000401C1449087014480078102806D108462D
:102150000078052802D100200D4908700E4800784B
:10216000682809D10C484078801D0A4909788842BE
:1021700002D10020064908700848006808B901200B
:1021800000E000200549086010BD0000001001407B
:10219000D8000020D90000203C330020A482404217
:1021A00070B50246002400230025002040F66A1680
:1021B000B14200D100BFC1F3421501F01F03012657
:1021C00006FA03F3012D02D19689334006E0022D71
:1021D00002D1168A334001E0968A33400C12012660
:1021E00006FA04F41688344013B10CB1012000E063
:1021F000002070BD01468888C0F3080070470000C9
:102200000020014908607047082C004010B50648BE
:10221000007800F00BF8FFF7F3FF002401E0601CEA
:10222000C4B2042CFBDB10BDDA00002000F07F01FB
:10223000014A116070470000002C004010B50446B0
:102240006FF00400FFF7F6FDE11704EB5171C1F3E5
:10225000C701074A11701046007800EB4001C1EB3E
:10226000C0104FF6FF7101EAC0000249088010BD9E
:10227000DC000020DE00002070B504464FF407703B
:1022800094FBF0F0C6B24FF4077094FBF0F100FB42
:10229000114085B205E04FF4077000F009F8701E98
:1022A000C6B2002EF7D115B1284600F001F870BD76
:1022B0000146114A12884A434FF0E0235A61002236
:1022C0009A611A46126942F001021A6100BF4FF08A
:1022D000E022106900F001021AB100F48032002AF5
:1022E000F5D04FF0E022126922F001024FF0E02316
:1022F0001A6100229A617047DE00002010B50023A9
:102300000EE0002107E0002201E0541CA2B2642A82
:10231000FBDB4C1CA1B2B1F5C87FF4DB5C1CA3B2A3
:102320008342EEDB10BD00001CB501214020FEF70A
:102330004FFD4FF49060009001208DF804000020C4
:102340008DF8060003208DF8050001208DF80700A8
:1023500069462148FEF7A0FA80211F48FEF707FBD7
:102360004FF480611C48FEF704FB01211020FEF7AA
:102370002FFD0320009001208DF8040000208DF82F
:10238000060003208DF8050001208DF8070069463E
:102390001248FEF781FA03211048FEF7E8FA0121FE
:1023A0000220FEF715FD4FF46070009001208DF8BB
:1023B000040000208DF8060003208DF805000120A0
:1023C0008DF8070069460648FEF766FA4FF460711B
:1023D0000348FEF7CCFA1CBD001802400010024072
:1023E000000402404FF4A060FEF7E8FBA820FFF7CE
:1023F00025FFFFF799FF012029490860002029499E
:10240000C1F8A8020520284908700A20FFF734FF08
:10241000FEF76EF80A20FFF72FFFFEF7B1FA002053
:10242000224908700CE021480078800014302049CF
:102430001E4A127888541D480078401C1B490870B9
:102440001A4800781228EEDBFFF722FA0A20FFF77D
:1024500013FF42F2CF0142F21070FFF747FDC02098
:1024600014490870A8204870012088705520C87051
:1024700040F6926010490880FEF764FFFFF79AF873
:102480000A20FFF7F9FEFFF7A1FD0C480068401C89
:102490000A49086003E009480068FEF799FBFAE77B
:1024A0009C0243420000434225000020BC00002063
:1024B0002E130020790000207E000020B8000020AC
:1024C0004FF04070E1EE100A70470000EC24000865
:1024D00000000020E4000000C4010008D02500082E
:1024E000E4000020BC390000E0010008000000000A
:1024F00000000000000000000000050E4CC0A80114
:10250000420E56C0A8014300000000000000000079
:102510000000646171690005010006060C101215C7
:102520000B030F4E4F50676DC8252B0319444E5AAD
:102530000C1012150B030F4E4F50676DC8252B035F
:1025400019444E5A00C0A801010064090008DC01CA
:102550000203C0A80142C0A80101FFFFFF00F2046E
:102560000000000000C0A801420000000008DC01DB
:102570000203C0A80142C0A80101FFFFFF00F2044E
:1025800000000000000088130300000000000000AD
:10259000000100000000000000000000000000003A
:1025A000000000000000000000000802010101011D
:1025B0000101080201010101010100000001020303
:1025C0000000000000007F0000000000000000008C
:040000050800018965
:00000001FF
