:020000040800F2
:10000000B03C002029020008310200083302000839
:10001000350200083702000839020008000000001D
:100020000000000000000000000000003B0200088B
:100030003D020008000000003F02000841020008E5
:100040007D2A00084302000843020008430200081A
:100050004302000843020008F506000843020008B6
:10006000430200084302000843020008430200085C
:10007000430200084302000843020008430200084C
:10008000430200084302000843020008430200083C
:1000900043020008430200084302000885070008E5
:1000A000430200084302000843020008430200081C
:1000B00043020008F92600087D27000843020008D3
:1000C00043020008430200084302000843020008FC
:1000D0004302000875290008430200084302000893
:1000E00025070008430200084302000843020008F5
:1000F00043020008430200084302000843020008CC
:1001000043020008430200084302000843020008BB
:1001100043020008430200084302000843020008AB
:10012000430200084302000843020008430200089B
:10013000430200084302000843020008430200088B
:10014000430200084302000843020008430200087B
:10015000430200084302000843020008430200086B
:10016000430200084302000843020008430200085B
:10017000430200084302000843020008430200084B
:10018000430200084302000800F002F800F03CF8C7
:100190000AA090E8000C82448344AAF10107DA45E2
:1001A00001D100F031F8AFF2090EBAE80F0013F0F8
:1001B000010F18BFFB1A43F001031847EC2B000096
:1001C0000C2C0000103A24BF78C878C1FAD8520726
:1001D00024BF30C830C144BF04680C6070470000C1
:1001E0000023002400250026103A28BF78C1FBD840
:1001F000520728BF30C148BF0B6070471FB502F0DF
:10020000CDFD1FBD10B510BD00F031F81146FFF750
:10021000F5FF02F01FFD00F04FF803B4FFF7F2FF07
:1002200003BC00F057F80000094880470948004720
:10023000FEE7FEE7FEE7FEE7FEE7FEE7FEE7FEE796
:10024000FEE7FEE704480549054A064B70470000F3
:100250009126000889010008B0360020B03C00203B
:10026000B0380020B038002070477047704775469E
:1002700000F02CF8AE4605006946534620F0070012
:10028000854618B020B5FFF7DDFFBDE820404FF0F0
:1002900000064FF000074FF000084FF0000B21F070
:1002A0000701AC46ACE8C009ACE8C009ACE8C0093D
:1002B000ACE8C0098D46704710B50446AFF3008026
:1002C0002046BDE81040FFF7A8BF00000048704777
:1002D0004C36002001491820ABBEFEE72600020084
:1002E000704700001CB50121082000F069FF4FF4A1
:1002F0004050009001208DF8040000208DF8060089
:1003000003208DF8050001208DF807006946054897
:1003100000F0CAFA0120044908600449C1F8B40297
:100320001CBD0000000C0240B082414200804142EE
:100330000021124A11601249096821F04061104AF7
:1003400011601146096841F08061116000210D4A79
:10035000C2F8B412002001E0411CC8B21428FBDB33
:100360000121064A1160002001E0411CC8B2142896
:10037000FBDB0021014A116070470000B08241425E
:10038000000C0240008041420021104A11601049D7
:10039000096821F040610E4A11601146096841F078
:1003A00080611160002001E0411CC8B21428FBDB11
:1003B0000121064A1160002001E0411CC8B2142846
:1003C000FBDB0021014A116070470000B08241420E
:1003D000000C02401249096821F04061104A116086
:1003E0001146096841F08061116001210D4A1160D8
:1003F0000D4AC2F8B012002001E0411CC8B23228F8
:10040000FBDB0021074A1160002001E0411CC8B25B
:100410003228FBDB0021034A121F116070470000E5
:10042000000C0240B48241420080414212490968F6
:1004300021F04061104A11601146096841F0806165
:10044000116000210D4A11600D4AC2F8B01200205F
:1004500001E0411CC8B23228FBDB0121074A121F10
:100460001160074AC2F8B412002001E0411CC8B272
:100470003228FBDB70470000000C0240B48241428E
:100480000080414210B5002400231748006820F086
:10049000406015490860084600680860012013495B
:1004A000086000BF01E0581CC3B2142BFBDB012025
:1004B0000E49091F0860002301E0581CC3B2142B29
:1004C000FBDB07E0601CC4B2FA2C03DDFFF7AEFFD4
:1004D000012010BD0548803800680028F2D103498A
:1004E000091F086000BFF4E7000C0240B4824142DB
:1004F00010B5FFF7F7FE10BD70B506460C46154661
:1005000008E03046721CD6B200F007F804F8010B80
:10051000681EC5B2002DF4D170BD30B50446FFF79A
:1005200059FFA02000F04EF8FFF7ACFF204600F086
:1005300049F8FFF7A7FFFFF74DFFA12000F042F8B1
:10054000FFF7A0FF002000F005F80546FFF76EFF5B
:10055000284630BD70B505461748006820F0406059
:100560001549086008460068086000261AE0002067
:1005700012490860002301E0581CC3B2142BFBDBB6
:1005800001200E4908606006040E0D48D0F83402C0
:100590002044C4B2002301E0581CC3B2142BFBDB7F
:1005A000701CC6B2082EE2DB15B1FFF7C1FE01E0F8
:1005B000FFF7EAFE204670BD000C0240B0824142C7
:1005C0000080414210B50146194B1B6823F040637F
:1005D000174C236023461B6843F08063236000238D
:1005E000144C236000221FE0CB09124C241D236011
:1005F0004B06190E002001E0431CD8B21428FBDB87
:1006000001230C4C2360002001E0431CD8B21428C5
:10061000FBDB0023074C2360002001E0431CD8B221
:100620001428FBDB531CDAB2082ADDDB10BD000006
:10063000000C0240B082414270B506460C46FFF7FE
:10064000C9FEA020FFF7BEFFFFF71CFF3046FFF7F3
:10065000B9FFFFF717FF2046FFF7B4FFFFF712FFC0
:10066000FFF7E4FE002500E06D1C02488542FBD345
:1006700070BD000040420F0010B510214FF484708F
:1006800001F01CF8002401E0601CC4B2142CFBDB58
:1006900005E0002401E0601CC4B2142CFBDB4FF425
:1006A000847000F09DFF0028F3D1FF214FF4027009
:1006B00001F004F810BD10B510214FF4847001F062
:1006C0006FFC002401E0601CC4B2142CFBDB05E0CD
:1006D000002401E0601CC4B2142CFBDB4FF48470D6
:1006E00001F03EFB0028F3D1FF214FF4027001F02E
:1006F00057FC10BD10B5012000F080F878B1022140
:10070000522000F073FA84B204F0010020B101F02D
:100710006DFD012002490870012000F069F810BD4C
:100720002400002010B54FF4804000F067F828B393
:100730004FF4027000F054FF044604F0010020B1B1
:1007400001214FF4027000F0B9FF04F0040038B149
:100750000B4800F0ADFE04214FF4027000F0AEFF34
:1007600004F0020030B102214FF4027000F0A6FF45
:10077000FFF782FF4FF4804000F03AF810BD000010
:10078000AC15002010B5202000F038F860B34FF40D
:10079000027001F0E5FA044604F0010020B10121E5
:1007A0004FF4027001F0FCFB04F0040048B10F4864
:1007B00001F040FA04214FF4027001F0F1FB00F067
:1007C0009FFF04F0020020B102214FF4027001F0FB
:1007D000E7FB04F0080020B108214FF4027001F09B
:1007E000DFFB202000F004F810BD0000AC1D00204D
:1007F0000149086070470000143C01400146002098
:10080000034A12680A400AB1012000E00020704744
:10081000143C0140002123498279002A3AD00A463B
:10082000126803689A430B461A600A1D126803682F
:100830009A430B1D1A60027911440A6803681A432F
:100840000A60184A0832126803689A43154B083345
:100850001A601A1D126803689A43124B0C331A600F
:100860004279102A0ED11A1F126803681A430D4BE1
:1008700008331A601A1D126803681A43094B0C33B7
:100880001A600DE00749427911440A6803681A4367
:100890000A6005E0027911440A6803689A430A6015
:1008A00070470000003C0140F0B50A4600210023DB
:1008B000002400BF3DE0012505FA01F3156805EAB3
:1008C00003049C4234D105684F000326BE40B54363
:1008D000056015794E00B540066835430560157909
:1008E000012D02D01579022D16D185684F000326FF
:1008F000BE40B543856055794E00B54086683543A6
:100900008560456801268E40B54345604568967907
:100910008E40B6B235434560C5684F000326BE40E1
:10092000B543C560D5794E00B540C6683543C5604E
:10093000491C1029BFD3F0BDF0B5002300244D079A
:10094000ED0E02FA05F3CE1000F1200555F8265001
:100950004E07F70E0F26BE40B543CF1000F120061C
:1009600046F82750CE1000F1200555F8265045EAEC
:100970000304CE1000F1200545F82640F0BD418368
:1009800070470183704742694A40426170470000E6
:1009900000B50020FFF7C1FD5A4908700120FFF79C
:1009A000BCFD59490880084600884FF6FF7101EAEE
:1009B0000020554908800220FFF7AFFD5249098801
:1009C000084451490880042250490320FFF794FD50
:1009D0004C490978642211FB02F0C11700EB116148
:1009E0000912A0EB01214A4AD1704649097801EB6E
:1009F00081014800C11700EB11610912A0EB012130
:100A000011714049097801EB81014800C11700EBE1
:100A100011610912A0EB012151710720FFF77DFD43
:100A20003C490880084600884FF6FF7101EA002023
:100A3000384908800820FFF770FD364909880844C6
:100A400034490880042234490920FFF755FD2D4917
:100A5000097801EBC10202EB0111012202EB8100D6
:100A6000C11700EB11610912A0EB01212B4AD170D3
:100A70002449097801EB8101012202EB4100C117F1
:100A800000EB11610912A0EB0121244A11711D49EB
:100A9000097801EB81014800C11700EB11610912CF
:100AA000A0EB0121517104221D490D20FFF724FD07
:100AB0001120FFF732FD1B490880084600884FF6D9
:100AC000FF7101EA0020174908801220FFF725FD79
:100AD000144909880844134908801320FFF71DFDB5
:100AE000114908701420FFF718FD104908700722FB
:100AF0000F491520FFF700FD2020FFF70EFD0D49DF
:100B0000087000BD00000020720000206600002078
:100B1000600000209200002086000020800000205D
:100B2000790000207E000020080000202500002021
:100B300001000020A200002038B10849096844F2F1
:100B400021021143054A116006E00449096844F294
:100B500021029143014A116070470000003C0140AE
:100B600070B5002100230F22C4781CB3174C2468F1
:100B700004F4E064C4F5E064C4F30721C1F10404A3
:100B8000E3B20A4144789C40E1B2847814402143A6
:100B90000C07210E0E4C05786155047804F01F05F2
:100BA0000124AC4005786D11AD0005F1E025C5F8D4
:100BB000004109E0047804F01F050124AC40054D14
:100BC0000678761145F8264070BD00000CED00E077
:100BD00000E400E080E100E002490143024A1160C4
:100BE000704700000000FA050CED00E02DE9F0412F
:100BF00006460F46002400201049086006F07F06D4
:100C0000304601F087FB0546032F05D1304601F041
:100C100081FB05462C442402304601F07BFB05464F
:100C20002C442402304601F075FB05462C4401207B
:100C3000024908602046BDE8F08100008082414200
:100C40002DE9F04105460E461446002700201149C3
:100C5000086005F07F0040F08005284601F05AFB4F
:100C60008046032E05D1C4F30747384601F052FBF6
:100C70008046C4F30727384601F04CFB8046E7B2B4
:100C8000384601F047FB8046012002490860BDE874
:100C9000F0810000808241422DE9F04780464FF00C
:100CA0000009FA48007801287ED1002420E100BF25
:100CB000F7480078012878D1F648005D002874D004
:100CC000F548F6490860002676E0F248005DF449F0
:100CD00001EBC6110870F3480078F14901EBC61129
:100CE0004870F1480078EE4901EBC6118870002584
:100CF0001EE0EE48415DEA4800EBC6126800C01CE9
:100D000011540120A840E5490968084038B1012183
:100D1000E34800EBC6126800001D115406E00021F4
:100D2000DF4800EBC6126800001D1154681CC5B2F4
:100D3000122DDEDB04EB440000EB0410DC4951F81B
:100D40002000401C000ED64901EBC61181F8270097
:100D500004EB440000EB0410D54951F82000401C7E
:100D6000000CCF4901EBC61181F8280004EB4400C8
:100D700000EB0410CE4931F82000401C000AC8499D
:100D800001EBC61181F8290004EB440000EB0410CC
:100D9000C74911F82000401CC14901EBC61181F878
:100DA0002A002B20C34901E0A5E09FE088550020E0
:100DB000C1498855701CC6B2122E86DB01F05CFA60
:100DC0000020B6490860BD49086006E0BB480068DD
:100DD00087B2B7F5FA5F00DD03E0B9480078002874
:100DE000F4D000BF09F1010000F0FF09B448007819
:100DF00088B9C1450FDA04EB440000EB0410AC499C
:100E000051F82000401C04EB440101EB0411A84AF6
:100E100042F821004CE704EB440000EB0410A44925
:100E200051F82000401C04EB440101EB0411A04ADE
:100E300042F82100A2480078002845D000209F49B0
:100E4000086005E09D48006887B2C82F00DD04E017
:100E50009C48006890498842F4D100BF00262BE0EE
:100E60000120B04097490968084018B300251EE0EA
:100E7000954800EBC6116800001D085C012814D1DC
:100E800004EB440000EB0410894901EB8001681C6D
:100E900051F82000401C04EB440101EB0411844A8A
:100EA00002EB8102691C42F82100681CC5B2122DB8
:100EB000DEDB03E0701CC6B2122ED1DB00BF0020C7
:100EC0007F4908707F49086000207C49086006E07F
:100ED0007A48006887B2B7F5FA7F00DD00E0F7E7EF
:100EE00000BF4FF0000900206C490860601CC4B2CC
:100EF000072CFFF6DCAE6548007800287ED104E0C0
:100F000063480078012800D003E06D48007800288D
:100F1000F6D000BF6A48007800286FD000206749EB
:100F2000086006E06548006887B2B7F5967F00DD87
:100F300004E06448006858498842F3D100BF0024A7
:100F40005FE00120A0405F490968084080B35E4827
:100F500000EBC41040785D4908700846007851499C
:100F60000978884225DA584800EBC41090F8270029
:100F70000006554901EBC41191F8281000EB01401F
:100F8000514901EBC41191F8291000EB01204E49A1
:100F900001EBC41191F82A1001444C480078401E1E
:100FA00000EB400202EB0010414A42F8201024E01E
:100FB00025E0454800EBC41090F8270000064249A0
:100FC00001EBC41191F8281000EB01403E4901EB00
:100FD000C41191F8291000EB01203B4901EBC41129
:100FE00091F82A10014439480078801E00EB400235
:100FF00002EB00102E4A42F8201004E0CBE0601C07
:10100000C4B2122C9DDB00BF0024B4E00120A0403C
:101010002C490968084078B12C490978491E01EB30
:10102000410202EB0111224A02EB8102611C02EB38
:1010300081000168491C016024480078184901EBCF
:10104000C411087017480078154901EBC4114870A5
:1010500015480078124901EBC4118870002541E061
:101060001248415D0E4800EBC4126800C01C1154C8
:101070000120A84013490968084048B301210848E5
:1010800000EBC4126800001D115429E00800002084
:10109000A200002001000020FFFF03001C00002030
:1010A0004003002000000020250000204015002003
:1010B0002C0100205215002064150020240400405B
:1010C0002400002020000020400C00200C00002004
:1010D000FFE70021314800EBC4126800001D1154E5
:1010E000681CC5B2122DBBDB2D480078401E00EBFA
:1010F000400101EB00102B4951F82000000E274958
:1011000001EBC41181F8270025480078401E00EB50
:10111000400101EB0010234951F82000000C1F4949
:1011200001EBC41181F828001D480078401E00EB37
:10113000400101EB00101B4931F82000000A17495B
:1011400001EBC41181F8290015480078401E00EB1E
:10115000400101EB0010134911F820000F4901EB89
:10116000C41181F82A002B200F49085500200F498F
:101170000855601CC4B2122CFFF648AF0C480D494C
:10118000086000200C4908600C49087001F074F8F0
:10119000002008490860BDE8F087000040030020F7
:1011A0000C0000202C0100205215002064150020A6
:1011B000FFFF03001C00002020000020240000206E
:1011C00029B1064A12680243044B1A6004E0034A3C
:1011D00012688243014B1A607047000030380240A9
:1011E00029B1064A12680243044B1A6004E0034A1C
:1011F00012688243014B1A60704700004038024079
:1012000029B1064A12680243044B1A6004E0034AFB
:1012100012688243014B1A60704700002038024078
:1012200029B1064A12680243044B1A6004E0034ADB
:1012300012688243014B1A60704700004438024034
:1012400029B1064A12680243044B1A6004E0034ABB
:1012500012688243014B1A60704700002438024034
:1012600000B58BB001211020FFF7AAFF4FF480508A
:10127000099001208DF8280000208DF82A00032015
:101280008DF8290001208DF82B0009A95448FFF79B
:101290000BFB4FF480515248FFF773FB01210220F2
:1012A000FFF78EFF01218803FFF79AFF4FF480506C
:1012B000099001208DF8280000208DF82A000320D5
:1012C0008DF8290001208DF82B0009A94548FFF76A
:1012D000EBFA4FF480514348FFF753FB4FF4604063
:1012E000099002208DF8280000208DF82A000220A5
:1012F0008DF8290001208DF82B0009A93948FFF746
:10130000D3FA05220D213748FFF716FB05220E21DF
:101310003448FFF711FB05220F213248FFF70CFB81
:10132000314801F02BF80020ADF804004FF4827032
:10133000ADF806000020ADF80800ADF80A00ADF8E1
:101340000C004FF40070ADF80E000020ADF8100056
:10135000ADF812000720ADF8140001A9224801F0F1
:1013600073F80121204800F0FDFF01211020FFF754
:1013700027FF4FF48040099000208DF828000320BB
:101380008DF8290001208DF82B0009A91448FFF7DA
:101390008BFA01218803FFF743FF0E21042001F09F
:1013A000CDF84FF48040079000208DF820000C20ED
:1013B0008DF8210001208DF8220007A8FFF72AFAF6
:1013C00028208DF8180002208DF819008DF81A00D9
:1013D00001208DF81B0006A8FFF7C2FB0BB000BD73
:1013E00000100240000402400038004010B5FFF732
:1013F00037FF00F015F9062224494FF4106000F081
:1014000033F9042222494FF4A06000F02DF90422A0
:101410002049900100F028F904221F494FF4706020
:1014200000F022F91D490888C11700EB1161090A73
:101430001B4A117019490888C11700EB1161091284
:10144000A0EB01215170022215494FF4C85000F061
:101450000BF9144801784FF4D85000F02FF900240C
:1014600011E0114A115D41F6087202EB441000F0E0
:1014700025F90E4A115D41F6086202EB441000F0B6
:101480001DF9601CC4B2082CEBDB10BD600000200D
:101490006E0000206A000020660000209A000020F4
:1014A000D40000209C000020C6000020BE000020C8
:1014B00070B505460222244942F2086000F066F841
:1014C00021484178007801EB002020490880022261
:1014D0001D4942F6080000F059F81B484178007891
:1014E00001EB002084B2194909886018C11700EB8C
:1014F0001161090A164A1170144909886018C11748
:1015000000EB11610912A0EB01215170002000EBEA
:10151000042000F118060D4802882946304600F0E4
:1015200035F802220A4942F6080000F09DF84021F1
:101530004FF4847000F0C2F800BF4FF4847000F0E4
:101540004FF80028F9D170BDD600002074000020AB
:10155000D400002010B5044600BF02210A4800F064
:1015600065FF0028F9D02146074800F06BFF00BF57
:101570000121054800F05AFF0028F9D0024800F088
:101580005EFFC0B210BD0000003800402DE9F04100
:1015900004460E4617464FF480511048FFF7EFF906
:1015A000C4F30740FFF7D6FFC4F30720FFF7D2FFCD
:1015B00004F0F800FFF7CEFF002505E00020FFF75C
:1015C000C9FF7055681C85B2BD42F7DB4FF48051EE
:1015D0000248FFF7D6F9BDE8F081000000040240A0
:1015E00070B504464FF480510C48FFF7C8F9C4F3B6
:1015F0000740FFF7AFFFC4F30720FFF7ABFF04F08E
:10160000F800FFF7A7FF0020FFF7A4FF05464FF4FF
:1016100080510248FFF7B5F9284670BD000402402A
:1016200070B54FF480510F48FFF7A9F9002401E08D
:10163000601C84B246F2A8108442F9DB4FF480515A
:101640000848FFF79EF9002409E0002501E0681C26
:1016500085B240F6C4108542F9DB601C84B2322C9E
:10166000F3DB70BD001002402DE9F04104460E4648
:1016700017464FF480511048FFF781F9C4F3074033
:10168000FFF768FFC4F30720FFF764FF04F0F801D9
:10169000091DC8B2FFF75EFF002504E0705DFFF78B
:1016A00059FF681C85B2BD42F8DB4FF480510248F7
:1016B000FFF767F9BDE8F0810004024070B5044609
:1016C0000D464FF480510D48FFF759F9C4F3074018
:1016D000FFF740FFC4F30720FFF73CFF04F0F801D9
:1016E000091DC8B2FFF736FF2846FFF733FF4FF456
:1016F00080510248FFF745F970BD00000004024028
:101700002DE9F041AB4800783C287DD1AA4800780B
:10171000401EA849085C3E28F7D108464078A749F2
:10172000097888420ED13C20A5490870A34800786A
:1017300048703E20C8710821A14800F0C7FB012075
:10174000A04908709B4840789F49097888420ED18B
:101750003C209B4908709C48007848703E20C87126
:101760000821974800F0B2FB002096490870914884
:10177000407896490978884274D18E48807800284C
:1017800033D18C48C07892490870002406E0201DAF
:101790008849085C8F490855601CC4B2072CF6DBE9
:1017A0008448C07A8C4908700846027802213C209F
:1017B000FFF746FA864801781320FEF73DFF86487A
:1017C00001781420FEF738FF002408E0814A115DFB
:1017D00004F11502D0B2FEF72FFF601CC4B2072C33
:1017E000F4DB1021734800F071FB72488078012807
:1017F00021D13C207249087074480078487001205B
:1018000088707348007800E0D1E0C870002406E0DA
:101810007048015D201D6A4A1154601CC4B2072C37
:10182000F6DB6D4800786649C8723E20C873102107
:10183000634800F04BFB5F48807802289CD13C2035
:101840005F490870614800784870022088705948E4
:10185000C078C8705748C07860490978884247D135
:1018600000250BE090E005EB450000EB05105C491E
:1018700051F8200000B103E0681CC5B2072DF2DB6F
:1018800000BF05EB450000EB0510554951F82060FD
:10189000002406E0C4F10701494A5654360A601C88
:1018A000C4B2042CF6DB00241FE005EB450000EB7E
:1018B00005104B4901EB8001601C51F820600027A6
:1018C00007E0A0000B30C01B3D4A1654360A781CB6
:1018D000C7B2042FF5DB4348005D401CC1B204F1E0
:1018E0005000374A1154601CC4B2122CDDDB43E0B7
:1018F000002508E03748405D2E49C978884200D16C
:1019000003E0681CC5B2072DF4DB00BF05EB450002
:1019100000EB0510324951F82060002406E0C4F1C4
:101920000701274A5654360A601CC4B2042CF6DB61
:1019300000241FE005EB450000EB0510284901EBF2
:101940008001601C51F82060002707E0A0000B30E8
:10195000C01B1B4A1654360A781CC7B2042FF5DB8D
:101960002048005D401CC1B204F15000144A1154DB
:10197000601CC4B2122CDDDB3E20114981F86300EB
:1019800064210F4800F0A2FA0A4840781649097805
:1019900088420CD1074880781449087008460178BD
:1019A0002020FEF749FE0821024800F08FFABDE82A
:1019B000F0810000AC1D002094000020D000002029
:1019C000AC21002096000020D1000020D200002091
:1019D0000800002001000020250000200000002059
:1019E0002C01002040150020D3000020A200002080
:1019F00000B58BB001210846FFF7E2FB04200990F7
:101A000001208DF8280000208DF82A0003208DF891
:101A1000290001208DF82B0009A95248FEF744FF48
:101A200004215048FEF7ADFF01210846FFF7C8FB2F
:101A300001210803FFF7F4FB1020099001208DF825
:101A4000280000208DF82A0003208DF829000120AD
:101A50008DF82B0009A94348FEF726FF10214148C5
:101A6000FEF78FFFE020099002208DF8280000206B
:101A70008DF82A0002208DF8290001208DF82B0016
:101A800009A93848FEF710FF052211463548FEF730
:101A900053FF052206213348FEF74EFF052207219A
:101AA0003048FEF749FF304800F068FC0020ADF8F0
:101AB00004004FF48270ADF806000020ADF8080075
:101AC000ADF80A00ADF80C004FF40070ADF80E0050
:101AD0000020ADF81000ADF812000720ADF814009A
:101AE00001A9214800F0B0FC01211F4800F03AFC98
:101AF00001210420FFF764FB2020099000208DF8CD
:101B0000280003208DF8290001208DF82B0009A959
:101B10001648FEF7C9FE01218803FFF781FB052166
:101B2000022000F00BFD2020079000208DF82000FF
:101B30000C208DF8210001208DF8220007A8FEF767
:101B400069FE17208DF8180002208DF819008DF815
:101B50001A0001208DF81B0006A8FFF701F80BB052
:101B600000BD0000000002400030014000080240BB
:101B700010B5FFF73DFF00F011F9062224494FF49C
:101B8000106000F0E5F9042222494FF4A06000F053
:101B9000DFF904222049900100F0DAF904221F49FC
:101BA0004FF4706000F0D4F91D490888C11700EBAC
:101BB0001161090A1B4A117019490888C11700EB05
:101BC00011610912A0EB01215170022215494FF455
:101BD000C85000F0BDF9144801784FF4D85000F017
:101BE000DFF9002411E0114A115D41F6087202EBA1
:101BF000441000F0D5F90E4A115D41F6086202EB7F
:101C0000441000F0CDF9601CC4B2082CEBDB10BD11
:101C1000800000208E0000208A0000208600002026
:101C20009A000020D40000209C000020C600002064
:101C3000BE00002070B505460222244942F2086029
:101C400000F066F821484178007801EB0020204937
:101C5000087002221D4942F6080000F059F81B489E
:101C60004178007801EB002084B2194909786018A6
:101C7000C11700EB1161090A164A1170144909785D
:101C80006018C11700EB11610912A0EB012151701E
:101C9000002000EB042000F118060D4802782946C8
:101CA000304600F035F802220A4942F6080000F0FA
:101CB0004FF940214FF4847000F072F900BF4FF4E7
:101CC000847000F04DF80028F9D170BDD6000020D6
:101CD00094000020D400002010B5044600BF02216B
:101CE0000A4800F0A3FB0028F9D02146074800F07D
:101CF000A9FB00BF0121054800F098FB0028F9D09E
:101D0000024800F09CFBC0B210BD00000030014052
:101D10002DE9F04104460E46174610210F48FEF704
:101D20002EFEC4F30740FFF7D7FFC4F30720FFF7E9
:101D3000D3FF04F0F800FFF7CFFF002505E00020F7
:101D4000FFF7CAFF7055681C85B2BD42F7DB102152
:101D50000248FEF716FEBDE8F081000000000240D8
:101D600070B5044610210C48FEF709FEC4F3074085
:101D7000FFF7B2FFC4F30720FFF7AEFF04F0F8004F
:101D8000FFF7AAFF0020FFF7A7FF05461021024832
:101D9000FEF7F7FD284670BD0000024070B5042133
:101DA0000E48FEF7ECFD002401E0601C84B246F210
:101DB000A8108442F9DB04210848FEF7E2FD002464
:101DC00009E0002501E0681C85B240F6C410854298
:101DD000F9DB601C84B2322CF3DB70BD00000240E2
:101DE00070B5002501214FF4C05000F0D9F80F2143
:101DF00042F6084000F0D4F8FEF75DFC21210820EF
:101E000000F0CEF82F490888C11700EB1161090ACC
:101E10002D4A11702B490888C11700EB1161091276
:101E2000A0EB01215170022227494FF4816000F09C
:101E30008FF8012142F6087000F0B2F800BF0121CE
:101E40004FF4847000F0ACF8002401E0601CC4B2D0
:101E5000142CFBDB05E0002401E0601CC4B2142C50
:101E6000FBDB4FF48470FFF77BFF0028F3D14FF4C6
:101E70004270FFF775FF13280AD0681CC5B20A2DFF
:101E800002DAFEF718FCDAE7FEF715FC002070BD59
:101E900002214FF4847000F083F8002401E0601CFC
:101EA000C4B2142CFBDB05E0002401E0601CC4B2CA
:101EB000142CFBDB4FF48470FFF752FF0028F3D1A2
:101EC0000120E4E792000020D40000202DE9F04139
:101ED00006460D4602221C4942F20840FFF718FF51
:101EE00019484178007801EB002084B2002000EB13
:101EF000042000F110072A463146384600F028F841
:101F0000601984B22046E11704EB1161090A0F4AF7
:101F10001170E11704EB11610912A4EB012151705A
:101F200002220A4942F2084000F012F820214FF440
:101F3000847000F035F800BF4FF48470FFF710FF95
:101F40000028F9D1BDE8F081D6000020D40000209F
:101F50002DE9F04104460E46174610210F48FEF7C2
:101F60000EFDC4F30740FFF7B7FEC4F30720FFF7E9
:101F7000B3FE04F0F801091DC8B2FFF7ADFE00255D
:101F800004E0705DFFF7A8FE681C85B2BD42F8DB77
:101F900010210248FEF7F5FCBDE8F0810000024088
:101FA00070B504460D4610210C48FEF7E8FCC4F35A
:101FB0000740FFF791FEC4F30720FFF78DFE04F002
:101FC000F801091DC8B2FFF787FE2846FFF784FE17
:101FD00010210248FEF7D5FC70BD00000000024051
:101FE00000B585B001210820FFF7EAF80120039031
:101FF0008DF8100000208DF8120003208DF81100DC
:1020000001208DF8130003A92C48FEF74DFC012197
:102010002A48FEF7B6FC01210846FFF7D1F8022056
:10202000039001208DF8100000208DF8120003208D
:102030008DF8110001208DF8130003A92048FEF748
:1020400033FC02211E48FEF79CFC01210846FFF7E5
:10205000B7F80120039000208DF8100003208DF8C0
:10206000110001208DF8130003A91548FEF71CFC90
:1020700001218803FFF7D4F80021084600F05EFA3A
:102080000120009000208DF804000C208DF8050040
:1020900001208DF806006846FEF7BCFB06208DF88F
:1020A000080002208DF809008DF80A0001208DF843
:1020B0000B0002A8FEF754FD05B000BD000C024065
:1020C0000000024010B50024FFF78AFF012000F055
:1020D0004DFD00F0D7F901203E4908600A2000F0CC
:1020E00045FD00203C49C1F884020A2000F03EFD75
:1020F00040F2051202215620FEF7A2FD3748027871
:1021000002216020FEF79CFDFF2202216820FEF7DD
:1021100097FD012202215020FEF792FD30480278FF
:1021200002213C20FEF78CFD00BF16E02246022172
:102130002020FEF785FD072202213220FEF780FDD8
:102140002848025D02212220FEF77AFD2246022164
:102150003A20FEF775FD601CC4B2122CE6DB4AF68D
:10216000A13202217020FEF76BFD00220221202007
:10217000FEF766FD002202217220FEF761FD0122BA
:1021800002212020FEF75CFD102202217220FEF7C2
:1021900057FD022211462020FEF752FD2022022187
:1021A0007220FEF74DFD032202212020FEF748FD9C
:1021B000302202217220FEF743FD0B4A03212A2020
:1021C000FEF73EFD4FF4447202212420FEF738FD55
:1021D00010BD000084024042000040420000002088
:1021E0002500002040150020FFFF03002DE9F041ED
:1021F00003214020FEF7FAFC8046002431E0012054
:10220000A04000EA080050B30120A0401749096827
:10221000084316490860224602212020FEF710FDDF
:1022200002212620FEF7E2FC054605F48070B0B1DD
:10223000EFB200200E490860482000F06BF800263D
:1022400008E0AA2000F066F80A4901EBC41188559D
:10225000701CC6B2BE42F4DB012005490860601C58
:10226000C4B2122CCBDBBDE8F081000020000020BE
:1022700080824142400C002070B50020FEF75CFCDB
:1022800000242DE00120A0401D490968084028B322
:10229000224602212020FEF7D3FC1A48005D1A498D
:1022A000095D40EA012202212620FEF7C9FC002038
:1022B00016490860B42000F02DF8002507E0144905
:1022C00001EBC411485D00F025F8681CC5B20D484B
:1022D000005DA842F3DC01200C490860601CC4B218
:1022E000122CCFDB0648026803213620FEF7A8FC3B
:1022F0000120FEF721FC00200149086070BD0000AC
:102300001C000020521500206415002080824142EC
:102310004003002010B5044600BF02210A4800F027
:1023200085F80028F9D02146074800F08BF800BF57
:102330000121054800F07AF80028F9D0024800F0A1
:102340007EF8C0B210BD0000003C004021B1028800
:1023500042F40052028004E002884DF6FF731A40F6
:102360000280704721B1028842F04002028004E0FE
:1023700002884FF6BF731A400280704710B50446BA
:102380002448844208D101218014FEF759FF00211E
:10239000A014FEF755FF3CE01F48844208D10121FC
:1023A0000014FEF72DFF00212014FEF729FF30E076
:1023B0001A48844208D10121C013FEF721FF0021F1
:1023C000E013FEF71DFF24E01548844208D10121E7
:1023D0004014FEF735FF00216014FEF731FF18E0CE
:1023E0001048844209D101210805FEF729FF002188
:1023F0004FF48010FEF724FF0BE00B48844208D115
:1024000001214805FEF71CFF00214FF40010FEF7E4
:1024100017FF10BD0030014000380040003C004074
:1024200000340140005001400054014002460020A9
:1024300013890B400BB1012000E0002070470146DA
:10244000888970478181704710B50022028802F4A4
:1024500041520B884C8823438C882343CC882343E8
:102460000C8923434C8923438C892343CC89234300
:102470001A430280838B4FF2FF74234083830B8ABD
:10248000038210BD00B587B001210420FEF798FE3D
:102490000121C803FEF7A4FE4FF4E050059002208E
:1024A0008DF8180000208DF81A0002208DF8190010
:1024B0008DF81B0005A91F48FEF7F6F906220A2130
:1024C0001C48FEF739FA06220B211A48FEF734FAA7
:1024D00006220C211748FEF72FFA1748FFF74EFF88
:1024E0000020ADF800004FF48270ADF8020000202B
:1024F000ADF80400ADF80600ADF808004FF4007028
:10250000ADF80A001020ADF80C000020ADF80E0068
:102510000720ADF8100069460748FFF795FF002136
:102520000548FFF713FF01210348FFF71BFF07B022
:1025300000BD000000080240003C004030B5002211
:102540008B071C0F0F2303FA04F20B4B8C1053F86C
:1025500024309343084C8D1044F8253023468C10CA
:1025600053F824308C07240F00FA04F42343024C60
:102570008D1044F8253030BD083801400CB50020DE
:10258000019000903448006840F48030324908607F
:1025900000BF3148006800F4003000900198401CF2
:1025A0000190009818B90198B0F5A04FF1D12A48D0
:1025B000006800F4003010B10120009001E000201C
:1025C00000900098012846D123484030006840F030
:1025D00080502149403108602048006840F4404064
:1025E0001E4908601C48083000681B490831086013
:1025F0000846006840F4004008600846006840F45F
:10260000A05008601648091F0860081F006840F0C5
:102610008070091F086000BF0F48006800F000705C
:102620000028F9D040F205700E4908600A480830C9
:10263000006820F003000849083108600846006877
:1026400040F00200086000BF03480830006800F056
:102650000C000828F8D10CBD003802400070004082
:1026600008544007003C0240042808D14FF0E02104
:10267000096941F004014FF0E022116107E04FF0D9
:10268000E021096921F004014FF0E0221161704757
:1026900010B51548006840F47000134908601348ED
:1026A000006840F001001149086000200F4908311E
:1026B00008600E4800680E4908400C4908600D4843
:1026C000091D0860081F006820F48020091F0860A9
:1026D000002006490C310860FFF750FF4FF0006002
:1026E00001498039086010BD88ED00E000380240E3
:1026F000FFFFF6FE1030002410B50121064800F05F
:10270000DCF8012803D141020448FEF73CF901211D
:10271000014800F0C3F810BD00040040000402406E
:102720007FB505460C4601210220FEF759FD0295B2
:10273000ADF804400020ADF80600ADF80C0001A98A
:102740000D4800F0D5F8012211460B4800F0C6F8FC
:102750000121094800F0A5F81D208DF80000012096
:102760008DF8010003208DF8020000208DF8030091
:102770006846FEF7F5F97FBD0004004070B5012101
:10278000294800F09AF8012849D12848006808B97A
:10279000012000E00020254908604FF44270FEF758
:1027A0001FFF05464FF44270FFF7DAFA04460CB1FA
:1027B0001C2C0AD100201D49091F0860FFF7D8F919
:1027C000FFF70EFB00201A490870132C01D0142CBF
:1027D00002D1002016490870172C04D1012013499A
:1027E000091F086003E000201049091F08600DB1AF
:1027F0001C2D04D100200F4908600F490870132DCB
:1028000001D0142D02D100200B490870172D03D1DF
:1028100001200849086002E0002006490860012103
:10282000014800F03BF870BD0008004084024242BD
:10283000960000209C824042760000201FB50121B6
:102840000420FEF7CDFC42F20F70029042F2CF005E
:10285000ADF804000020ADF80600ADF80C0001A9A9
:102860000D4800F045F8012211460B4800F036F8FB
:102870000121094800F015F81E208DF80000022003
:102880008DF801008DF8020001208DF803006846E4
:10289000FEF766F91FBD000000080040CA4302822F
:1028A000704721B1028842F00102028004E00288F0
:1028B0004FF6FE731A400280704730B50246002082
:1028C00000230024158A05EA0103958905EA01041D
:1028D00013B10CB1012000E0002030BD1AB1838992
:1028E0000B43838102E083898B438381704700001F
:1028F00000220288184B98420ED0184B98420BD0F9
:10290000B0F1804F08D0164B984205D0154B984235
:1029100002D0154B984204D14FF68F731A404B8862
:102920001A43124B984207D0114B984204D04FF6ED
:10293000FF431A400B891A4302804B68C3620B881D
:102940000385054B984202D0044B984201D18B7A03
:102950000386012383827047000001400004014088
:102960000004004000080040000C0040001000403F
:102970000014004010B540F22551204800F048F8FE
:1029800090B31E4800F06EF8C4B21D48007848B9F4
:10299000102C01D0682C05D10120194908700020A5
:1029A00018490870184817490978445415480078A0
:1029B000401C1449087014480078102806D10846B5
:1029C0000078052802D100200D4908700E480078D3
:1029D000682809D10C484078801D0A490978884246
:1029E00002D10020064908700848006808B9012093
:1029F00000E000200549086010BD00000010014003
:102A0000D8000020D90000204C350020A48240428C
:102A100070B50246002400230025002040F66A1607
:102A2000B14200D100BFC1F3421501F01F030126DE
:102A300006FA03F3012D02D19689334006E0022DF8
:102A400002D1168A334001E0968A33400C120126E7
:102A500006FA04F41688344013B10CB1012000E0EA
:102A6000002070BD01468888C0F308007047000050
:102A70000020014908607047082C004010B5064846
:102A8000007800F00BF8FFF7F3FF002401E0601C72
:102A9000C4B2042CFBDB10BDDA00002000F07F0183
:102AA000014A116070470000002C004010B5044638
:102AB0006FF00400FFF7D8FDE11704EB5171C1F38B
:102AC000C701074A11701046007800EB4001C1EBC6
:102AD000C0104FF6FF7101EAC0000249088010BD26
:102AE000DC000020DE00002070B504464FF40770C3
:102AF00094FBF0F0C6B24FF4077094FBF0F100FBCA
:102B0000114085B205E04FF4077000F009F8701E1F
:102B1000C6B2002EF7D115B1284600F001F870BDFD
:102B20000146114A12884A434FF0E0235A610022BD
:102B30009A611A46126942F001021A6100BF4FF011
:102B4000E022106900F001021AB100F48032002A7C
:102B5000F5D04FF0E022126922F001024FF0E0239D
:102B60001A6100229A617047DE00002010B5002330
:102B70000EE0002107E0002201E0541CA2B2642A0A
:102B8000FBDB4C1CA1B2B1F5C87FF4DB5C1CA3B22B
:102B90008342EEDB10BD00001CB501214020FEF792
:102BA0000FFB4FF49060009001208DF8040000208E
:102BB0008DF8060003208DF8050001208DF8070030
:102BC00069462148FDF770FE80211F48FDF7D7FEBA
:102BD0004FF480611C48FDF7D4FE01211020FEF760
:102BE000EFFA0320009001208DF8040000208DF8FA
:102BF000060003208DF8050001208DF807006946C6
:102C00001248FDF751FE03211048FDF7B8FE0121DF
:102C10000220FEF7D5FA4FF46070009001208DF885
:102C2000040000208DF8060003208DF80500012027
:102C30008DF8070069460648FDF736FE4FF46071CF
:102C40000348FDF79CFE1CBD001802400010024026
:102C5000000402404FF4A060FDF7BEFFA820FFF77C
:102C600025FFFFF799FF01204149086000204149F5
:102C7000C1F8A8020520404908700A20FFF734FF78
:102C8000FDF736FC0A20FFF72FFFFDF781FE00203D
:102C90003A4908700CE0394800788000143038490F
:102CA000364A1278885435480078401C33490870F9
:102CB000324800781228EEDB0020304908701FE00F
:102CC00000203049088012E000202C49097801EBEF
:102CD000410202EB01112C4A02EB8101294A1288C0
:102CE00041F8220027480088401C264908802548D2
:102CF00000881328E8DB21480078401C1F49087031
:102D00001E4800780728DBDBFFF7DCF90A20FFF715
:102D1000EBFE42F2CF0142F21070FFF701FDC0203E
:102D20001A490870A8204870012088704720C87090
:102D300040F67E6016490880FEF71AFFFFF750F84C
:102D40000A20FFF7D1FEFEF751FBFFF777FD114890
:102D50000068401C0F49086008E00F48007801280F
:102D600003D10320FDF798FF00BF00BFF5E7000087
:102D70009C0243420000434225000020BC0000208A
:102D800040150020B00000202C0100207900002018
:102D90007E000020B8000020A20000204FF040700C
:102DA000E1EE100A70470000C82D00080000002066
:102DB000E0000000C4010008A82E0008E000002088
:102DC000D03B0000E001000800000000000000000F
:102DD0000000000000050E4CC0A801420E56C0A81D
:102DE00001430000000000000000000000006461DA
:102DF00071690005010006060C1012150B030F4E39
:102E00004F50676DC8252B0319444E5A0C101215EC
:102E10000B030F4E4F50676DC8252B0319444E5AB4
:102E200000C0A801010064090008DC010203C0A879
:102E30000142C0A80101FFFFFF00F20400000000F2
:102E400000C0A801420000000008DC010203C0A885
:102E50000142C0A80101FFFFFF00F20400000000D2
:102E600000008813030000000000000000000100C3
:102E70000000000000000000000000000000000052
:102E80000000000000000802010101010101080228
:102E90000101010101010000000102030000000026
:082EA00000007F0000000000AB
:040000050800018965
:00000001FF
