:020000040800F2
:10000000B03C002029020008310200083302000839
:10001000350200083702000839020008000000001D
:100020000000000000000000000000003B0200088B
:100030003D020008000000003F02000841020008E5
:100040003128000843020008430200084302000868
:100050004302000843020008F506000843020008B6
:10006000430200084302000843020008430200085C
:10007000430200084302000843020008430200084C
:10008000430200084302000843020008430200083C
:1000900043020008430200084302000885070008E5
:1000A000430200084302000843020008430200081C
:1000B00043020008AD24000831250008430200086F
:1000C00043020008430200084302000843020008FC
:1000D00043020008292700084302000843020008E1
:1000E00025070008430200084302000843020008F5
:1000F00043020008430200084302000843020008CC
:1001000043020008430200084302000843020008BB
:1001100043020008430200084302000843020008AB
:10012000430200084302000843020008430200089B
:10013000430200084302000843020008430200088B
:10014000430200084302000843020008430200087B
:10015000430200084302000843020008430200086B
:10016000430200084302000843020008430200085B
:10017000430200084302000843020008430200084B
:10018000430200084302000800F002F800F03CF8C7
:100190000AA090E8000C82448344AAF10107DA45E2
:1001A00001D100F031F8AFF2090EBAE80F0013F0F8
:1001B000010F18BFFB1A43F001031847A4290000E0
:1001C000C4290000103A24BF78C878C1FAD8520771
:1001D00024BF30C830C144BF04680C6070470000C1
:1001E0000023002400250026103A28BF78C1FBD840
:1001F000520728BF30C148BF0B6070471FB502F0DF
:10020000A9FC1FBD10B510BD00F031F81146FFF775
:10021000F5FF02F0F9FB00F04FF803B4FFF7F2FF2F
:1002200003BC00F057F80000094880470948004720
:10023000FEE7FEE7FEE7FEE7FEE7FEE7FEE7FEE796
:10024000FEE7FEE704480549054A064B70470000F3
:100250004524000889010008B0360020B03C002089
:10026000B0380020B038002070477047704775469E
:1002700000F02CF8AE4605006946534620F0070012
:10028000854618B020B5FFF7DDFFBDE820404FF0F0
:1002900000064FF000074FF000084FF0000B21F070
:1002A0000701AC46ACE8C009ACE8C009ACE8C0093D
:1002B000ACE8C0098D46704710B50446AFF3008026
:1002C0002046BDE81040FFF7A8BF00000048704777
:1002D0004C36002001491820ABBEFEE72600020084
:1002E000704700001CB50121082000F015FF4FF4F5
:1002F0004050009001208DF8040000208DF8060089
:1003000003208DF8050001208DF807006946054897
:1003100000F0CAFA0120044908600449C1F8B40297
:100320001CBD0000000C0240B082414200804142EE
:100330000021124A11601249096821F04061104AF7
:1003400011601146096841F08061116000210D4A79
:10035000C2F8B412002001E0411CC8B21428FBDB33
:100360000121064A1160002001E0411CC8B2142896
:10037000FBDB0021014A116070470000B08241425E
:10038000000C0240008041420021104A11601049D7
:10039000096821F040610E4A11601146096841F078
:1003A00080611160002001E0411CC8B21428FBDB11
:1003B0000121064A1160002001E0411CC8B2142846
:1003C000FBDB0021014A116070470000B08241420E
:1003D000000C02401249096821F04061104A116086
:1003E0001146096841F08061116001210D4A1160D8
:1003F0000D4AC2F8B012002001E0411CC8B23228F8
:10040000FBDB0021074A1160002001E0411CC8B25B
:100410003228FBDB0021034A121F116070470000E5
:10042000000C0240B48241420080414212490968F6
:1004300021F04061104A11601146096841F0806165
:10044000116000210D4A11600D4AC2F8B01200205F
:1004500001E0411CC8B23228FBDB0121074A121F10
:100460001160074AC2F8B412002001E0411CC8B272
:100470003228FBDB70470000000C0240B48241428E
:100480000080414210B5002400231748006820F086
:10049000406015490860084600680860012013495B
:1004A000086000BF01E0581CC3B2142BFBDB012025
:1004B0000E49091F0860002301E0581CC3B2142B29
:1004C000FBDB07E0601CC4B2FA2C03DDFFF7AEFFD4
:1004D000012010BD0548803800680028F2D103498A
:1004E000091F086000BFF4E7000C0240B4824142DB
:1004F00010B5FFF7F7FE10BD70B506460C46154661
:1005000008E03046721CD6B200F007F804F8010B80
:10051000681EC5B2002DF4D170BD30B50446FFF79A
:1005200059FFA02000F04EF8FFF7ACFF204600F086
:1005300049F8FFF7A7FFFFF74DFFA12000F042F8B1
:10054000FFF7A0FF002000F005F80546FFF76EFF5B
:10055000284630BD70B505461748006820F0406059
:100560001549086008460068086000261AE0002067
:1005700012490860002301E0581CC3B2142BFBDBB6
:1005800001200E4908606006040E0D48D0F83402C0
:100590002044C4B2002301E0581CC3B2142BFBDB7F
:1005A000701CC6B2082EE2DB15B1FFF7C1FE01E0F8
:1005B000FFF7EAFE204670BD000C0240B0824142C7
:1005C0000080414210B50146194B1B6823F040637F
:1005D000174C236023461B6843F08063236000238D
:1005E000144C236000221FE0CB09124C241D236011
:1005F0004B06190E002001E0431CD8B21428FBDB87
:1006000001230C4C2360002001E0431CD8B21428C5
:10061000FBDB0023074C2360002001E0431CD8B221
:100620001428FBDB531CDAB2082ADDDB10BD000006
:10063000000C0240B082414270B506460C46FFF7FE
:10064000C9FEA020FFF7BEFFFFF71CFF3046FFF7F3
:10065000B9FFFFF717FF2046FFF7B4FFFFF712FFC0
:10066000FFF7E4FE002500E06D1C02488542FBD345
:1006700070BD000040420F0010B510214FF484708F
:1006800000F0C8FF002401E0601CC4B2142CFBDBA6
:1006900005E0002401E0601CC4B2142CFBDB4FF425
:1006A000847000F049FF0028F3D1FF214FF402705D
:1006B00000F0B0FF10BD10B510214FF4847001F0B0
:1006C00049FB002401E0601CC4B2142CFBDB05E0F4
:1006D000002401E0601CC4B2142CFBDB4FF48470D6
:1006E00001F018FA0028F3D1FF214FF4027001F055
:1006F00031FB10BD10B5012000F080F878B1022167
:10070000522000F073FA84B204F0010020B101F02D
:1007100047FC012002490870012000F069F810BD73
:100720002400002010B54FF4804000F067F828B393
:100730004FF4027000F000FF044604F0010020B105
:1007400001214FF4027000F065FF04F0040038B19D
:100750000B4800F059FE04214FF4027000F05AFFDC
:1007600004F0020030B102214FF4027000F052FF99
:10077000FFF782FF4FF4804000F03AF810BD000010
:10078000AC15002010B5202000F038F860B34FF40D
:10079000027001F0BFF9044604F0010020B101210C
:1007A0004FF4027001F0D6FA04F0040048B10F488B
:1007B00001F01AF904214FF4027001F0CBFA00F0B5
:1007C0004BFF04F0020020B102214FF4027001F04F
:1007D000C1FA04F0080020B108214FF4027001F0C2
:1007E000B9FA202000F004F810BD0000AC1D002074
:1007F0000149086070470000143C01400146002098
:10080000034A12680A400AB1012000E00020704744
:10081000143C0140002123498279002A3AD00A463B
:10082000126803689A430B461A600A1D126803682F
:100830009A430B1D1A60027911440A6803681A432F
:100840000A60184A0832126803689A43154B083345
:100850001A601A1D126803689A43124B0C331A600F
:100860004279102A0ED11A1F126803681A430D4BE1
:1008700008331A601A1D126803681A43094B0C33B7
:100880001A600DE00749427911440A6803681A4367
:100890000A6005E0027911440A6803689A430A6015
:1008A00070470000003C0140F0B50A4600210023DB
:1008B000002400BF3DE0012505FA01F3156805EAB3
:1008C00003049C4234D105684F000326BE40B54363
:1008D000056015794E00B540066835430560157909
:1008E000012D02D01579022D16D185684F000326FF
:1008F000BE40B543856055794E00B54086683543A6
:100900008560456801268E40B54345604568967907
:100910008E40B6B235434560C5684F000326BE40E1
:10092000B543C560D5794E00B540C6683543C5604E
:10093000491C1029BFD3F0BDF0B5002300244D079A
:10094000ED0E02FA05F3CE1000F1200555F8265001
:100950004E07F70E0F26BE40B543CF1000F120061C
:1009600046F82750CE1000F1200555F8265045EAEC
:100970000304CE1000F1200545F82640F0BD418368
:1009800070470183704742694A40426170470000E6
:1009900000B50020FFF7C1FD5A4908700120FFF79C
:1009A000BCFD59490880084600884FF6FF7101EAEE
:1009B0000020554908800220FFF7AFFD5249098801
:1009C000084451490880042250490320FFF794FD50
:1009D0004C490978642211FB02F0C11700EB116148
:1009E0000912A0EB01214A4AD1704649097801EB6E
:1009F00081014800C11700EB11610912A0EB012130
:100A000011714049097801EB81014800C11700EBE1
:100A100011610912A0EB012151710720FFF77DFD43
:100A20003C490880084600884FF6FF7101EA002023
:100A3000384908800820FFF770FD364909880844C6
:100A400034490880042234490920FFF755FD2D4917
:100A5000097801EBC10202EB0111012202EB8100D6
:100A6000C11700EB11610912A0EB01212B4AD170D3
:100A70002449097801EB8101012202EB4100C117F1
:100A800000EB11610912A0EB0121244A11711D49EB
:100A9000097801EB81014800C11700EB11610912CF
:100AA000A0EB0121517104221D490D20FFF724FD07
:100AB0001120FFF732FD1B490880084600884FF6D9
:100AC000FF7101EA0020174908801220FFF725FD79
:100AD000144909880844134908801320FFF71DFDB5
:100AE000114908701420FFF718FD104908700722FB
:100AF0000F491520FFF700FD2020FFF70EFD0D49DF
:100B0000087000BD00000020720000206600002078
:100B1000600000209200002086000020800000205D
:100B2000790000207E000020080000202500002021
:100B300001000020A200002038B10849096844F2F1
:100B400021021143054A116006E00449096844F294
:100B500021029143014A116070470000003C0140AE
:100B600070B5002100230F22C4781CB3174C2468F1
:100B700004F4E064C4F5E064C4F30721C1F10404A3
:100B8000E3B20A4144789C40E1B2847814402143A6
:100B90000C07210E0E4C05786155047804F01F05F2
:100BA0000124AC4005786D11AD0005F1E025C5F8D4
:100BB000004109E0047804F01F050124AC40054D14
:100BC0000678761145F8264070BD00000CED00E077
:100BD00000E400E080E100E002490143024A1160C4
:100BE000704700000000FA050CED00E02DE9F0412F
:100BF00006460F46002400201049086006F07F06D4
:100C0000304601F061FA0546032F05D1304601F068
:100C10005BFA05462C442402304601F055FA05469D
:100C20002C442402304601F04FFA05462C440120A2
:100C3000024908602046BDE8F08100008082414200
:100C40002DE9F04105460E461446002700201149C3
:100C5000086005F07F0040F08005284601F034FA76
:100C60008046032E05D1C4F30747384601F02CFA1D
:100C70008046C4F30727384601F026FA8046E7B2DB
:100C8000384601F021FA8046012002490860BDE89B
:100C9000F0810000808241422DE9F04780464FF00C
:100CA0000009FE48007801287DD1002401E100BF41
:100CB000FB480078012877D1FA48005D002873D0FE
:100CC000F948FA49086004EB440000EB0410F849C5
:100CD00051F82000401C04EB440101EB0411F44ADC
:100CE00042F82100002572E0EE48005DF14901EB79
:100CF000C5110870F0480078EE4901EBC511487045
:100D0000EE480078EB4901EBC511887000261EE023
:100D1000EB48815DE74800EBC5127000C01C115420
:100D20000120B040E1490968084038B10121E1489B
:100D300000EBC5127000001D115406E00021DD48D3
:100D400000EBC5127000001D1154701CC6B2122EAB
:100D5000DEDB04EB440000EB0410D54951F8200021
:100D6000000ED44901EBC51181F8270004EB4400C3
:100D700000EB0410CE4951F82000000CCD4901EBE6
:100D8000C51181F8280004EB440000EB0410C849A9
:100D900031F82000000AC74901EBC51181F829008C
:100DA00004EB440001E087E081E000EB0410C0495F
:100DB00011F82000BF4901EBC51181F82A002B2052
:100DC000C04948550020C0494855681CC5B2122D7D
:100DD0008ADB01F02BF90020B4490860BB490860A8
:100DE00007E0BA48006887B241F28830874200DDE8
:100DF00003E0B74800780028F3D000BFB44800787B
:100E000030B9C14504DA09F1010000F0FF094FE7EC
:100E1000AF480078002845D00020AC49086005E0C4
:100E2000AA48006887B2C82F00DD04E0A94800681E
:100E30009D498842F4D100BF00252BE00120A84045
:100E4000A4490968084018B300261EE0A24800EB38
:100E5000C5117000001D085C012814D104EB44008A
:100E600000EB0410924901EB8001701C51F8200046
:100E7000401C04EB440101EB04118D4A02EB81029A
:100E8000711C42F82100701CC6B2122EDEDB03E09A
:100E9000681CC5B2122DD1DB00BF00208C49087040
:100EA0008C4908604FF00009002080490860601CF0
:100EB000C4B2072CFFF6FBAE7848007800287DD13D
:100EC00004E077480078012800D003E080480078EB
:100ED0000028F6D000BF7E48007800286ED00020A1
:100EE0007A49086006E07948006887B2B7F5967FCE
:100EF00000DD04E0774800686B498842F3D100BF09
:100F0000002432E00120A04072490968084050B333
:100F1000714800EBC4104078704908706E4800EBCF
:100F2000C41090F8270000066B4901EBC41191F83A
:100F3000281000EB0140684901EBC41191F8291019
:100F400000EB0120644901EBC41191F82A1001441F
:100F500062480078401E00EB400202EB0010544A49
:100F600042F8201003E0601CC4B2122CCADB00BFA0
:100F70000024B6E00120A04056490968084078B135
:100F800056490978491E01EB410202EB0111484A1A
:100F900002EB8102611C02EB81000168491C0160C7
:100FA0004E480078434901EBC4110870424800786C
:100FB000404901EBC4114870404800E0A1E00078CE
:100FC0003C4901EBC411887000261EE03C48815D5D
:100FD000384800EBC4127000C01C11540120B0400E
:100FE0003C490968084038B10121324800EBC4127D
:100FF0007000001D115406E000212E4800EBC412C1
:101000007000001D1154701CC6B2122EDEDB334876
:101010000078401E00EB400101EB0010244951F81C
:101020002000000E234901EBC41181F827002B4852
:101030000078401E00EB400101EB00101C4951F804
:101040002000000C1B4901EBC41181F82800234843
:101050000078401E00EB400101EB0010144931F80C
:101060002000000A134901EBC41181F829001B4834
:101070000078401E00EB400101EB00100C4911F814
:1010800020000C4901EBC41181F82A002B200D49E6
:10109000085500200C490855601C21E0080000207C
:1010A000A200002001000020FFFF03001C00002020
:1010B0002C0100204003002000000020250000201B
:1010C0004015002052150020641500202404004023
:1010D0002400002020000020400C00200C000020F4
:1010E000C4B2122CFFF646AF07480849086000203A
:1010F000074908600749087000F098FF002003497D
:101100000860BDE8F0870000FFFF03001C0000201E
:10111000200000202400002029B1064A1268024362
:10112000044B1A6004E0034A12688243014B1A60C0
:10113000704700003038024029B1064A1268024365
:10114000044B1A6004E0034A12688243014B1A60A0
:10115000704700004038024029B1064A1268024335
:10116000044B1A6004E0034A12688243014B1A6080
:10117000704700002038024029B1064A1268024335
:10118000044B1A6004E0034A12688243014B1A6060
:10119000704700004438024029B1064A12680243F1
:1011A000044B1A6004E0034A12688243014B1A6040
:1011B000704700002438024000B58BB00121102098
:1011C000FFF7AAFF4FF48050099001208DF8280006
:1011D00000208DF82A0003208DF8290001208DF8C9
:1011E0002B0009A95448FFF75FFB4FF48051524888
:1011F000FFF7C7FB01210220FFF78EFF01218803C3
:10120000FFF79AFF4FF48050099001208DF82800D5
:1012100000208DF82A0003208DF8290001208DF888
:101220002B0009A94548FFF73FFB4FF48051434885
:10123000FFF7A7FB4FF46040099002208DF82800CB
:1012400000208DF82A0002208DF8290001208DF859
:101250002B0009A93948FFF727FB05220D21374844
:10126000FFF76AFB05220E213448FFF765FB0522D4
:101270000F213248FFF760FB314800F059FF002092
:10128000ADF804004FF48270ADF806000020ADF810
:101290000800ADF80A00ADF80C004FF40070ADF88E
:1012A0000E000020ADF81000ADF812000720ADF8D8
:1012B000140001A9224800F0A1FF0121204800F0FC
:1012C0002BFF01211020FFF727FF4FF480400990EA
:1012D00000208DF8280003208DF8290001208DF8CA
:1012E0002B0009A91448FFF7DFFA01218803FFF753
:1012F00043FF0E21042000F0FBFF4FF480400790D5
:1013000000208DF820000C208DF8210001208DF8A0
:10131000220007A8FFF77EFA28208DF81800022087
:101320008DF819008DF81A0001208DF81B0006A811
:10133000FFF716FC0BB000BD001002400004024095
:101340000038004010B5FFF737FF00F015F906220E
:1013500024494FF4106000F033F9042222494FF47D
:10136000A06000F02DF904222049900100F028F936
:1013700004221F494FF4706000F022F91D490888CB
:10138000C11700EB1161090A1B4A1170194908883D
:10139000C11700EB11610912A0EB0121517002226B
:1013A00015494FF4C85000F00BF9144801784FF478
:1013B000D85000F02FF9002411E0114A115D41F6D8
:1013C000087202EB441000F025F90E4A115D41F657
:1013D000086202EB441000F01DF9601CC4B2082C36
:1013E000EBDB10BD600000206E0000206A000020D2
:1013F000660000209A000020D40000209C000020FD
:10140000C6000020BE00002070B505460222244917
:1014100042F2086000F066F821484178007801EB5C
:1014200000202049088002221D4942F6080000F0F1
:1014300059F81B484178007801EB002084B2194923
:1014400009886018C11700EB1161090A164A11706A
:10145000144909886018C11700EB11610912A0EB4B
:1014600001215170002000EB042000F118060D4806
:1014700002882946304600F035F802220A4942F631
:10148000080000F09DF840214FF4847000F0C2F88D
:1014900000BF4FF4847000F04FF80028F9D170BD00
:1014A000D600002074000020D400002010B50446AF
:1014B00000BF02210A4800F093FE0028F9D021461F
:1014C000074800F099FE00BF0121054800F088FEA2
:1014D0000028F9D0024800F08CFEC0B210BD000018
:1014E000003800402DE9F04104460E4617464FF4FF
:1014F00080511048FFF743FAC4F30740FFF7D6FFC7
:10150000C4F30720FFF7D2FF04F0F800FFF7CEFF87
:10151000002505E00020FFF7C9FF7055681C85B263
:10152000BD42F7DB4FF480510248FFF72AFABDE8CD
:10153000F08100000004024070B504464FF4805171
:101540000C48FFF71CFAC4F30740FFF7AFFFC4F3E2
:101550000720FFF7ABFF04F0F800FFF7A7FF00201C
:10156000FFF7A4FF05464FF480510248FFF709FA40
:10157000284670BD0004024070B54FF480510F48FA
:10158000FFF7FDF9002401E0601C84B246F2A810C8
:101590008442F9DB4FF480510848FFF7F2F9002448
:1015A00009E0002501E0681C85B240F6C4108542C0
:1015B000F9DB601C84B2322CF3DB70BD00100240FA
:1015C0002DE9F04104460E4617464FF4805110486D
:1015D000FFF7D5F9C4F30740FFF768FFC4F307200E
:1015E000FFF764FF04F0F801091DC8B2FFF75EFFC2
:1015F000002504E0705DFFF759FF681C85B2BD420D
:10160000F8DB4FF480510248FFF7BBF9BDE8F081E9
:101610000004024070B504460D464FF480510D4859
:10162000FFF7ADF9C4F30740FFF740FFC4F307200D
:10163000FFF73CFF04F0F801091DC8B2FFF736FFC1
:101640002846FFF733FF4FF480510248FFF799F91E
:1016500070BD00000004024010B5474800783C28E7
:1016600075D146480078401E4349085C3E28F7D1B2
:10167000084640784249097888420ED13C204149C9
:1016800008703F48007848703E20C87108213D48E6
:1016900000F0F6FA01203C490870374840783B4991
:1016A000097888420ED13C203649087037480078C6
:1016B00048703E20C8710821324800F0E1FA00204D
:1016C000314908702C4840783149097888422DD139
:1016D000294880782F490870002406E0E01C26493C
:1016E000085C2D490855601CC4B2072CF6DB224863
:1016F000807A2A490870274801781320FEF79CFF5A
:10170000264801781420FEF797FF002408E0224ABB
:10171000115D04F11502D0B2FEF78EFF601CC4B259
:10172000072CF4DB1021144800F0AAFA1248407884
:101730001B49097888421ED13C201249087018487C
:1017400000784870134800788870002407E012E0A1
:101750001148015DE01C0B4A1154601CC4B2072CF7
:10176000F6DB0E480078074988723E20C8731021C6
:10177000044800F085FA10BDAC1D00209400002044
:10178000D0000020AC21002096000020D1000020D5
:10179000D2000020080000200100002025000020C9
:1017A000D300002000B58BB001210846FFF7B4FC40
:1017B0000420099001208DF8280000208DF82A00CF
:1017C00003208DF8290001208DF82B0009A952482B
:1017D000FFF76AF804215048FFF7D3F801210846C3
:1017E000FFF79AFC01210803FFF7C6FC10200990BF
:1017F00001208DF8280000208DF82A0003208DF8A4
:10180000290001208DF82B0009A94348FFF74CF867
:1018100010214148FFF7B5F8E020099002208DF82B
:10182000280000208DF82A0002208DF829000120D0
:101830008DF82B0009A93848FFF736F80522114624
:101840003548FFF779F8052206213348FFF774F889
:10185000052207213048FFF76FF8304800F068FC98
:101860000020ADF804004FF48270ADF806000020AF
:10187000ADF80800ADF80A00ADF80C004FF40070A8
:10188000ADF80E000020ADF81000ADF812000720F2
:10189000ADF8140001A9214800F0B0FC01211F4857
:1018A00000F03AFC01210420FFF736FC20200990CB
:1018B00000208DF8280003208DF8290001208DF8E4
:1018C0002B0009A91648FEF7EFFF01218803FFF757
:1018D00053FC0521022000F00BFD20200790002082
:1018E0008DF820000C208DF8210001208DF82200B9
:1018F00007A8FEF78FFF17208DF8180002208DF83B
:1019000019008DF81A0001208DF81B0006A8FFF7BA
:1019100027F90BB000BD000000000240003001407C
:101920000008024010B5FFF73DFF00F011F9062254
:1019300024494FF4106000F0E5F9042222494FF4E5
:10194000A06000F0DFF904222049900100F0DAF9EC
:1019500004221F494FF4706000F0D4F91D49088833
:10196000C11700EB1161090A1B4A11701949088857
:10197000C11700EB11610912A0EB01215170022285
:1019800015494FF4C85000F0BDF9144801784FF4E0
:10199000D85000F0DFF9002411E0114A115D41F642
:1019A000087202EB441000F0D5F90E4A115D41F6C1
:1019B000086202EB441000F0CDF9601CC4B2082CA0
:1019C000EBDB10BD800000208E0000208A0000208C
:1019D000860000209A000020D40000209C000020F7
:1019E000C6000020BE00002070B505460222244932
:1019F00042F2086000F066F821484178007801EB77
:101A000000202049087002221D4942F6080000F01B
:101A100059F81B484178007801EB002084B219493D
:101A200009786018C11700EB1161090A164A117094
:101A3000144909786018C11700EB11610912A0EB75
:101A400001215170002000EB042000F118060D4820
:101A500002782946304600F035F802220A4942F65B
:101A6000080000F04FF940214FF4847000F072F943
:101A700000BF4FF4847000F04DF80028F9D170BD1C
:101A8000D600002094000020D400002010B50446A9
:101A900000BF02210A4800F0A3FB0028F9D021462C
:101AA000074800F0A9FB00BF0121054800F098FBA2
:101AB0000028F9D0024800F09CFBC0B210BD000025
:101AC000003001402DE9F04104460E461746102132
:101AD0000F48FEF754FFC4F30740FFF7D7FFC4F3E6
:101AE0000720FFF7D3FF04F0F800FFF7CFFF002532
:101AF00005E00020FFF7CAFF7055681C85B2BD42A3
:101B0000F7DB10210248FEF73CFFBDE8F081000042
:101B10000000024070B5044610210C48FEF72FFF6C
:101B2000C4F30740FFF7B2FFC4F30720FFF7AEFF8F
:101B300004F0F800FFF7AAFF0020FFF7A7FF054613
:101B400010210248FEF71DFF284670BD000002402C
:101B500070B504210E48FEF712FF002401E0601C5E
:101B600084B246F2A8108442F9DB04210848FEF74B
:101B700008FF002409E0002501E0681C85B240F65A
:101B8000C4108542F9DB601C84B2322CF3DB70BDDB
:101B90000000024070B5002501214FF4C05000F054
:101BA000D9F80F2142F6084000F0D4F8FEF783FD83
:101BB0002121082000F0CEF82F490888C11700EB3A
:101BC0001161090A2D4A11702B490888C11700EBD1
:101BD00011610912A0EB01215170022227494FF433
:101BE000816000F08FF8012142F6087000F0B2F831
:101BF00000BF01214FF4847000F0ACF8002401E034
:101C0000601CC4B2142CFBDB05E0002401E0601C66
:101C1000C4B2142CFBDB4FF48470FFF77BFF002869
:101C2000F3D14FF44270FFF775FF13280AD0681CF8
:101C3000C5B20A2D02DAFEF73EFDDAE7FEF73BFDFC
:101C4000002070BD02214FF4847000F083F800245E
:101C500001E0601CC4B2142CFBDB05E0002401E0B1
:101C6000601CC4B2142CFBDB4FF48470FFF752FFEE
:101C70000028F3D10120E4E792000020D4000020E6
:101C80002DE9F04106460D4602221C4942F2084069
:101C9000FFF718FF19484178007801EB002084B263
:101CA000002000EB042000F110072A463146384698
:101CB00000F028F8601984B22046E11704EB1161A6
:101CC000090A0F4A1170E11704EB11610912A4EB24
:101CD0000121517002220A4942F2084000F012F834
:101CE00020214FF4847000F035F800BF4FF4847069
:101CF000FFF710FF0028F9D1BDE8F081D6000020E1
:101D0000D40000202DE9F04104460E46174610216C
:101D10000F48FEF734FEC4F30740FFF7B7FEC4F3E5
:101D20000720FFF7B3FE04F0F801091DC8B2FFF762
:101D3000ADFE002504E0705DFFF7A8FE681C85B2CB
:101D4000BD42F8DB10210248FEF71BFEBDE8F08122
:101D50000000024070B504460D4610210C48FEF705
:101D60000EFEC4F30740FFF791FEC4F30720FFF710
:101D70008DFE04F0F801091DC8B2FFF787FE284662
:101D8000FFF784FE10210248FEF7FBFD70BD000046
:101D90000000024000B585B001210820FFF7BCF922
:101DA000012003908DF8100000208DF81200032010
:101DB0008DF8110001208DF8130003A92C48FEF7BF
:101DC00073FD01212A48FEF7DCFD01210846FFF7DB
:101DD000A3F90220039001208DF8100000208DF857
:101DE000120003208DF8110001208DF8130003A9C3
:101DF0002048FEF759FD02211E48FEF7C2FD0121D1
:101E00000846FFF789F90120039000208DF81000A3
:101E100003208DF8110001208DF8130003A9154847
:101E2000FEF742FD01218803FFF7A6F900210846CD
:101E300000F05EFA0120009000208DF804000C20D4
:101E40008DF8050001208DF806006846FEF7E2FCDB
:101E500006208DF8080002208DF809008DF80A0090
:101E600001208DF80B0002A8FEF77AFE05B000BD38
:101E7000000C02400000024010B50024FFF78AFF6A
:101E8000012000F04DFD00F0D7F901203E49086027
:101E90000A2000F045FD00203C49C1F884020A20D8
:101EA00000F03EFD40F2051202215620FEF7C8FE6A
:101EB0003748027802216020FEF7C2FEFF2202218D
:101EC0006820FEF7BDFE012202215020FEF7B8FE79
:101ED0003048027802213C20FEF7B2FE00BF16E037
:101EE000224602212020FEF7ABFE072202213220EB
:101EF000FEF7A6FE2848025D02212220FEF7A0FE82
:101F0000224602213A20FEF79BFE601CC4B2122C2E
:101F1000E6DB4AF6A13202217020FEF791FE002294
:101F200002212020FEF78CFE002202217220FEF703
:101F300087FE012202212020FEF782FE10220221CC
:101F40007220FEF77DFE022211462020FEF778FE69
:101F5000202202217220FEF773FE0322022120209C
:101F6000FEF76EFE302202217220FEF769FE0B4A58
:101F700003212A20FEF764FE4FF44472022124203C
:101F8000FEF75EFE10BD00008402404200004042A9
:101F9000000000202500002040150020FFFF030066
:101FA0002DE9F04103214020FEF720FE8046002469
:101FB00031E00120A04000EA080050B30120A04019
:101FC0001749096808431649086022460221202063
:101FD000FEF736FE02212620FEF708FE054605F430
:101FE0008070B0B1EFB200200E490860482000F0C8
:101FF0006BF8002608E0AA2000F066F80A4901EB19
:10200000C4118855701CC6B2BE42F4DB01200549DC
:102010000860601CC4B2122CCBDBBDE8F08100006C
:102020002000002080824142400C002070B500203A
:10203000FEF782FD00242DE00120A0401D49096823
:10204000084028B3224602212020FEF7F9FD1A4855
:10205000005D1A49095D40EA012202212620FEF7AF
:10206000EFFD002016490860B42000F02DF800258F
:1020700007E0144901EBC411485D00F025F8681C25
:10208000C5B20D48005DA842F3DC01200C49086090
:10209000601CC4B2122CCFDB064802680321362034
:1020A000FEF7CEFD0120FEF747FD00200149086044
:1020B00070BD00001C000020521500206415002097
:1020C000808241424003002010B5044600BF022137
:1020D0000A4800F085F80028F9D02146074800F0AA
:1020E0008BF800BF0121054800F07AF80028F9D0EC
:1020F000024800F07EF8C0B210BD0000003C004075
:1021000021B1028842F40052028004E002884DF6B8
:10211000FF731A400280704721B1028842F04002EA
:10212000028004E002884FF6BF731A4002807047B5
:1021300010B504462448844208D101218014FFF7D9
:102140002BF80021A014FFF727F83CE01F48844239
:1021500008D101210014FEF7FFFF00212014FEF733
:10216000FBFF30E01A48844208D10121C013FEF77A
:10217000F3FF0021E013FEF7EFFF24E0154884424F
:1021800008D101214014FFF707F800216014FFF780
:1021900003F818E01048844209D101210805FEF730
:1021A000FBFF00214FF48010FEF7F6FF0BE00B4819
:1021B000844208D101214805FEF7EEFF00214FF4CB
:1021C0000010FEF7E9FF10BD00300140003800406C
:1021D000003C0040003401400050014000540140E8
:1021E0000246002013890B400BB1012000E00020C3
:1021F00070470146888970478181704710B5002279
:10220000028802F441520B884C8823438C88234374
:10221000CC8823430C8923434C8923438C89234353
:10222000CC8923431A430280838B4FF2FF742340EF
:1022300083830B8A038210BD00B587B0012104207F
:10224000FEF76AFF0121C803FEF776FF4FF4E05066
:10225000059002208DF8180000208DF81A00022049
:102260008DF819008DF81B0005A91F48FEF71CFB0F
:1022700006220A211C48FEF75FFB06220B211A48A2
:10228000FEF75AFB06220C211748FEF755FB1748AC
:10229000FFF74EFF0020ADF800004FF48270ADF85C
:1022A00002000020ADF80400ADF80600ADF808000B
:1022B0004FF40070ADF80A001020ADF80C000020BB
:1022C000ADF80E000720ADF8100069460748FFF78B
:1022D00095FF00210548FFF713FF01210348FFF791
:1022E0001BFF07B000BD000000080240003C00409A
:1022F00030B500228B071C0F0F2303FA04F20B4B9F
:102300008C1053F824309343084C8D1044F825303A
:1023100023468C1053F824308C07240F00FA04F461
:102320002343024C8D1044F8253030BD083801405D
:102330000CB50020019000903448006840F48030D3
:102340003249086000BF3148006800F40030009056
:102350000198401C0190009818B90198B0F5A04F61
:10236000F1D12A48006800F4003010B1012000903B
:1023700001E0002000900098012846D12348403019
:10238000006840F0805021494031086020480068D2
:1023900040F440401E4908601C48083000681B4952
:1023A000083108600846006840F4004008600846AC
:1023B000006840F4A05008601648091F0860081F14
:1023C000006840F08070091F086000BF0F48006877
:1023D00000F000700028F9D040F205700E49086046
:1023E0000A480830006820F00300084908310860F6
:1023F0000846006840F00200086000BF034808304B
:10240000006800F00C000828F8D10CBD003802402C
:102410000070004008544007003C0240042808D1E6
:102420004FF0E021096941F004014FF0E022116111
:1024300007E04FF0E021096921F004014FF0E022AC
:102440001161704710B51548006840F470001349D9
:1024500008601348006840F001001149086000203E
:102460000F49083108600E4800680E4908400C49C1
:1024700008600D48091D0860081F006820F48020CE
:10248000091F0860002006490C310860FFF750FF63
:102490004FF0006001498039086010BD88ED00E010
:1024A00000380240FFFFF6FE1030002410B5012175
:1024B000064800F0DCF8012803D141020448FEF789
:1024C00062FA0121014800F0C3F810BD0004004089
:1024D000000402407FB505460C4601210220FEF7AC
:1024E0002BFE0295ADF804400020ADF80600ADF8D3
:1024F0000C0001A90D4800F0D5F8012211460B4847
:1025000000F0C6F80121094800F0A5F81D208DF85B
:10251000000001208DF8010003208DF8020000204A
:102520008DF803006846FEF71BFB7FBD00040040EA
:1025300070B50121294800F09AF8012849D12848AE
:10254000006808B9012000E00020254908604FF428
:102550004270FEF7F1FF05464FF44270FFF7DAFADA
:1025600004460CB11C2C0AD100201D49091F08602B
:10257000FFF7D8F9FFF70EFB00201A490870132C5B
:1025800001D0142C02D1002016490870172C04D158
:1025900001201349091F086003E000201049091FAA
:1025A00008600DB11C2D04D100200F4908600F49AF
:1025B0000870132D01D0142D02D100200B49087092
:1025C000172D03D101200849086002E000200649C8
:1025D00008600121014800F03BF870BD0008004090
:1025E00084024242960000209C82404276000020F5
:1025F0001FB501210420FEF79FFD42F20F700290EB
:1026000042F2CF00ADF804000020ADF80600ADF8AE
:102610000C0001A90D4800F045F8012211460B48B5
:1026200000F036F80121094800F015F81E208DF859
:10263000000002208DF801008DF8020001208DF8C5
:1026400003006846FEF78CFA1FBD0000000800403A
:10265000CA430282704721B1028842F0010202801F
:1026600004E002884FF6FE731A400280704730B5CE
:102670000246002000230024158A05EA01039589FB
:1026800005EA010413B10CB1012000E0002030BDC7
:102690001AB183890B43838102E083898B43838151
:1026A0007047000000220288184B98420ED0184B49
:1026B00098420BD0B0F1804F08D0164B984205D00D
:1026C000154B984202D0154B984204D14FF68F73A8
:1026D0001A404B881A43124B984207D0114B98422C
:1026E00004D04FF6FF431A400B891A4302804B680F
:1026F000C3620B880385054B984202D0044B984275
:1027000001D18B7A03860123838270470000014048
:10271000000401400004004000080040000C00409C
:10272000001000400014004010B540F22551204830
:1027300000F048F890B31E4800F06EF8C4B21D488F
:10274000007848B9102C01D0682C05D10120194916
:10275000087000201849087018481749097844542F
:1027600015480078401C1449087014480078102857
:1027700006D108460078052802D100200D490870CE
:102780000E480078682809D10C484078801D0A4915
:102790000978884202D1002006490870084800687C
:1027A00008B9012000E000200549086010BD0000C4
:1027B00000100140D8000020D90000204C35002036
:1027C000A482404270B50246002400230025002068
:1027D00040F66A16B14200D100BFC1F3421501F0C4
:1027E0001F03012606FA03F3012D02D19689334017
:1027F00006E0022D02D1168A334001E0968A33406A
:102800000C12012606FA04F41688344013B10CB1F8
:10281000012000E0002070BD01468888C0F3080058
:10282000704700000020014908607047082C0040F4
:1028300010B50648007800F00BF8FFF7F3FF00240E
:1028400001E0601CC4B2042CFBDB10BDDA000020E8
:1028500000F07F01014A116070470000002C004029
:1028600010B504466FF00400FFF7D8FDE11704EB44
:102870005171C1F3C701074A11701046007800EB8F
:102880004001C1EBC0104FF6FF7101EAC0000249E0
:10289000088010BDDC000020DE00002070B504467A
:1028A0004FF4077094FBF0F0C6B24FF4077094FB3E
:1028B000F0F100FB114085B205E04FF4077000F025
:1028C00009F8701EC6B2002EF7D115B1284600F0E7
:1028D00001F870BD0146114A12884A434FF0E023C7
:1028E0005A6100229A611A46126942F001021A6185
:1028F00000BF4FF0E022106900F001021AB100F4AD
:102900008032002AF5D04FF0E022126922F0010255
:102910004FF0E0231A6100229A617047DE00002028
:1029200010B500230EE0002107E0002201E0541C56
:10293000A2B2642AFBDB4C1CA1B2B1F5C87FF4DB68
:102940005C1CA3B28342EEDB10BD00001CB501216C
:102950004020FEF7E1FB4FF49060009001208DF8DD
:10296000040000208DF8060003208DF805000120EA
:102970008DF8070069462148FDF796FF80211F4822
:10298000FDF7FDFF4FF480611C48FDF7FAFF0121C0
:102990001020FEF7C1FB0320009001208DF80400F9
:1029A00000208DF8060003208DF8050001208DF829
:1029B000070069461248FDF777FF03211048FDF72D
:1029C000DEFF01210220FEF7A7FB4FF460700090AC
:1029D00001208DF8040000208DF8060003208DF8FA
:1029E000050001208DF8070069460648FDF75CFFE9
:1029F0004FF460710348FDF7C2FF1CBD0018024090
:102A000000100240000402404FF4A060FEF7E4F81A
:102A1000A820FFF725FFFFF799FF01204249086032
:102A200000204249C1F8A8020520414908700A2047
:102A3000FFF734FFFDF75CFD0A20FFF72FFFFDF7DE
:102A4000A7FF00203B4908700CE03A48007880005E
:102A500014303949374A1278885436480078401C77
:102A600034490870334800781228EEDB00203149E1
:102A700008701FE000203149088012E000202D4935
:102A8000097801EB410202EB01112D4A02EB8101B1
:102A90002A4A128841F8220028480088401C274909
:102AA0000880264800881328E8DB22480078401C6C
:102AB000204908701F4800780728DBDBFFF7DCF9A6
:102AC0000A20FFF7EBFE42F2CF0142F21070FFF74F
:102AD00001FDC0201B490870A820487001208870A3
:102AE0004720C87040F67E6017490880FEF71AFF3D
:102AF000FFF750F80A20FFF7D1FEFEF723FCFFF79F
:102B000077FD12480068401C1049086001201049F8
:102B1000087008E00E480078012803D10320FEF772
:102B2000BBF800BF00BFF5E79C02434200004342F0
:102B300025000020BC00002040150020B00000202F
:102B40002C010020790000207E000020B800002029
:102B5000A20000204FF04070E1EE100A7047000024
:102B6000802B000800000020E0000000C4010008E5
:102B7000602C0008E0000020D03B0000E0010008CD
:102B800000000000000000000000000000050E4CE6
:102B9000C0A801420E56C0A801430000000000007A
:102BA0000000000000006461716900050100060674
:102BB0000C1012150B030F4E4F50676DC8252B03D9
:102BC00019444E5A0C1012150B030F4E4F50676DDF
:102BD000C8252B0319444E5A00C0A80101006409FE
:102BE0000008DC010203C0A80142C0A80101FFFFE8
:102BF000FF00F2040000000000C0A8014200000035
:102C00000008DC010203C0A80142C0A80101FFFFC7
:102C1000FF00F20400000000000088130300000021
:102C200000000000000001000000000000000000A3
:102C3000000000000000000000000000000008028A
:102C4000010101010101080201010101010100006E
:102C5000000102030000000000007F0000000000EF
:040000050800018965
:00000001FF
