:020000040800F2
:10000000A03A00202902000831020008330200084B
:10001000350200083702000839020008000000001D
:100020000000000000000000000000003B0200088B
:100030003D020008000000003F02000841020008E5
:100040003D20000843020008430200084302000864
:100050004302000843020008B906000843020008F2
:10006000430200084302000843020008430200085C
:10007000430200084302000843020008430200084C
:10008000430200084302000843020008430200083C
:10009000430200084302000843020008430200082C
:1000A000430200084302000843020008430200081C
:1000B00043020008A11C0008430200084302000894
:1000C00043020008430200084302000843020008FC
:1000D00043020008FD1D0008430200084302000817
:1000E000E906000843020008430200084302000832
:1000F00043020008430200084302000843020008CC
:1001000043020008430200084302000843020008BB
:1001100043020008430200084302000843020008AB
:10012000430200084302000843020008430200089B
:10013000430200084302000843020008430200088B
:10014000430200084302000843020008430200087B
:10015000430200084302000843020008430200086B
:10016000430200084302000843020008430200085B
:10017000430200084302000843020008430200084B
:10018000430200084302000800F002F800F03CF8C7
:100190000AA090E8000C82448344AAF10107DA45E2
:1001A00001D100F031F8AFF2090EBAE80F0013F0F8
:1001B000010F18BFFB1A43F001031847502200003B
:1001C00070220000103A24BF78C878C1FAD85207CC
:1001D00024BF30C830C144BF04680C6070470000C1
:1001E0000023002400250026103A28BF78C1FBD840
:1001F000520728BF30C148BF0B6070471FB502F0DF
:10020000FFF81FBD10B510BD00F031F81146FFF723
:10021000F5FF01F0FFFF00F04FF803B4FFF7F2FF26
:1002200003BC00F057F80000094880470948004720
:10023000FEE7FEE7FEE7FEE7FEE7FEE7FEE7FEE796
:10024000FEE7FEE704480549054A064B70470000F3
:10025000391C000889010008A0340020A03A0020C1
:10026000A0360020A03600207047704770477546C2
:1002700000F02CF8AE4605006946534620F0070012
:10028000854618B020B5FFF7DDFFBDE820404FF0F0
:1002900000064FF000074FF000084FF0000B21F070
:1002A0000701AC46ACE8C009ACE8C009ACE8C0093D
:1002B000ACE8C0098D46704710B50446AFF3008026
:1002C0002046BDE81040FFF7A8BF00000048704777
:1002D0003C34002001491820ABBEFEE72600020096
:1002E000704700001CB50121082000F063FC4FF4AA
:1002F0004050009001208DF8040000208DF8060089
:1003000003208DF8050001208DF807006946054897
:1003100000F092FA0120044908600449C1F8B402CF
:100320001CBD0000000C0240B082414200804142EE
:100330000021124A11601249096821F04061104AF7
:1003400011601146096841F08061116000210D4A79
:10035000C2F8B412002001E0411CC8B21428FBDB33
:100360000121064A1160002001E0411CC8B2142896
:10037000FBDB0021014A116070470000B08241425E
:10038000000C0240008041420021104A11601049D7
:10039000096821F040610E4A11601146096841F078
:1003A00080611160002001E0411CC8B21428FBDB11
:1003B0000121064A1160002001E0411CC8B2142846
:1003C000FBDB0021014A116070470000B08241420E
:1003D000000C02401249096821F04061104A116086
:1003E0001146096841F08061116001210D4A1160D8
:1003F0000D4AC2F8B012002001E0411CC8B23228F8
:10040000FBDB0021074A1160002001E0411CC8B25B
:100410003228FBDB0021034A121F116070470000E5
:10042000000C0240B48241420080414212490968F6
:1004300021F04061104A11601146096841F0806165
:10044000116000210D4A11600D4AC2F8B01200205F
:1004500001E0411CC8B23228FBDB0121074A121F10
:100460001160074AC2F8B412002001E0411CC8B272
:100470003228FBDB70470000000C0240B48241428E
:100480000080414210B5002400231748006820F086
:10049000406015490860084600680860012013495B
:1004A000086000BF01E0581CC3B2142BFBDB012025
:1004B0000E49091F0860002301E0581CC3B2142B29
:1004C000FBDB07E0601CC4B2FA2C03DDFFF7AEFFD4
:1004D000012010BD0548803800680028F2D103498A
:1004E000091F086000BFF4E7000C0240B4824142DB
:1004F00010B5FFF7F7FE10BD70B506460C46154661
:1005000008E03046721CD6B200F007F804F8010B80
:10051000681EC5B2002DF4D170BD30B50446FFF79A
:1005200059FFA02000F04EF8FFF7ACFF204600F086
:1005300049F8FFF7A7FFFFF74DFFA12000F042F8B1
:10054000FFF7A0FF002000F005F80546FFF76EFF5B
:10055000284630BD70B505461748006820F0406059
:100560001549086008460068086000261AE0002067
:1005700012490860002301E0581CC3B2142BFBDBB6
:1005800001200E4908606006040E0D48D0F83402C0
:100590002044C4B2002301E0581CC3B2142BFBDB7F
:1005A000701CC6B2082EE2DB15B1FFF7C1FE01E0F8
:1005B000FFF7EAFE204670BD000C0240B0824142C7
:1005C0000080414210B50146194B1B6823F040637F
:1005D000174C236023461B6843F08063236000238D
:1005E000144C236000221FE0CB09124C241D236011
:1005F0004B06190E002001E0431CD8B21428FBDB87
:1006000001230C4C2360002001E0431CD8B21428C5
:10061000FBDB0023074C2360002001E0431CD8B221
:100620001428FBDB531CDAB2082ADDDB10BD000006
:10063000000C0240B082414270B506460C46FFF7FE
:10064000C9FEA020FFF7BEFFFFF71CFF3046FFF7F3
:10065000B9FFFFF717FF2046FFF7B4FFFFF712FFC0
:10066000FFF7E4FE002500E06D1C02488542FBD345
:1006700070BD000040420F0010B510214FF484708F
:1006800000F0FEFD002401E0601CC4B2142CFBDB72
:1006900005E0002401E0601CC4B2142CFBDB4FF425
:1006A000847000F00BFD0028F3D1FF214FF402709D
:1006B00000F0E6FD10BD000010B5012000F066F866
:1006C00078B10221522000F01FFA84B204F0010038
:1006D00020B100F0FDFE012002490870012000F069
:1006E0004FF810BD2000002010B54FF4804000F0FE
:1006F0004DF800283FD04FF4027000F0DFFC0446B4
:1007000004F0010060B101214FF4027000F0B8FD67
:100710001948006808B9012000E000201649086067
:1007200004F0040088B1154800F030FC04214FF4B7
:10073000027000F0A5FD1048001D006808B90120F6
:1007400000E000200C49091D086004F0020070B1AF
:1007500002214FF4027000F093FD07480830006852
:1007600008B9012000E000200349083108604FF477
:10077000804000F005F810BD9C8240429A13002092
:100780000149086070470000143C01400146002008
:10079000034A12680A400AB1012000E000207047B5
:1007A000143C0140002123498279002A3AD00A46AC
:1007B000126803689A430B461A600A1D12680368A0
:1007C0009A430B1D1A60027911440A6803681A43A0
:1007D0000A60184A0832126803689A43154B0833B6
:1007E0001A601A1D126803689A43124B0C331A6080
:1007F0004279102A0ED11A1F126803681A430D4B52
:1008000008331A601A1D126803681A43094B0C3327
:100810001A600DE00749427911440A6803681A43D7
:100820000A6005E0027911440A6803689A430A6085
:1008300070470000003C0140F0B50A46002100234B
:10084000002400BF3DE0012505FA01F3156805EA23
:1008500003049C4234D105684F000326BE40B543D3
:10086000056015794E00B540066835430560157979
:10087000012D02D01579022D16D185684F0003266F
:10088000BE40B543856055794E00B5408668354316
:100890008560456801268E40B54345604568967978
:1008A0008E40B6B235434560C5684F000326BE4052
:1008B000B543C560D5794E00B540C6683543C560BF
:1008C000491C1029BFD3F0BDF0B5002300244D070B
:1008D000ED0E02FA05F3CE1000F1200555F8265072
:1008E0004E07F70E0F26BE40B543CF1000F120068D
:1008F00046F82750CE1000F1200555F8265045EA5D
:100900000304CE1000F1200545F82640F0BD4183D8
:1009100070470183704742694A4042617047000056
:1009200000B50020FFF7F9FD434908700120FFF7EB
:10093000F4FD42490880084600884FF6FF7101EA3D
:1009400000203E4908800220FFF7E7FD3B49098867
:1009500008443A490880042239490320FFF7CCFDB6
:1009600035490978642211FB02F0C11700EB1161CF
:100970000912A0EB0121334AD1702F49097801EB0C
:1009800081014800C11700EB11610912A0EB0121A0
:1009900011712949097801EB81014800C11700EB69
:1009A00011610912A0EB012151710720FFF7B5FD7C
:1009B00025490880084600884FF6FF7101EA0020AB
:1009C000214908800820FFF7A8FD1F49098808442D
:1009D0001D49088004221D490920FFF78DFD164995
:1009E000097801EBC10202EB0111012202EB810047
:1009F000C11700EB11610912A0EB0121144AD1705B
:100A00000D49097801EB8101012202EB4100C11778
:100A100000EB11610912A0EB01210D4A1171064989
:100A2000097801EB81014800C11700EB116109123F
:100A3000A0EB0121517100BD000000206E000020DC
:100A4000620000205C000020880000207B00002065
:100A50007500002038B10849096844F221021143A9
:100A6000054A116006E00449096844F221029143F5
:100A7000014A116070470000003C014070B5002140
:100A800000230F22C4781CB3174C246804F4E064DC
:100A9000C4F5E064C4F30721C1F10404E3B20A41E0
:100AA00044789C40E1B28478144021430C07210E25
:100AB0000E4C05786155047804F01F050124AC4004
:100AC00005786D11AD0005F1E025C5F8004109E09C
:100AD000047804F01F050124AC40054D067876111A
:100AE00045F8264070BD00000CED00E000E400E099
:100AF00080E100E002490143024A116070470000B2
:100B00000000FA050CED00E02DE9F04106460F4625
:100B1000002400201049086006F07F06304600F0EF
:100B20006BFD0546032F05D1304600F065FD0546F7
:100B30002C442402304600F05FFD05462C4424027C
:100B4000304600F059FD05462C440120024908605A
:100B50002046BDE8F0810000808241422DE9F0414D
:100B600005460E461446002700201149086005F08E
:100B70007F0040F08005284600F03EFD8046032EB1
:100B800005D1C4F30747384600F036FD8046C4F36C
:100B90000727384600F030FD8046E7B2384600F0BF
:100BA0002BFD8046012002490860BDE8F08100006D
:100BB0008082414229B1064A12680243044B1A60FE
:100BC00004E0034A12688243014B1A607047000038
:100BD0003038024029B1064A12680243044B1A60B9
:100BE00004E0034A12688243014B1A607047000018
:100BF0004038024029B1064A12680243044B1A6089
:100C000004E0034A12688243014B1A6070470000F7
:100C10002038024029B1064A12680243044B1A6088
:100C200004E0034A12688243014B1A6070470000D7
:100C30004438024029B1064A12680243044B1A6044
:100C400004E0034A12688243014B1A6070470000B7
:100C500024380240F0B5002100220024022500269D
:100C60000223324F3F6807F00C0121B1042905D05F
:100C7000082937D105E02E4F076036E02D4F076079
:100C800033E02A4F3F1F3F68C7F38056274F3F1F6F
:100C90003F6807F03F036EB1264FB7FBF3F7DFF86D
:100CA0008CC0ACF1040CDCF800C0CCF3881C07FB52
:100CB0000CF40CE01E4FB7FBF3F7DFF870C0ACF19B
:100CC000040CDCF800C0CCF3881C07FB0CF4174FB5
:100CD0003F1F3F68C7F301477F1C7D00B4FBF5F75A
:100CE000076002E0124F076000BF00BF0F4F3F6870
:100CF00007F0F0010909104F7A5C0768D740476098
:100D00000A4F3F6807F4E051890A0B4F7A5C476845
:100D1000D7408760054F3F6807F46041490B064F95
:100D20007A5C4768D740C760F0BD000008380240D1
:100D30000024F40000127A00B100002000B58BB04E
:100D400001211020FFF736FF4FF480500990012059
:100D50008DF8280000208DF82A0003208DF8290046
:100D600001208DF82B0009A95448FFF765FD4FF4C9
:100D700080515248FFF7CDFD01210220FFF71AFFF5
:100D800001218803FFF726FF4FF4805009900120CE
:100D90008DF8280000208DF82A0003208DF8290006
:100DA00001208DF82B0009A94548FFF745FD4FF4B8
:100DB00080514348FFF7ADFD4FF460400990022099
:100DC0008DF8280000208DF82A0002208DF82900D7
:100DD00001208DF82B0009A93948FFF72DFD0522C8
:100DE0000D213748FFF770FD05220E213448FFF72B
:100DF0006BFD05220F213248FFF766FD314800F0F8
:100E00002FFC0020ADF804004FF48270ADF806000E
:100E10000020ADF80800ADF80A00ADF80C004FF462
:100E20000070ADF80E000020ADF81000ADF8120013
:100E30000720ADF8140001A9224800F077FC012139
:100E4000204800F001FC01211020FFF7B3FE4FF411
:100E50008040099000208DF8280003208DF829009B
:100E600001208DF82B0009A91448FFF7E5FC0121AA
:100E70008803FFF7CFFE0E21042000F0D1FC4FF4D1
:100E80008040079000208DF820000C208DF8210074
:100E900001208DF8220007A8FFF784FC28208DF898
:100EA000180002208DF819008DF81A0001208DF825
:100EB0001B0006A8FFF7E2FD0BB000BD00100240CA
:100EC000000402400038004010B5FFF737FF00F083
:100ED00015F9062224494FF4106000F0A7F9042206
:100EE00022494FF4A06000F0A1F9042220499001AA
:100EF00000F09CF904221F494FF4706000F096F94D
:100F00001D490888C11700EB1161090A1B4A1170BD
:100F100019490888C11700EB11610912A0EB0121E2
:100F20005170022215494FF4C85000F07FF914485F
:100F300001784FF4D85000F0A3F9002411E0114AD1
:100F4000115D41F6087202EB441000F099F90E4A67
:100F5000115D41F6086202EB441000F091F9601C4B
:100F6000C4B2082CEBDB10BD5C0000206A0000203E
:100F7000660000206200002090000020D4000020C5
:100F800092000020CA000020C200002070B5054673
:100F90000222244942F2086000F066F821484178B4
:100FA000007801EB00202049088002221D4942F60A
:100FB000080000F059F81B484178007801EB002048
:100FC00084B2194909886018C11700EB1161090A38
:100FD000164A1170144909886018C11700EB116195
:100FE0000912A0EB01215170002000EB042000F158
:100FF00018060D4802882946304600F035F80222CE
:101000000A4942F6080000F011F940214FF48470BB
:1010100000F036F900BF4FF4847000F04FF800285C
:10102000F9D170BDD600002070000020D40000204F
:1010300010B5044600BF02210A4800F069FB0028F1
:10104000F9D02146074800F06FFB00BF0121054899
:1010500000F05EFB0028F9D0024800F062FBC0B24D
:1010600010BD0000003800402DE9F04104460E4656
:1010700017464FF480511048FFF749FCC4F307406E
:10108000FFF7D6FFC4F30720FFF7D2FF04F0F80004
:10109000FFF7CEFF002505E00020FFF7C9FF7055E0
:1010A000681C85B2BD42F7DB4FF480510248FFF760
:1010B00030FCBDE8F08100000004024070B5044639
:1010C0004FF480510C48FFF722FCC4F30740FFF7B0
:1010D000AFFFC4F30720FFF7ABFF04F0F800FFF702
:1010E000A7FF0020FFF7A4FF05464FF480510248F8
:1010F000FFF70FFC284670BD0004024070B54FF4A6
:1011000080511048FFF703FC002401E0601C84B20A
:1011100046F2A8108442F9DB4FF480510948FFF7EA
:10112000F8FB002409E0002501E0681C85B246F2C6
:10113000A8108542F9DB601C84B241F288308442F9
:10114000F1DB70BD0010024070B5002501214FF4A5
:10115000C05000F095F80F2142F6084000F090F8DA
:10116000FFF78AFA2121082000F08AF82D49088823
:10117000C11700EB1161090A2B4A1170294908882F
:10118000C11700EB11610912A0EB0121517002227D
:1011900025494FF4816000F049F800BF01214FF468
:1011A000847000F06DF8002401E0601CC4B2142CBF
:1011B000FBDB05E0002401E0601CC4B2142CFBDB67
:1011C0004FF48470FFF77AFF0028F3D14FF4427098
:1011D000FFF774FF13280AD0681CC5B20A2D02DA83
:1011E000FFF74AFADAE7FFF747FA002070BD02215D
:1011F0004FF4847000F044F8002401E0601CC4B295
:10120000142CFBDB05E0002401E0601CC4B2142CAC
:10121000FBDB4FF48470FFF751FF0028F3D101206E
:10122000E4E700006E000020D40000202DE9F0412A
:1012300004460E4617464FF480511048FFF767FBEF
:10124000C4F30740FFF7F4FEC4F30720FFF7F0FEF6
:1012500004F0F801091DC8B2FFF7EAFE002504E01A
:10126000705DFFF7E5FE681C85B2BD42F8DB4FF408
:1012700080510248FFF74DFBBDE8F08100040240B9
:1012800070B504460D464FF480510D48FFF73FFB03
:10129000C4F30740FFF7CCFEC4F30720FFF7C8FEF6
:1012A00004F0F801091DC8B2FFF7C2FE2846FFF797
:1012B000BFFE4FF480510248FFF72BFB70BD0000CA
:1012C0000004024000B585B001210820FFF772FC40
:1012D000012003908DF8100000208DF812000320EB
:1012E0008DF8110001208DF8130003A92C48FFF799
:1012F000A3FA01212A48FFF70CFB01210846FFF75A
:1013000059FC0220039001208DF8100000208DF878
:10131000120003208DF8110001208DF8130003A99D
:101320002048FFF789FA02211E48FFF7F2FA01214F
:101330000846FFF73FFC0120039000208DF81000C5
:1013400003208DF8110001208DF8130003A9154822
:10135000FFF772FA01218803FFF75CFC00210846C1
:1013600000F05EFA0120009000208DF804000C20AF
:101370008DF8050001208DF806006846FFF712FA87
:1013800006208DF8080002208DF809008DF80A006B
:1013900001208DF80B0002A8FFF770FB05B000BD1F
:1013A000000C02400000024010B50024FFF78AFF45
:1013B000012000F0BBFE00F0D7F901203E49086093
:1013C0000A2000F0B3FE00203C49C1F884020A2044
:1013D00000F0ACFE40F2052202215620FFF7BEFBD2
:1013E0003748027802216020FFF7B8FB4FF6FF7202
:1013F00002216820FFF7B2FB012202215020FFF7F3
:10140000ADFB3048027802213C20FFF7A7FB00BF6C
:1014100016E0224602212020FFF7A0FB072202212E
:101420003220FFF79BFB2848025D02212220FFF7B4
:1014300095FB224602213A20FFF790FB601CC4B2C4
:10144000122CE6DB4AF6A13202217020FFF786FB60
:10145000002202212020FFF781FB002202217220BE
:10146000FFF77CFB012202212020FFF777FB1022EF
:1014700002217220FFF772FB022211462020FFF7A3
:101480006DFB202202217220FFF768FB032202215C
:101490002020FFF763FB302202217220FFF75EFB62
:1014A0000A4A03212A20FFF759FB4FF44472022114
:1014B0002420FFF753FB10BD84024042000040424D
:1014C00000000020210000202E130020FFFF030059
:1014D0002DE9F04103214020FFF716FB8046002450
:1014E00031E00120A04000EA080050B30120A040F4
:1014F000174909680843164908602246022120203E
:10150000FFF72CFB02212620FFF7FEFA054605F423
:101510008070B0B1EFB200200E490860482000F0A2
:101520006BF8002608E0AA2000F066F80A4901EBF3
:10153000C4118855701CC6B2BE42F4DB01200549B7
:101540000860601CC4B2122CCBDBBDE8F081000047
:101550001C000020808241422E0A002070B500202D
:10156000FFF778FA00242DE00120A0401D4909680A
:10157000084028B3224602212020FFF7EFFA1A483C
:10158000005D1A49095D40EA012202212620FFF789
:10159000E5FA002016490860B42000F02DF8002577
:1015A00007E0144901EBC411485D00F025F8681C00
:1015B000C5B20D48005DA842F3DC01200C4908606B
:1015C000601CC4B2122CCFDB06480268032136200F
:1015D000FFF7C4FA0120FFF73DFA00200149086037
:1015E00070BD00001800002040130020521300209E
:1015F000808241422E01002010B5044600BF022126
:101600000A4800F085F80028F9D02146074800F084
:101610008BF800BF0121054800F07AF80028F9D0C6
:10162000024800F07EF8C0B210BD0000003C00404F
:1016300021B1028842F40052028004E002884DF693
:10164000FF731A400280704721B1028842F04002C5
:10165000028004E002884FF6BF731A400280704790
:1016600010B504462448844208D101218014FFF7B4
:10167000E1FA0021A014FFF7DDFA3CE01F488442A4
:1016800008D101210014FFF7B5FA00212014FFF75B
:10169000B1FA30E01A48844208D10121C013FFF7A3
:1016A000A9FA0021E013FFF7A5FA24E015488442C7
:1016B00008D101214014FFF7BDFA00216014FFF7A3
:1016C000B9FA18E01048844209D101210805FFF752
:1016D000B1FA00214FF48010FFF7ACFA0BE00B4891
:1016E000844208D101214805FFF7A4FA00214FF4F4
:1016F0000010FFF79FFA10BD003001400038004095
:10170000003C0040003401400050014000540140C2
:101710000246002013890B400BB1012000E000209D
:1017200070470146888970478181704710B5002253
:10173000028802F441520B884C8823438C8823434F
:10174000CC8823430C8923434C8923438C8923432E
:10175000CC8923431A430280838B4FF2FF742340CA
:1017600083830B8A038210BD00B587B0012104205A
:10177000FFF720FA0121C803FFF72CFA4FF4E050DD
:10178000059002208DF8180000208DF81A00022024
:101790008DF819008DF81B0005A91F48FFF74CF8BC
:1017A00006220A211C48FFF78FF806220B211A484F
:1017B000FFF78AF806220C211748FFF785F817482B
:1017C000FFF74EFF0020ADF800004FF48270ADF837
:1017D00002000020ADF80400ADF80600ADF80800E6
:1017E0004FF40070ADF80A000820ADF80C0000209E
:1017F000ADF80E000720ADF8100069460748FFF766
:1018000095FF00210548FFF713FF01210348FFF76B
:101810001BFF07B000BD000000080240003C004074
:1018200030B500228B071C0F0F2303FA04F20B4B79
:101830008C1053F824309343084C8D1044F8253015
:1018400023468C1053F824308C07240F00FA04F43C
:101850002343024C8D1044F8253030BD0838014038
:101860002DE9F0410546012D7ED10027FFF72AFD25
:10187000012000F05BFCFFF777FF0120744908604E
:101880000A2000F053FC00207249C1F884020A20AB
:1018900000F04CFC4D2070490870052202215620B2
:1018A000FFF75CF9092202215020FFF757F90522C2
:1018B00002213C20FFF752F900BF18E03A4602210E
:1018C0002020FFF74BF9072202213220FFF746F9CB
:1018D00007EB870000F10A0202212220FFF73EF900
:1018E0003A4602213A20FFF739F9781CC7B2122F85
:1018F000E4DB4AF6A13202217020FFF72FF9002223
:1019000002212020FFF72AF9002202217220FFF78E
:1019100025F9012202212020FFF720F910220221BF
:101920007220FFF71BF9022211462020FFF716F95B
:10193000202202217220FFF711F903220221202028
:10194000FFF70CF9302202217220FFF707F9434A12
:1019500003212A20FFF702F94FF4457202212420C7
:10196000FFF7FCF80A2000E008E000F0DFFB40F29F
:10197000473142F20F7000F0A7F900BF00240FE0DA
:10198000002609E0A019364909780844354901EBD9
:10199000C4118855701CC6B2502EF3DB601CC4B253
:1019A000052CEDDB2E480078401C2D4908700846B8
:1019B0000078962801DB0020087000240EE001204A
:1019C000A04029490968084327490860232027497E
:1019D0000855002026490855601CC4B2052CEEDBD2
:1019E000FFF7BCFD00202049086000BF21480078B7
:1019F0000128FBD100202049086006E01E48D0F8ED
:101A00000080B8F57A7F00D904E01C4800681349CB
:101A10008842F3D100BF194800681049884207D1B5
:101A20001748006808B9012000E000201449086048
:101A3000B5F57A7F04D211480068124941F82500B3
:101A400000200E4908600B490870BDE8F0810000D5
:101A500084024042000040429A170020FFFF03002A
:101A6000E00000202E01002018000020401300207C
:101A70005213002020000020240400401C000020FD
:101A8000840242429C2300202DE9F04105460C4689
:101A90001746257005EB850140F6FC5202EB8100EC
:101AA000C11700EB1161090A617005EB850102EBBA
:101AB0008100C11700EB11610912A0EB0121A17097
:101AC00068003A30A07105EB850140F6066202EB32
:101AD0008100C11700EB1161090AE17105EB850175
:101AE00002EB8100C11700EB11610912A0EB01218B
:101AF000217268003B30207300260FE0A15D304664
:101B0000FEF79AFD4FF0000803E008F1010000F035
:101B1000FF08B8F1640FF8DB701CC6B2BE42EDDB03
:101B2000BDE8F0810CB500200190009034480068B9
:101B300040F480303249086000BF3148006800F44A
:101B4000003000900198401C0190009818B901984D
:101B5000B0F5A04FF1D12A48006800F4003010B170
:101B60000120009001E0002000900098012846D15B
:101B700023484030006840F08050214940310860DF
:101B80002048006840F440401E4908601C48083066
:101B900000681B49083108600846006840F40040AE
:101BA00008600846006840F4A05008601648091F05
:101BB0000860081F006840F08070091F086000BFBF
:101BC0000F48006800F000700028F9D040F205705E
:101BD0000E4908600A480830006820F003000849F0
:101BE000083108600846006840F00200086000BF45
:101BF00003480830006800F00C000828F8D10CBD3C
:101C0000003802400070004008544007003C024089
:101C1000042808D14FF0E021096941F004014FF098
:101C2000E022116107E04FF0E021096921F0040191
:101C30004FF0E0221161704710B51548006840F47C
:101C40007000134908601348006840F00100114912
:101C5000086000200F49083108600E4800680E49EE
:101C600008400C4908600D48091D0860081F0068FD
:101C700020F48020091F0860002006490C3108600C
:101C8000FFF750FF4FF0006001498039086010BD38
:101C900088ED00E000380240FFFFF6FE103000241F
:101CA00010B50121064800F04CF8012803D141028B
:101CB0000448FEF730FE0121014800F033F810BD62
:101CC00000040040000402407FB505460C46012197
:101CD0000220FEF77FFF0295ADF804400020ADF82A
:101CE0000600ADF80C0001A90D4800F045F80122EE
:101CF00011460B4800F036F80121094800F015F8AC
:101D00001D208DF8000001208DF8010003208DF8C2
:101D1000020000208DF803006846FEF7AFFE7FBD8D
:101D200000040040CA430282704721B1028842F099
:101D30000102028004E002884FF6FE731A4002801E
:101D4000704730B50246002000230024158A05EABA
:101D50000103958905EA010413B10CB1012000E0EB
:101D6000002030BD1AB183890B43838102E083894F
:101D70008B4383817047000000220288184B9842F1
:101D80000ED0184B98420BD0B0F1804F08D0164BB4
:101D9000984205D0154B984202D0154B984204D179
:101DA0004FF68F731A404B881A43124B984207D054
:101DB000114B984204D04FF6FF431A400B891A4347
:101DC00002804B68C3620B880385054B984202D0A2
:101DD000044B984201D18B7A03860123838270479A
:101DE00000000140000401400004004000080040E1
:101DF000000C0040001000400014004010B540F2FC
:101E00002551204800F054F890B31E4800F00AF91C
:101E1000C4B21D48007848B9102C01D0682C05D1F7
:101E200001201949087000201849087018481749FE
:101E30000978445415480078401C14490870144827
:101E40000078102806D108460078052802D1002025
:101E50000D4908700E480078682809D10C48407870
:101E6000801D0A490978884202D10020064908707D
:101E70000848006808B9012000E000200549086012
:101E800010BD000000100140D8000020D900002043
:101E90003C330020A482404221B1828942F40052A6
:101EA000828104E082894DF6FF731A408281704777
:101EB00070B50246002400230025002040F66A1673
:101EC000B14200D100BFC1F3421501F01F0301264A
:101ED00006FA03F3012D02D19689334006E0022D64
:101EE00002D1168A334001E0968A33400C12012653
:101EF00006FA04F41688344013B10CB1012000E056
:101F0000002070BDF0B50346002400260025002007
:101F100040F66A17B94200D100BF1846C1F3421417
:101F200001F01F06012707FA06F5012C01D10C303C
:101F300004E0022C01D1103000E014301AB107681F
:101F40002F43076002E00768AF430760F0BD000061
:101F50002DE9FF4705460E460024A14600BFA046D6
:101F6000B08900B100BF2C8A24F44054F0880443A7
:101F70002C82AC8941F20C608443B08831890843DB
:101F8000718908430443AC81AC8A24F44074B0895D
:101F90000443AC826846FEF75DFE2048854202D0CD
:101FA0001F48854202D1DDF80C9001E0DDF8089071
:101FB000A88900F4004040B109EBC90000EB09100A
:101FC00031684900B0FBF1F707E009EBC90000EB0D
:101FD000091031688900B0FBF1F76420B7FBF0F01D
:101FE00004012009642101FB1078A88900F4004055
:101FF00040B1322000EBC800B0FBF1F000F0070068
:10200000044308E0322000EB08106421B0FBF1F03B
:1020100000F00F0004432C81BDE8FF870010014051
:102020000014014001468888C0F308007047000092
:102030000020014908607047082C004010B5064890
:10204000007800F00BF8FFF7F3FF002401E0601CBC
:10205000C4B2042CFBDB10BDDA00002000F07F01CD
:10206000014A116070470000002C004010B5044682
:102070006FF00400FFF7CCFDE11704EB5171C1F3E1
:10208000C701074A11701046007800EB4001C1EB10
:10209000C0104FF6FF7101EAC0000249088010BD70
:1020A000DC000020DE00002070B504464FF407700D
:1020B00094FBF0F0C6B24FF4077094FBF0F100FB14
:1020C000114085B205E04FF4077000F009F8701E6A
:1020D000C6B2002EF7D115B1284600F001F870BD48
:1020E0000146114A12884A434FF0E0235A61002208
:1020F0009A611A46126942F001021A6100BF4FF05C
:10210000E022106900F001021AB100F48032002AC6
:10211000F5D04FF0E022126922F001024FF0E023E7
:102120001A6100229A617047DE00002010B500237A
:102130000EE0002107E0002201E0541CA2B2642A54
:10214000FBDB4C1CA1B2B1F5C87FF4DB5C1CA3B275
:102150008342EEDB10BD00001CB501214020FEF7DC
:1021600029FD4FF49060009001208DF804000020BC
:102170008DF8060003208DF8050001208DF807007A
:1021800069462148FEF758FB80211F48FEF7BFFB38
:102190004FF480611C48FEF7BCFB01211020FEF7C4
:1021A00009FD0320009001208DF8040000208DF827
:1021B000060003208DF8050001208DF80700694610
:1021C0001248FEF739FB03211048FEF7A0FB01215E
:1021D0000220FEF7EFFC4FF46070009001208DF8B4
:1021E000040000208DF8060003208DF80500012072
:1021F0008DF8070069460648FEF71EFB4FF4607134
:102200000348FEF784FB1CBD00180240001002408A
:10221000000402404FF4A060FEF76CFCA820FFF71A
:1022200025FFFFF799FF0120354908600020354957
:10223000C1F8A8020520344908700A20FFF734FFCE
:10224000FEF756F90A20FFF72FFF0D222F49052030
:10225000FFF71AFC0A20FFF727FFFEF761FB0A20B1
:10226000FFF722FF00202A4908700CE02848007878
:10227000800014302749264A127888542448007870
:10228000401C23490870224800781228EEDBFFF733
:102290008BF80A20FFF708FF42F2CF0142F21070DC
:1022A000FFF712FD4FF4165000F040F800201A49D5
:1022B00008701A4908701A490870FEF705FE642074
:1022C000FFF7F2FEFEF740FF16480068401C154974
:1022D000086014E013480068FFF7C2FA114800686C
:1022E000401C104908604FF47A70FFF7DDFE0E487D
:1022F000006808B9012000E000200B490860E9E708
:102300009C024342000043422100002008000020BC
:10231000B00000202E130020720000208C0000204E
:1023200073000020AC0000208002424210B588B04B
:10233000044601210846FEF73DFC01211020FEF76E
:1023400069FC01210846FEF735FC4FF480700690C9
:1023500000208DF81C0003208DF81D0001208DF851
:102360001F0006A92448FEF767FA07220921224820
:10237000FEF7AAFA07220A211F48FEF7A5FA4FF432
:10238000C060069002208DF81C008DF81D00002012
:102390008DF81E0001208DF81F0006A91648FEF7D3
:1023A0004BFA02940020ADF80C00ADF80E00ADF829
:1023B0001000ADF814000C20ADF8120002A90F486F
:1023C000FFF7C6FD01210D48FFF766FD012240F22F
:1023D00025510A48FFF796FD25208DF804000220BC
:1023E0008DF805008DF8060001208DF8070001A882
:1023F000FEF744FB08B010BD000002400010014091
:102400004FF04070E1EE100A704700002C240008E5
:1024100000000020E4000000C401000810250008AE
:10242000E4000020BC390000E001000800000000CA
:1024300000000000050E4CC0A801420E56C0A801C5
:102440004300000000000000000000000000646184
:1024500071690005010006060C1012150B030F4EE2
:102460004F50676DC8252B0319444E5A0C10121596
:102470000B030F4E4F50676DC8252B0319444E5A5E
:1024800000C0A801010064090008DC010203C0A823
:102490000142C0A80101FFFFFF00F204000000009C
:1024A000000008DC010203C0A80142C0A80101FF2E
:1024B000FFFF0000F204000000000000881303008A
:1024C000000000000000000100000000000000000B
:1024D00000000000000000000000000000000000FC
:1024E00000010203040102030406070809000802B0
:1024F00001010101010108020101010101010000C6
:102500000000000000007F0000000000000000004C
:040000050800018965
:00000001FF
